:020000040800F2
:1000000058530020E9020008AD42000809360008F4
:10001000A9420008AF0C0008DB4E000800000000F9
:10002000000000000000000000000000290200089D
:10003000DF0D0008000000008502000839450008B7
:100040000303000803030008030300080303000878
:100050000303000803030008030300080303000868
:100060000303000803030008030300080303000858
:100070000303000803030008030300080303000848
:100080000303000803030008C50600080303000873
:100090000303000803030008030300080303000828
:1000A0000303000803030008030300080303000818
:1000B00019460008030300080303000803030008AF
:1000C00003030008030300080303000803030008F8
:1000D00003030008030300080303000803030008E8
:1000E000030300080303000803030008294600086F
:1000F000394600080303000803030008030300084F
:1001000003030008030300080303000803030008B7
:1001100003030008030300080303000803030008A7
:10012000B50C0008C50C0008030300080303000811
:100130000303000803030008030300080303000887
:100140000303000803030008030300080303000877
:100150000303000803030008030300080303000867
:100160000303000803030008030300080303000857
:100170000303000803030008030300080000000055
:10018000030300080303000800F002F800F03CF845
:100190000AA090E8000C82448344AAF10107DA45E2
:1001A00001D100F031F8AFF2090EBAE80F0013F0F8
:1001B000010F18BFFB1A43F001031847F88900002C
:1001C000188A0000103A24BF78C878C1FAD85207BC
:1001D00024BF30C830C144BF04680C6070470000C1
:1001E0000023002400250026103A28BF78C1FBD840
:1001F000520728BF30C148BF0B6070471FB507F0DA
:1002000057FB1FBD10B510BD00F0D0F91146FFF728
:10021000F5FF04F0EFFE00F0EEF903B4FFF7F2FF94
:1002200003BC00F0F5F900002C4B19680868B0E831
:10023000F04F80F30988BFF36F8F4FF0000080F319
:10024000118870470000000008480068006880F3CB
:1002500008884FF0000080F3148862B661B6BFF3DF
:100260004F8FBFF36F8F00DF00BF00BF08ED00E0CE
:10027000DFF80C00016841F470010160704700BFB5
:1002800088ED00E0EFF30980BFF36F8F134B1A681E
:100290001EF0100F08BF20ED108A20E9F04F10600B
:1002A00009B44FF0500080F31188BFF34F8FBFF3B4
:1002B0006F8F06F0D5F84FF0000080F3118809BC6D
:1002C00019680868B0E8F04F1EF0100F08BFB0ECD6
:1002D000108A80F30988BFF36F8F70477C0000207D
:1002E000EFF3058070470000094880470948004740
:1002F000FEE7FEE7FEE7FEE7FEE7FEE7FEE7FEE7D6
:10030000FEE7FEE704480549054A064B7047000032
:100310000546000889010008584D00205853002068
:10032000584F0020584F002053EA020C00F069801B
:100330002DE9F04B4FF00006002B1FBFB3FA83F5F9
:1003400003FA05F424FA05F65E4012BF1643B2FA2A
:1003500082F502FA05F4C5F120051EBF22FA05FC5C
:1003600044EA0C04203556EA044C4FEA144418BF02
:10037000641C4FF000084FF00009904271EB030C31
:1003800039D3002919BFB1FA81F701FA07F6B0FA9B
:1003900080F700FA07F6C7F120071EBF20FA07FC16
:1003A00046EA0C062037B6FBF4FCA7EB0507103F26
:1003B00007F01F0BCBF120060CFA0BFB2CFA06F60C
:1003C00044BFB3460026202FA4BF5E464FF0000B6B
:1003D0005BEA060C08BF4FF0010B19EB0B09ABFBF6
:1003E000027C48EB0608C01B06FB02CC0BFB03CCCF
:1003F00071EB0C01C1E70B46024641464846BDE899
:10040000F08B13B54FF000004FF00001AFF3008008
:10041000BDE81C407047032A40F2308010F0030C06
:1004200000F0158011F8013BBCF1020F624498BF47
:1004300011F801CB00F8013B38BF11F8013BA2F1E4
:10044000040298BF00F801CB38BF00F8013B11F05F
:10045000030300F02580083AC0F0088051F8043BFF
:10046000083A51F804CBA0E80810F5E7121D5CBF6C
:1004700051F8043B40F8043BAFF30080D20724BF9F
:1004800011F8013B11F801CB48BF11F8012B24BF33
:1004900000F8013B00F801CB48BF00F8012B704782
:1004A00010B5203AC0F00B80B1E81850203AA0E80F
:1004B0001850B1E81850A0E81850BFF4F5AF5FEA43
:1004C000027C24BFB1E81850A0E8185044BF18C9F6
:1004D00018C0BDE810405FEA827C24BF51F8043B9D
:1004E00040F8043B08BF7047D20728BF31F8023BF1
:1004F00048BF11F8012B28BF20F8023B48BF00F885
:10050000012B704702F0FF0343EA032242EA024252
:1005100000F02CB84FF0000200B513469446964602
:10052000203922BFA0E80C50A0E80C50B1F1200106
:10053000BFF4F7AF090728BFA0E80C5048BF0CC0B4
:100540005DF804EB890028BF40F8042B08BF704712
:1005500048BF20F8022B11F0804F18BF00F8012B84
:1005600070477047704770474FF000020429C0F091
:10057000128010F0030C3FF4CFAFCCF1040CBCF1AF
:10058000020F18BF00F8012BA8BF20F8022BA1EB27
:100590000C01FFF7C1BF5FEAC17C24BF00F8012B4B
:1005A00000F8012B48BF00F8012B7047754600F09A
:1005B0002BF8AE4605006946534620F007008546F5
:1005C00018B020B5FFF79EFEBDE820404FF00006B2
:1005D0004FF000074FF000084FF0000B21F007012B
:1005E000AC46ACE8C009ACE8C009ACE8C009ACE86E
:1005F000C0098D46704710B50446AFF30080204611
:10060000BDE81040FFF709BE00487047F44C0020D9
:1006100001491820ABBEFEE726000200704770B506
:100620000546AC6B206C00F0500050BB206C40F4D1
:10063000007020642068806800F04050E8B9207E97
:10064000D8B92068C06A00F4700020B120688068C2
:1006500000F4806088B92068406820F0200021689C
:100660004860206C20F480702064206C00F480507E
:1006700018B9206C40F001002064204600F07AFC9C
:100680000BE0206C00F0100018B1204600F074FC64
:1006900003E0A06BC16C2846884770BD70B5054665
:1006A000AC6B40202064606C40F004006064204625
:1006B00000F062FC70BD70B50446A56B284600F0E2
:1006C0005AFC70BD10B5034800F057FC024800F01A
:1006D00054FC10BD6C010020B401002055494A684B
:1006E00022F440324A604A6843681A434A6002680A
:1006F000526822F4807203685A6002685368026983
:1007000043EA022203685A600268526822F040728B
:1007100003685A600268526883681A4303685A6023
:100720000268926822F4006203689A600268926824
:10073000C3681A4303689A603F4B826A9A4218D092
:100740000268926822F0706203689A600268926898
:10075000836A1A4303689A600268926822F04052E2
:1007600003689A6002689268C36A1A4303689A60D1
:100770000BE00268926822F0706203689A60026877
:10078000926822F0405203689A600268926822F0F0
:10079000020203689A6002689368027E43EA42029A
:1007A00003689A602022125CA2B10268526842F487
:1007B000006203685A600268526822F4604203686B
:1007C0005A6002685368426A521E43EA4232036822
:1007D0005A6005E00268526822F4006203685A60B9
:1007E0000268D26A22F470020368DA620268D36A8D
:1007F000828B521E43EA02520368DA6202689268F0
:1008000022F4007203689A600268936890F83020BE
:1008100043EA422203689A600268926822F4806286
:1008200003689A6002689368426943EA8222036817
:100830009A607047002301400100000F0FB410B50B
:100840009DED110ADFED8E0A20EE200ADFED8D0A04
:1008500080EE201ABCEEC10A10EE100A8A49086028
:100860009DED110ADFED860A20EE200ADFED850AF4
:1008700080EE201ABCEEC10A10EE100A091D0860B5
:100880009DED110ADFED7E0A20EE200ADFED7D0AE4
:1008900080EE201ABCEEC10A10EE100A091D086095
:1008A0009DF80A00072875D2DFE800F0AD04203C6F
:1008B000587591000021754802F07EFC04217348B0
:1008C00002F000FD0821714802F0FCFC00228021AA
:1008D0006F4801F067F9012211466E4801F062F994
:1008E000002202216B4801F05DF9C4E00021674855
:1008F00002F062FC0421654802F0E4FC0821634830
:1009000002F0E0FC00228021614801F04BF9002256
:100910000121604801F046F9012202215D4801F001
:1009200041F9A8E00021594802F0CCFC04215748C5
:1009300002F042FC0821554802F0C4FC002280214C
:10094000534801F02FF900220121524801F02AF901
:10095000012202214F4801F025F98CE000214B488B
:1009600002F0B0FC0421494802F026FC0821474867
:1009700002F0A8FC01228021454801F013F9002271
:100980000121444801F00EF900220221414801F002
:1009900009F970E053E000213C4802F093FC042187
:1009A0003A4802F08FFC0821384802F005FC012289
:1009B0008021374801F0F6F800220121354801F086
:1009C000F1F800220221334801F0ECF853E0002155
:1009D0002E4802F077FC04212C4802F073FC082119
:1009E0002A4802F0E9FB00228021294801F0DAF8C8
:1009F00001221146274801F0D5F80022022125489E
:100A000001F0D0F837E00021204802F05BFC04211F
:100A10001E4802F057FC08211C4802F053FC00223B
:100A200080211B4801F0BEF800220121194801F085
:100A3000B9F800220221174801F0B4F81BE00021A8
:100A4000124802F03FFC0421104802F03BFC082150
:100A50000E4802F037FC002280210D4801F0A2F878
:100A6000002201210B4801F09DF8002202210948D3
:100A700001F098F800BF00BF10BC5DF814FB000047
:100A800000401C460000C842340401404C030020D2
:100A90000000024000040240017801296FD1417832
:100AA00000296DD10179012900D100E000214279AE
:100AB0000AB9012200E0002211408279012A00D106
:100AC00000E00022114011B101218170EEE00179B6
:100AD000012900D100E0002142790AB9012200E099
:100AE0000022114082790AB9012200E0002211405F
:100AF00011B102218170D9E00179012900D100E012
:100B000000214279012A00D100E0002211408279BF
:100B10000AB9012200E00022114011B103218170C5
:100B2000C4E0017909B9012100E000214279012ADC
:100B300000D100E00022114082790AB9012200E0D0
:100B40000022114011B104218170AFE0017909B98F
:100B5000012100E000214279012A00D100E00022B9
:100B600011408279012A00D100E00022114011B128
:100B7000052181709AE0017919B9012102E093E021
:100B800011E0002142790AB9012200E0002211405F
:100B90008279012A00D100E000221140002995D07D
:100BA0000621817082E0417801297FD101790129F4
:100BB00000D100E0002142790AB9012200E00022C0
:100BC00011408279012A00D100E00022114011B1C8
:100BD000042181706AE00179012900D100E000213F
:100BE00042790AB9012200E00022114082790AB953
:100BF000012200E00022114011B10521817055E071
:100C00000179012900D100E000214279012A00D1B7
:100C100000E00022114082790AB9012200E000229E
:100C2000114011B10621817040E0017909B901211B
:100C300000E000214279012A00D100E000221140A9
:100C400082790AB9012200E00022114011B101218C
:100C500081702BE0017909B9012100E0002142797E
:100C6000012A00D100E0002211408279012A00D13E
:100C700000E00022114011B10221817016E00179DB
:100C800009B9012100E0002142790AB9012200E0FE
:100C9000002211408279012A00D100E00022114097
:100CA00021B10321817001E000218170704700BFF4
:100CB000FEE7000010B5024800F092FC10BD0000F5
:100CC000FC01002010B5024800F08AFC10BD0000B5
:100CD0005C0200200146087810381823B0FBF3F2BC
:100CE0000848805CC865032A05D908686FF30900C5
:100CF000001D886503E008686FF309008865886D4A
:100D00007047000080790008014600208A6A8B69DC
:100D1000CBB932B1012A0DD0022A03D0032A10D157
:100D20000EE000BFCB6A03F08073B3F1807F00D187
:100D3000012007E0CB6AB3F1C07F00D1012001E0C0
:100D400000E000BF34E08B69B3F5005F1AD132B127
:100D5000012A07D0022A03D0032A11D10AE000BFDA
:100D600001200EE0CB6A03F08073B3F1807F00D1E5
:100D7000012006E0CB6AB3F1C07F00D1012000E082
:100D800000BF15E032B1012A05D0022A04D0032A9F
:100D90000CD103E000BF00BF012008E0CB6A03F0E4
:100DA0008073B3F1807F00D1012000E000BF00BF5D
:100DB000704730B50468246824F4802405682C60EA
:100DC000046863608468402C04D10468A2600468ED
:100DD000E16003E00468A1600468E26030BD704730
:100DE00072B600BFFEE7704738B50246002000909B
:100DF00000BF92F83C00012801D1022038BD01203B
:100E000082F83C0000BF0868092816D91068C0683D
:100E10000C780A3C04EB44050724AC40A04314685A
:100E2000E0600C780A3C04EB44048868A040146835
:100E3000E46820431468E06013E0106800690C78EF
:100E400004EB44050724AC40A043146820610C78EF
:100E500004EB44048868A0401468246920431468A3
:100E600020614868072817D21068406B0C79641E0F
:100E700004EB84051F24AC40A04314686063088819
:100E800080B20C79641E04EB8404A0401468646B87
:100E900020431468606331E048680D2817D2106859
:100EA000006B0C79E41F04EB84051F24AC40A043C5
:100EB00014682063088880B20C79E41F04EB840472
:100EC000A0401468246B20431468206316E0106867
:100ED000C06A0C790D3C04EB84051F24AC40A04390
:100EE0001468E062088880B20C790D3C04EB84043D
:100EF000A0401468E46A20431468E062194B1A4C5D
:100F00001068A04206D10868122803D1586840F43E
:100F100080005860144C1068A0421CD1086810284A
:100F200002D00868112816D1586840F400005860B3
:100F3000086810280FD10D4800680D4CB0FBF4F084
:100F400000EB80004000009002E00098401E0090FE
:100F500000980028F9D100BF002082F83C0000BFB3
:100F600000BF4BE700230140002001407800002033
:100F700040420F007047704770472DE9F04104462A
:100F800000250026206807682068D0F8048007F054
:100F9000020508F0200695B38EB3206C00F0100017
:100FA00018B9206C40F4007020642068806800F05C
:100FB0004050E8B9207ED8B92068C06A00F47000BB
:100FC00020B12068806800F4806088B9206840689B
:100FD00020F0200021684860206C20F4807020649C
:100FE000206C00F4805018B9206C40F0010020649F
:100FF0002046FFF7BFFF6FF012002168086007F07E
:10100000040508F08006E5B3DEB3206C00F01000A4
:1010100018B9206C40F4005020642068806800F407
:10102000401038BB2068806B00F4401020B120686D
:10103000806800F48060E8B92068406800F480604F
:10104000C0B92068806800F0405098B9207E88B907
:101050002068406820F0800021684860206C20F4FF
:1010600080502064206C00F4807018B9206C40F02F
:10107000010020642046FFF7B6FE6FF00C002168E7
:10108000086007F0010508F0400685B17EB12068D0
:10109000006800F0010050B1206C40F48030206402
:1010A000204600F04FF86FF001002168086007F05B
:1010B000200508F080667DB176B1606C40F00200DA
:1010C00060646FF02000216808602046FFF754FF3D
:1010D0006FF0200021680860BDE8F08170B504461B
:1010E00000250CB9012070BD1549A06A884200D0C6
:1010F00000BF206C30B9204600F026F80020606464
:1011000084F83C00206C00F0100088B9206C20F4BA
:10111000885040F0020020642046FFF7DFFA0020EC
:101120006064206C20F0020040F00100206400E0C8
:10113000012500BF002084F83C0000BF2846D2E70C
:101140000100000F7047000010B586B0044614215E
:1011500001A8FFF7DFF95A492068884254D100BF3F
:10116000002000905748006840F48070554908609E
:101170000846006800F48070009000BF00BF00BF08
:10118000002000904F481438006840F004004D499A
:10119000143908600846006800F00400009000BFA1
:1011A00000BF10200190032002900020039001A9AD
:1011B000454800F0F5FB4548454908600020486077
:1011C000002143488160C1604FF4806101614900A2
:1011D0004161890081614911C161490201620021B7
:1011E000416200F01DFB08B1FFF7FAFD00BF38486F
:1011F000A063846300BF00220521122000F088FD57
:10120000122000F075FD59E032492068884255D11E
:1012100000BF002000902B48006840F480602949FE
:1012200008600846006800F48060009000BF00BFBE
:1012300000BF0020009023481438006840F02000D0
:101240002049143908600846006800F0200000902A
:1012500000BF00BF481501900320029000200390BA
:1012600001A91D4800F09CFB184818301B49086074
:101270004FF080604860002118488160C1604FF4E1
:101280008061016149004161890081614911C16149
:10129000490201620021416200F0C2FA08B1FFF781
:1012A0009FFD00BF0D48A063846300BF002205219D
:1012B000122000F02DFD122000F01AFD06B010BD26
:1012C00000200140443802400008024010640240FF
:1012D000FC01002000220140001402405C020020BA
:1012E00008B501460020009000BF91F83C0001289D
:1012F00001D1022008BD012081F83C0000BF086830
:10130000806800F00100A0B90868806840F0010022
:101310000B6898603F4800683F4BB0FBF3F000EB70
:101320004000009002E00098401E009000980028C5
:10133000F9D10868806800F00100002860D0086CCE
:1013400040F20163984340F4807008640868406884
:1013500000F4806028B1086C20F4005040F4805004
:101360000864086C00F48050B0F5805F04D1486CCC
:1013700020F00600486401E00020486400BF00201F
:1013800081F83C0000BF254A6FF022000B6818600E
:10139000506800F01F0018BB214B0868984213D01A
:1013A000204B0868984204D1101D006800F01F000F
:1013B00050B11D4B086898422AD11848001D00689A
:1013C00000F01F00102823D20868806800F0405009
:1013D000F0B90868806840F080400B68986017E0BA
:1013E0000F4B0868984213D10868806800F040509D
:1013F00070B90868806840F080400B68986007E02A
:10140000086C40F010000864486C40F0010048642B
:1014100000206FE77800002040420F0000230140C9
:10142000002001400021014000220140F8B504469F
:101430000D4616460020009000BF94F83C0001289D
:1014400001D10220F8BD012084F83C0000BF2068D3
:10145000806800F00100A0B92068806840F00100B9
:1014600021688860554800685549B0FBF1F000EBF1
:101470004000009002E00098401E00900098002874
:10148000F9D12068806800F48070B0F5807F05D1C4
:101490002068806820F480702168886020688068F7
:1014A00000F0010000287ED0206C40F201618843EA
:1014B00040F4807020642068406800F4806028B1A7
:1014C000206C20F4005040F480502064206C00F424
:1014D0008050B0F5805F04D1606C20F0060060643D
:1014E00001E00020606400BF002084F83C0000BFE1
:1014F000344F3548A16BC8633448A16B0864344845
:10150000A16BC8646FF02200216808602068406801
:1015100040F08060216848602068806840F48070F6
:1015200021688860226802F14C0133462A46A06B8C
:1015300000F0ECF9786800F01F0018BB254920681E
:10154000884213D024492068884204D1381D00689D
:1015500000F01F0050B12149206888422BD1194862
:10156000001D006800F01F00102824D22068806849
:1015700000F04050F8B92068806840F08040216851
:10158000886018E013492068884214D12068806878
:1015900000F0405078B92068806840F080402168B1
:1015A000886008E0FFE7206C40F010002064606C69
:1015B00040F001006064002044E700007800002053
:1015C00040420F00002301401F060008B706000834
:1015D0009D0600080020014000210140002201403A
:1015E000F8B50446002000908C4800684FF416516E
:1015F000B0FBF1F7A56D2E6894F85C1008208840C8
:10160000304098B12068006800F0040070B1206894
:10161000006820F004002168086094F85C1008203D
:101620008840A860606D40F00100606594F85C102F
:1016300001208840304068B12068406900F0800097
:1016400040B194F85C1001208840A860606D40F0C3
:101650000200606594F85C1004208840304068B156
:101660002068006800F0020040B194F85C1004208B
:101670008840A860606D40F00400606594F85C10DC
:1016800010208840304078B32068006800F00800DF
:1016900050B394F85C1010208840A860206800685F
:1016A00000F4802080B12068006800F4002028B990
:1016B000206CC8B12046216C884715E0A06C98B119
:1016C0002046A16C88470FE02068006800F4807015
:1016D00028B92068006820F0080021680860206CA4
:1016E00010B12046216C884794F85C102020884077
:1016F0003040002865D02068006800F01000002805
:101700005FD094F85C1020208840A86094F83500E1
:10171000052828D12068006820F01600216808609C
:101720002068406920F0800021684861206C08B979
:10173000A06C28B12068006820F0080021680860CB
:1017400094F85C103F208840A860012084F83500A0
:1017500000BF002084F8340000BF206D10B1204687
:10176000216D8847F8BD2068006800F4802080B1B2
:101770002068006800F4002028B9606C10B1204691
:10178000616C88471DE0E06BD8B12046E16B88476B
:1017900017E02068006800F4807068B9206800686D
:1017A00020F0100021680860012084F8350000BF97
:1017B000002084F8340000BFE06B10B12046E16BDC
:1017C0008847606D38B3606D00F00100F0B105200E
:1017D00084F835002068006820F001002168086066
:1017E00000BF0098401C0090B84200D905E0206876
:1017F000006800F001000028F3D100BF012084F848
:10180000350000BF002084F8340000BFE06C10B148
:101810002046E16C884700BFA4E700007800002064
:101820002DE9F0410446002500F0C2F9074614B93D
:101830000120BDE8F081606A00B100BF022084F899
:10184000350000BF002084F8340000BF2068006825
:1018500020F00100216808600AE000F0A9F9C01B2F
:10186000052805D920206065032084F83500E0E7CD
:101870002068006800F001000028EED120680568AB
:1018800021480540D4E901010843E1680843216982
:10189000084361690843A1690843E1690843216A73
:1018A00008430543606A042803D1D4E90B010843C7
:1018B0000543206805602068456925F00705606AD2
:1018C0000543606A04280DD1A06A0543E06A48B167
:1018D0002046FFF719FA28B140206065012084F8FE
:1018E0003500A6E7206845612046FFF7F3F9064674
:1018F00094F85C103F208840B060002060650120B3
:1019000084F83500002094E73F8010F02DE9F0477F
:1019100004460D4616461F464FF00008D4F858906E
:1019200000BF94F83400012802D10220BDE8F087FE
:10193000012084F8340000BF94F83500012825D137
:10194000022084F83500002060653B463246294677
:101950002046FFF72EFA94F85C103F208840C9F823
:1019600008002068006840F0160021680860206CBC
:1019700028B12068006840F00800216808602068ED
:10198000006840F001002168086006E000BF002008
:1019900084F8340000BF4FF002084046C6E700005C
:1019A000F8B502460B460025002400200021D6E0B1
:1019B000012606FA01F51E6806EA0504AC4274D158
:1019C0001E7906F00306012E04D01E7906F00306E8
:1019D000022E13D190684F000326BE40B0434F0043
:1019E000DE68BE4030439060506801268E40B043B0
:1019F0001E79C6F300168E40304350601E7906F003
:101A00000306032E09D0D0684F000326BE40B04322
:101A10004F009E68BE403043D0601E7906F003063A
:101A2000022E13D1CF0802F1200656F827004E07E8
:101A3000F70E0F26BE40B0434F07FF0E1E69BE4093
:101A40003043CF0802F1200646F8270010684F0007
:101A50000326BE40B0431E7906F003064F00BE4089
:101A6000304310605E6806F44036002E76D000BF2A
:101A7000002600963C4E366846F480463A4F3E605B
:101A80003E46366806F48046009600BF00BF374EDB
:101A90008F0856F827008E07370F0F26BE40B04339
:101AA000334EB24202D1002624E057E0314EB2421A
:101AB00001D101261EE0304EB24201D1022619E0CA
:101AC0002E4EB24201D1032614E02D4EB24201D176
:101AD00004260FE02B4EB24201D105260AE02A4E21
:101AE000B24201D1062605E0284EB24201D10726B6
:101AF00000E008268F073F0FBE4030431B4E8F0883
:101B000046F82700224E3068A0435E6806F480162F
:101B100006B120431E4E3060361D3068A0435E681B
:101B200006F4001606B12043194E361D3060184EDB
:101B3000361F3068A0435E6806F4003606B12043C5
:101B4000134E361F3060361F3068A0435E6806F4BF
:101B5000803606B120430E4E083E3060491C1029E5
:101B6000FFF426AFF8BD00004438024008380140B9
:101B7000000002400004024000080240000C024045
:101B8000001002400014024000180240001C0240F5
:101B9000083C0140024613690B400BB1012000E0F4
:101BA000002070470AB1816101E00B048361704736
:101BB00001480068704700006C000020034800687E
:101BC0000349097808440149086070476C00002007
:101BD0007400002010B50D48006840F400700B49F7
:101BE00008600846006840F48060086008460068A5
:101BF00040F480700860032000F0C8F80F2000F067
:101C000007F800F04BF8002010BD0000003C024037
:101C100070B588B0044600250026002221462C20FD
:101C200000F076F82C2000F063F800BF002001904F
:101C30001648006840F080001449086008460068B3
:101C400000F08000019000BF00BF02A903A800F0CF
:101C500073F900F099F945000D48B5FBF0F0461E08
:101C60000C480D49086040F2E7310B48C1604660FE
:101C700000210161816000F015FD20B9064800F0E7
:101C80005BFE08B070BD0120FBE700004038024059
:101C900040420F00001C0040D803002008B500BFE0
:101CA000002000901148006840F480400F4908600F
:101CB0000846006800F48040009000BF00BF00BFED
:101CC00000200090081F006840F08050091F086045
:101CD0000846006800F08050009000BF00BF00225E
:101CE0000F21901E00F014F808BD00004438024097
:101CF00001460846002809DB00F01F0301229A4034
:101D000043099B0003F1E023C3F8002100BF7047A3
:101D10002DE9F05F80460D461646002703F038F99E
:101D2000074639462A46334601F00700C0F1070A44
:101D3000BAF1040F02D94FF0040A01E0C0F1070A1A
:101D4000D14600F1040ABAF1070F02D24FF0000A9F
:101D500001E0A0F1030AD4464FF0010A0AFA09FA99
:101D6000AAF1010A0AEA020A0AFA0CFA4FF0010B78
:101D70000BFA0CFBABF1010B0BEA030B4AEA0B0469
:101D80002146404603F00CF9BDE8F09F00BF00F08B
:101D90000702064B19684FF6FF031940044B0B432B
:101DA00043EA0221014B196000BF70470CED00E0CF
:101DB0000000FA0570B504460D460CB9012070BD4F
:101DC0005848006800F00700A84209D255490D7034
:101DD0000846006800F00700A84201D00120EEE7A5
:101DE000207800F0020002281DD1207800F00400C5
:101DF000042805D14C48006840F4E0504A49086086
:101E0000207800F00800082805D14748006840F411
:101E10006040454908604448006820F0F000A1682F
:101E2000084341490860207800F00100A8B36068C9
:101E3000012807D13C4808380068C0F34040B8B9D1
:101E40000120BCE76068022802D06068032807D13F
:101E5000354808380068C0F3406048B90120AEE753
:101E6000314808380068C0F3400008B90120A6E7EF
:101E70002D48006820F00300616808432A49086083
:101E8000FFF796FE064609E0FFF792FE801B41F23F
:101E90008831884202D9032091E707E02248006890
:101EA00000F00C006168B0EB810FEDD11D480068B7
:101EB00000F00700A84209D91A490D7008460068C9
:101EC00000F00700A84201D0012078E7207800F058
:101ED0000400042807D11448006820F4E050E168A9
:101EE000084311490860207800F00800082808D14C
:101EF0000D48006820F46040216940EAC1000A49A9
:101F0000086000F061F808490968C1F30311074A45
:101F1000515CC8400649086006480068FFF778FE33
:101F200000204CE7003C0240083802408879000855
:101F300078000020700000200F2202600D4A126815
:101F400002F0030242600B4A126802F0F002826063
:101F5000084A126802F4E052C260064A126802F4AB
:101F60006042D2080261044A126802F007020A6065
:101F70007047000008380240003C024001480068F9
:101F8000704700007800002000B5FFF7F7FF044914
:101F90000968C1F38221034A515CC84000BD0000BA
:101FA000083802409879000800B5FFF7E7FF0449B8
:101FB0000968C1F34231034A515CC84000BD0000CA
:101FC00008380240987900082DE9F04700240025E0
:101FD0000026A1462548006800F00C0020B1042826
:101FE00005D008283AD105E0DFF8849039E0DFF821
:101FF000849036E01D48001F006800F03F041B4835
:10200000001F006800F4800078B11A481749091FC2
:102010000968C1F38811A0FB017001462246002324
:102020003846FEF781F905460EE011480F49091FB1
:102030000968C1F38811A0FB017001462246002304
:102040003846FEF771F905460848001F0068C0F3DE
:102050000140401C4600B5FBF6F902E0DFF81090A5
:1020600000BF00BF4846BDE8F087000008380240C6
:102070000024F40040787D01F8B504460CB9012035
:10208000F8BD207800F00100002874D0F9480068FD
:1020900000F00C0004280DD0F648006800F00C0099
:1020A000082813D1F348001F006800F48000B0F541
:1020B000800F0BD1EF4808380068C0F3404000287B
:1020C00059D06068002856D10120D9E700BF606868
:1020D000B0F5803F08D1E7480838006840F4803008
:1020E000E449083908601EE06068B0F5A02F0DD102
:1020F000E0480838006840F48020DE49083908606C
:102100000846006840F4803008600CE0D948083880
:10211000006820F48030D749083908600846006814
:1021200020F48020086000BF606890B1FFF740FD98
:10213000054606E0FFF73CFD401B642801D903205B
:102140009EE7CC4808380068C0F340400028F1D032
:1021500011E0FFF72DFD054606E0FFF729FD401BC6
:10216000642801D903208BE7C24808380068C0F30F
:1021700040400028F1D1207800F0020002285FD111
:10218000BC48006800F00C0058B1BA48006800F084
:102190000C0008281CD1B748001F006800F480001C
:1021A000B0B9B44808380068C0F3400020B1E06816
:1021B000012801D0012063E7AE480838006820F00C
:1021C000F800216940EAC100AA490839086037E0EF
:1021D000E06800B30120A8490860FFF7E9FC054664
:1021E00006E0FFF7E5FC401B022801D9032047E782
:1021F000A04808380068C0F340000028F1D09D488E
:102200000838006820F0F800216940EAC1009949C7
:102210000839086014E0002097490860FFF7C8FCFF
:10222000054606E0FFF7C4FC401B022801D9032045
:1022300026E7904808380068C0F340000028F1D134
:10224000207800F0080008282CD16069A8B101208E
:102250008A490860FFF7ACFC054606E0FFF7A8FCDA
:10226000401B022801D903200AE782486C3000682D
:10227000C0F340000028F1D014E000207F4908603E
:10228000FFF796FC054606E0FFF792FC401B02288C
:1022900001D90320F4E677486C300068C0F34000B1
:1022A0000028F1D1207800F00400042870D1002724
:1022B00070483830006800F0805090B900BF0020AE
:1022C00000906C483830006840F0805069493831DF
:1022D00008600846006800F08050009000BF00BF12
:1022E00001276748006800F48070B0B9644800684E
:1022F00040F4807062490860FFF75AFC054606E02A
:10230000FFF756FC401B022801D90320B8E65C48C1
:10231000006800F480700028F2D000BFA068012897
:1023200008D154486830006840F0010051496831D4
:1023300008601DE0A06805280DD14E48683000688F
:1023400040F004004B49683108600846006840F0DE
:10235000010008600CE047486830006820F0010088
:102360004449683108600846006820F004000860AD
:1023700000BFA068A8B1FFF71BFC054609E0FFF706
:1023800017FC401B41F28831884202D9032077E6CE
:1023900026E0384868300068C0F340000028EED0DE
:1023A00013E0FFF705FC054608E0FFF701FC401BC2
:1023B00041F28831884201D9032061E62D48683016
:1023C0000068C0F340000028EFD1012F07D1294851
:1023D0003830006820F0805026493831086000BF4E
:1023E000A069002845D02348006800F00C000828A8
:1023F0005DD0A069022845D100201F490866FFF77B
:10240000D7FB054606E0FFF7D3FB401B022801D9A6
:10241000032035E6174808380068C0F340600028FC
:10242000F1D1D4E907010843616A40EA8111012230
:10243000A06AC2EB500041EA00412C20005D41EA55
:1024400000600C49091F086001200B490866FFF76E
:10245000AFFB054606E0FFF7ABFB401B022801D9A6
:1024600003200DE6034808380068C0F340600028E8
:10247000F1D049E00838024000004742800E474250
:1024800000700040002021490866FFF791FB0546D7
:1024900006E0FFF78DFB401B022801D90320EFE582
:1024A0001B480068C0F340600028F2D12CE0A0690E
:1024B000012800D1E4E51648001D0668A06901283E
:1024C00020D006F48001E06981421BD106F03F0173
:1024D000206A814216D147F6C0703040616AB0EB85
:1024E000811F0FD106F440310122A06AC2EB5000D7
:1024F000B1EB004F06D106F070612C20005DB1EB0E
:10250000006F01D00120BBE50020B9E50000474283
:102510000038024010B5044613492068884222D191
:102520000021124800F0CEFE0421104800F0CAFE3F
:1025300008210E4800F0C6FE002280210C48FFF75B
:1025400031FB002201210B48FFF72CFB0022022166
:102550000848FFF727FB05480068C06820F08000A6
:1025600002490968C86010BD000401404C03002006
:102570000000024000040240704710B503460022EC
:1025800000BF93F83C00012801D1022010BD0120BA
:1025900083F83C0000BF22F0FF00CC6840EA040250
:1025A00022F440708C6840EA040222F480604C6897
:1025B00040EA040222F400600C6840EA040222F4BB
:1025C00080500C6940EA040222F400504C6940EA51
:1025D000040222F48040CC6940EA04021868426494
:1025E00000BF002083F83C0000BF00BFCEE7000022
:1025F00030B502460B4600BF92F83C00012801D1DD
:10260000022030BD012082F83C0000BF022082F889
:102610003D00106844681068816824F070041868F0
:10262000044310684460184D1068A8421BD010681D
:10263000B0F1804F17D0154D1068A84213D0144D3B
:102640001068A8420FD0134D1068A8420BD0124D4D
:102650001068A84207D0114D1068A84203D0104D51
:102660001068A84205D121F0800158680143106824
:102670008160012082F83D0000BF002082F83C000C
:1026800000BF00BFBDE700000000014000040040A3
:1026900000080040000C00400004014000400140E0
:1026A0000018004010B504460CB9012010BD94F884
:1026B0003D0028B9002084F83C00204600F026F8B0
:1026C000022084F83D00211D206801F0C1FF012097
:1026D00084F8460000BF84F83E0001213F200155E8
:1026E000402001554120015500BF00BF012084F862
:1026F000420043200155442001554520015500BFAB
:10270000012084F83D000020D0E7000010B586B01D
:102710000446142101A8FDF7FDFE2068B0F1804FAA
:1027200057D100BF002000905748006840F00100DA
:10273000554908600846006800F00100009000BF9D
:1027400000BF00BF002000904F481038006840F0E4
:1027500002004D49103908600846006800F0020088
:10276000009000BF00BF00BF002000900846006836
:1027700040F0010008600846006800F00100009089
:1027800000BF00BF4FF48160019002200290002042
:102790000390022004900120059001A93B48FFF717
:1027A000FFF84FF4004001900220029000200390B7
:1027B000022004900120059001A93548FFF7F0F8A8
:1027C000002205211C20FFF7A3FA1C20FFF790FA36
:1027D00058E03049206888420FD100BF00200090A7
:1027E0002948006840F00200274908600846006850
:1027F00000F00200009000BF44E0274920688842B2
:1028000040D100BF002000901F48001D006840F02C
:1028100002001D49091D08600846006800F002001A
:10282000009000BF00BF00BF002000901648103885
:10283000006840F00100144910390860084600683B
:1028400000F00100009000BF00BF40200190022076
:1028500002900020039004900320059001A90C48E9
:10286000FFF79EF8002205212B20FFF751FA2B20BD
:10287000FFF73EFA00220F212C20FFF749FA2C2007
:10288000FFF736FA06B010BD40380240000402409F
:10289000000002400004004000040140014691F89D
:1028A0003D00012801D001207047022081F83D0041
:1028B0001A4B086898421BD00868B0F1804F17D0B7
:1028C000174B0868984213D0164B086898420FD0EF
:1028D000154B086898420BD0144B0868984207D0F3
:1028E000134B0868984203D0124B086898420CD1E9
:1028F0000868806800F00702062A0CD008680068A3
:1029000040F001000B68186005E00868006840F0BE
:1029100001000B6818600020C6E7000000000140BD
:102920000004004000080040000C0040000401408A
:102930000040014000180040014691F83D00012888
:1029400001D001207047022081F83D000868C0686E
:1029500040F001000B68D8601A4B086898421BD001
:102960000868B0F1804F17D0174B0868984213D011
:10297000164B086898420FD0154B086898420BD048
:10298000144B0868984207D0134B0868984203D04C
:10299000124B086898420CD10868806800F0070262
:1029A000062A0CD00868006840F001000B68186027
:1029B00005E00868006840F001000B68186000201E
:1029C000C0E7000000000140000400400008004093
:1029D000000C00400004014000400140001800408D
:1029E0002DE9F04104460D46002700BF94F83C0055
:1029F000012802D10220BDE8F081012084F83C00CA
:102A000000BF022084F83D002068866826F0770623
:102A100026F47F46206886602868502833D00CDC76
:102A2000202850D004DC00284BD0102851D149E098
:102A3000302849D040284CD139E060282DD070286A
:102A400007D0B0F5805F03D0B0F5005F41D10DE055
:102A500041E0D5E902136A68206801F076FE20683B
:102A6000866846F077062068866034E0D5E9021370
:102A70006A68206801F069FE2068806840F4804040
:102A80002168886027E0EA686968206801F04EFFE5
:102A90005021206801F064FE1DE0EA686968206842
:102AA00001F0A0FF6021206801F05AFE13E0EA68FF
:102AB0006968206801F03AFF4021206801F050FE6B
:102AC00009E000BF00BF00BF2968206801F048FE90
:102AD00001E0012700BF00BF012084F83D0000BFD6
:102AE000002084F83C0000BF384684E702460B46CD
:102AF0001068416821F0800119431068416000208E
:102B00007047000010B594B0044615480068154998
:102B100008600846006814490968401A642801D909
:102B200002F0DEF91148FDF7B7FF4C220F491031D2
:102B30006846FDF7B5FC0D480FC8FDF77FFE0B4852
:102B4000001D01F0D7FB06480068074908600A230A
:102B500001220649891C064800F094FC14B010BDFF
:102B60002404004000010020FC000020100100208F
:102B7000940300202DE9F04104460D461646002737
:102B800000BF94F83C00012802D10220BDE8F0818A
:102B9000012084F83C0000BF96B9EB68D5E900122B
:102BA000206801F0D7FE2068806920F00C002168C1
:102BB000886120688069A96808432168886141E0CC
:102BC000042E13D1EB68D5E90012206801F01EFF36
:102BD0002068806920F440602168886120688069ED
:102BE000A96840EA0120216888612BE0082E12D1F3
:102BF000EB68D5E90012206801F025FF2068C06964
:102C000020F00C002168C8612068C069A9680843E9
:102C10002168C86116E00C2E13D1EB68D5E90012CB
:102C2000206801F02CFF2068C06920F44060216812
:102C3000C8612068C069A96840EA01202168C861AC
:102C400000E0012700BF002084F83C0000BF3846A8
:102C50009CE710B504460CB9012010BD94F83D0066
:102C600028B9002084F83C00204600F025F8022016
:102C700084F83D00211D206801F0EAFC012084F861
:102C8000460000BF84F83E0001213F20015540204E
:102C900001554120015500BF00BF012084F84200CA
:102CA00043200155442001554520015500BF012016
:102CB00084F83D000020D0E7704700002DE9F04384
:102CC00004460D46002615B994F83E000BE0042D8D
:102CD00002D13F20005D06E0082D02D14020005DBA
:102CE00001E04120005D804615B994F842000BE0F8
:102CF000042D02D14320005D06E0082D02D14420BE
:102D0000005D01E04520005D8146B8F1010F02D170
:102D1000B9F1010F02D00120BDE8F0831DB90220F6
:102D200084F83E000EE0042D03D102213F2001551E
:102D300008E0082D03D102214020015502E00221C4
:102D4000412001551DB9022084F842000EE0042DF7
:102D500003D102214320015508E0082D03D10221AF
:102D60004420015502E002214520015535B1042DD2
:102D70000BD0082D10D00C2D1CD114E02068C06899
:102D800040F002002168C86016E02068C06840F08A
:102D900004002168C8600FE02068C06840F00800A7
:102DA0002168C86008E02068C06840F01000216811
:102DB000C86001E0012600BF00BF86BB0122294692
:102DC000206801F0B1FC1A49206888421BD02068B5
:102DD000B0F1804F17D017492068884213D01649A8
:102DE000206888420FD01549206888420BD01449CA
:102DF0002068884207D013492068884203D01249CE
:102E0000206888420CD12068806800F00707062FF0
:102E10000CD02068006840F001002168086005E0DF
:102E20002068006840F0010021680860304673E7C0
:102E3000000001400004004000080040000C004079
:102E400000040140004001400018004010B5044655
:102E500020680069C0F34000D8B12068C068C0F3A2
:102E60004000B0B16FF002002168086101202077B6
:102E70002068806900F0030018B12046FFF742FE89
:102E800005E0204600F0E0F8204600F094F900202C
:102E9000207720680069C0F38000D8B12068C0683E
:102EA000C0F38000B0B16FF0040021680861022017
:102EB00020772068806900F4407018B12046FFF741
:102EC00021FE05E0204600F0BFF8204600F073F92F
:102ED0000020207720680069C0F3C000D8B12068C6
:102EE000C068C0F3C000B0B16FF00800216808618D
:102EF000042020772068C06900F0030018B1204644
:102F0000FFF700FE05E0204600F09EF8204600F0A6
:102F100052F90020207720680069C0F30010D8B172
:102F20002068C068C0F30010B0B16FF010002168D5
:102F30000861082020772068C06900F4407018B14B
:102F40002046FFF7DFFD05E0204600F07DF8204633
:102F500000F031F9002020772068006900F00100BE
:102F600058B12068C06800F0010030B16FF0010076
:102F700021680861204600F0F9F920680069C0F373
:102F8000C01058B12068C068C0F3C01030B16FF0F5
:102F90008000216808612046FFF7BCFA20680069BC
:102FA000C0F3801058B12068C068C0F3801030B101
:102FB0006FF0400021680861204600F0E3F92068C6
:102FC0000069C0F3401058B12068C068C0F34010D9
:102FD00030B16FF02000216808612046FFF7CCFA7D
:102FE00010BD000010B586B00446142101A8FDF7FD
:102FF00091FA1249206888421DD100BF002000903C
:103000000F48006840F004000D4908600846006859
:1030100000F00400009000BF00BF4FF4E07001908A
:10302000022002900020039003200490059001A943
:103030000448FEF7B5FC06B010BD000000040140D6
:10304000303802400008024070472DE9F041044644
:103050000D461646002700BF94F83C00012802D117
:103060000220BDE8F081012084F83C0000BF36B1A9
:10307000042E1BD0082E31D00C2E5ED145E02946FF
:10308000206801F077FB2068806940F00800216823
:1030900088612068806920F00400216888612068C8
:1030A0008069296908432168886148E029462068C9
:1030B00001F098FB2068806940F400602168886115
:1030C0002068806920F480602168886120688069B8
:1030D000296940EA01202168886130E0294620689A
:1030E00001F0BEFB2068C06940F008002168C8619B
:1030F0002068C06920F004002168C8612068C069A8
:10310000296908432168C86119E02946206801F04F
:10311000E3FB2068C06940F400602168C861206852
:10312000C06920F480602168C8612068C06929698D
:1031300040EA01202168C86101E0012700BF00BF0B
:1031400000BF002084F83C0000BF384689E710B576
:1031500004460CB9012010BD94F83D0028B90020A8
:1031600084F83C00204600F025F8022084F83D0059
:10317000211D206801F06CFA012084F8460000BF90
:1031800084F83E0001213F20015540200155412097
:10319000015500BF00BF012084F8420043200155C3
:1031A000442001554520015500BF012084F83D0011
:1031B0000020D0E77047704770B504460D4615B93A
:1031C00094F83E000BE0042D02D13F20005D06E0A4
:1031D000082D02D14020005D01E04120005D012862
:1031E00001D0012070BD1DB9022084F83E000EE020
:1031F000042D03D102213F20015508E0082D03D101
:1032000002214020015502E0022141200155012206
:103210002946206801F088FA23492068884203D0B3
:1032200022492068884201D1012000E0002028B115
:103230002068406C40F40040216848641A492068C6
:1032400088421BD02068B0F1804F17D01849206801
:10325000884213D01749206888420FD01649206849
:1032600088420BD011492068884207D01349206852
:10327000884203D01249206888420CD120688068B7
:1032800000F00706062E0CD02068006840F0010010
:103290002168086005E02068006840F001002168AE
:1032A000086000209EE7000000000140000401408B
:1032B0000004004000080040000C004000400140B5
:1032C0000018004030B504460D460022294620680B
:1032D00001F02AFA23492068884203D02249206855
:1032E000884201D1012000E0002090B100BF206899
:1032F000006A41F21111084050B92068006A891033
:10330000084028B92068406C20F4004021684864D7
:1033100000BF00BF2068006A41F21111084050B997
:103320002068006A8910084028B92068006820F0E9
:1033300001002168086000BF1DB9012084F83E002B
:103340000EE0042D03D101213F20015508E0082D96
:1033500003D101214020015502E001214120015506
:10336000002030BD000001400004014010B50446BB
:1033700003492068884201D1FEF720FC10BD0000FF
:10338000001C00407047704710B504460CB901207E
:1033900010BDA06900B100E000BF94F83D0028B95D
:1033A000002084F83C00204600F028F8242084F80F
:1033B0003D002068C06820F400502168C8602046A5
:1033C00001F02CFC2068006920F49040216808611D
:1033D0002068406920F02A00216848612068C068A0
:1033E00040F400502168C86000202064202084F848
:1033F0003D0084F83E000020CAE7000010B586B00A
:103400000446142101A8FDF785F81B49206888426D
:1034100030D100BF002000901848006840F0100034
:10342000164908600846006800F01000009000BFD0
:1034300000BF00BF0020009010481438006840F022
:1034400001000E49143908600846006800F00100C8
:10345000009000BF00BF4FF4C060019002200290B6
:1034600000200390032004900720059001A9044840
:10347000FEF796FA06B010BD001001404438024035
:10348000000002402DE9F84F04460E4617469946C3
:103490004FF0000A94F83D0020285AD106B117B920
:1034A0000120BDE8F88F00BF94F83C00012801D14D
:1034B0000220F6E7012084F83C0000BF00202064D1
:1034C000212084F83D00FEF773FB8246A784E78441
:1034D000A068B0F5805F04D1206910B90025B0461E
:1034E00002E035464FF0000800BF002084F83C00A1
:1034F00000BF1BE05346002280212046CDF80090FB
:1035000001F0A2FC08B10320CBE745B9B8F80000F0
:10351000C0F308002168486008F1020803E0287839
:10352000216848606D1CE08C401EE084E08C00281F
:10353000E0D15346002240212046CDF8009001F012
:1035400083FC08B10320ACE7202084F83D00002074
:10355000A7E70220A5E70000F7B50446154694F852
:103560003D00202846D1019800B10DB90120FEBDD3
:1035700000BF94F83C00012801D10220F7E70120A8
:1035800084F83C0000BF01982062A584E5840020F7
:103590002064212084F83D001748616BC8631748F8
:1035A000616B08641648616BC8640020616B086534
:1035B00001AE23681A1D31682B46606BFEF7A6F931
:1035C0006FF040002168086000BF002084F83C00D4
:1035D00000BF00BF00BF2168143151E8001F41F057
:1035E00080002168143141E80002002AF3D100BFB5
:1035F0000020BCE70220BAE7234B00087B4B000801
:10360000D34A00087047704700BFFEE770B5044614
:103610000D4629462046FEF7BDFA58B90A2001F0AA
:1036200077FD29462046FEF7B5FA08B9002070BD9F
:103630000120FCE70120FAE770B50546002440F2BE
:103640003F11002000F0BEF900F0F6FA00BF03E0E1
:10365000284600F0C9FA641CB4F5963FF8D301225D
:103660001103024800F04EF870BD0000000802404F
:1036700010B586B000BF002000901F48006840F0E1
:1036800004001D4908600846006800F0040000902E
:1036900000BF00BF00BF002000900846006840F057
:1036A000020008600846006800F00200009000BFB9
:1036B00000BF0120029003900003019001A90F4870
:1036C000FEF76EF92020019001A90D48FEF768F978
:1036D000002220210A48FEF765FA002400E0641C5D
:1036E00041F288308442FAD3012220210448FEF7B7
:1036F00059FA06B010BD0000303802400008024000
:103700000004024070B504460D461646324629466E
:103710002046FEF747FA70BD70B505460E461446C2
:10372000A4F12000C4B204EB4400044901EB0012F0
:103730003146284600F028F870BD0000A079000846
:103740002DE9F04105460C46002600270CE02278C2
:1037500005EB4501C906080E3946FFF7DDFF07F105
:10376000100087B2641C761C207808B1012000E0AC
:103770000020142E01D2012100E000210840002881
:10378000E5D1BDE8F08100002DE9F04707460C4681
:10379000904600250026A946B94640F23F10001B7E
:1037A00081B2484600F00EF900BF26E000F044FA6E
:1037B00000260FE038F815000121B140084020B97B
:1037C0001048008800F010FA03E00F48008800F06D
:1037D0000BFA761C102EEDD3012211030B48FFF7D4
:1037E00091FF09F1010000F0FF0940F23F10001BBA
:1037F00081B2484600F0E6F86D1C182DD6D3BDE81E
:10380000F08700000E0100200C010020000802409B
:103810002DE9F04107460C46154642F21070B5FB03
:10382000F0F0C6B206F13000C2B2C4F5A07081B2A9
:103830003846FFF771FF4FF47A70B5FBF0F00A21BC
:10384000B0FBF1F201FB120606F13000C2B2A4F1A6
:103850001000C0F5A07081B23846FFF75DFF64200C
:10386000B5FBF0F00A21B0FBF1F201FB120606F104
:103870003000C2B2A4F12000C0F5A07081B2384679
:10388000FFF74AFF0A20B5FBF0F00A21B0FBF1F286
:1038900001FB120606F13000C2B2A4F13000C0F5FF
:1038A000A07081B23846FFF737FF0A20B5FBF0F170
:1038B00000FB115606F13000C2B2A4F14000C0F581
:1038C000A07081B23846FFF727FFBDE8F081000005
:1038D00000B587B000BF002001903348006840F079
:1038E0000400314908600846006800F004000190B7
:1038F00000BF00BF00BF002001900846006840F0F4
:10390000020008600846006800F00200019000BF55
:1039100000BF00BF002001900846006840F008008A
:1039200008600846006800F00800019000BF00BF72
:1039300000BF002001900846006840F04000086089
:103940000846006800F04000019000BF00BF012061
:1039500003900490C003029002A91448FEF720F8D7
:103960004FF40070029002A91048FEF719F8802069
:10397000029002A90D48FEF713F8FF20029002A959
:103980000B48FEF70DF8012280210848FEF70AF9DE
:10399000012251020548FEF705F90122D10303482F
:1039A000FEF700F907B000BD30380240000C0240BD
:1039B0000018024001B5BDF800000149088008BDAB
:1039C0000E01002070B504460D462146202000F06F
:1039D00041F92946212000F03DF970BD01B5BDF83F
:1039E00000000149088008BD0C01002010B5FFF758
:1039F0003FFEFFF76DFF0A2001F0EAFA01210020E7
:103A000000F028F94FF48071012000F023F94FF401
:103A1000E061022000F01EF941F23001032000F0C5
:103A200019F90021042000F015F940F202210820C4
:103A300000F010F90021092000F00CF900210A2003
:103A400000F008F900210C2000F004F900210D20FD
:103A500000F000F900210F2000F0FCF800211020F8
:103A600000F0F8F80021112000F0F4F800211220F5
:103A700000F0F0F80021132000F0ECF80A2001F02B
:103A8000A7FA41F2B071102000F0E4F840F23711CB
:103A9000112000F0DFF80A2001F09AFA40F2391103
:103AA000122000F0D7F80A2001F092FA4FF4E85102
:103AB000132000F0CFF81321292000F0CBF80A20C2
:103AC00001F086FA0021202000F0C4F80021212016
:103AD00000F0C0F80621302000F0BCF840F20111DF
:103AE000312000F0B7F80321322000F0B3F84FF492
:103AF0008371352000F0AEF840F60231362000F038
:103B0000A9F840F20231372000F0A4F840F2077122
:103B1000382000F09FF80721392000F09BF84FF47F
:103B2000C0613C2000F096F840F20B213D2000F0EF
:103B300091F80021502000F08DF8EF21512000F085
:103B400089F80021522000F085F840F23F115320FF
:103B500000F080F84FF42741602000F07BF801214D
:103B6000612000F077F800216A2000F073F800214E
:103B7000802000F06FF80021812000F06BF8002118
:103B8000822000F067F80021832000F063F8002114
:103B9000842000F05FF80021852000F05BF8102100
:103BA000902000F057F80021922000F053F80321F4
:103BB000932000F04FF84FF48871952000F04AF8F8
:103BC0000021972000F046F80021982000F042F8EC
:103BD00041F21801032000F03DF840F27311072074
:103BE00000F038F810BD000010B504460122802115
:103BF0000F48FDF7D7FF20120E49086000224FF44E
:103C000000410B48FDF7CEFF0122D1030848FDF724
:103C1000C9FF0848046000224FF400410448FDF742
:103C2000C1FF0122D1030248FDF7BCFF10BD000017
:103C3000000C02401418024010B5222000F042F897
:103C400000224FF480510248FFF75CFD10BD0000D8
:103C50000008024070B505460C46284600F032F8D0
:103C600000224FF480511448FFF74CFD01228021BF
:103C70001248FDF797FF20121149086000224FF407
:103C800000410E48FDF78EFF0122D1030B48FDF7DE
:103C900089FF0B48046000224FF400410748FDF7FC
:103CA00081FF0122D1030548FDF77CFF01221103AA
:103CB0000148FFF727FD70BD00080240000C0240DC
:103CC0001418024070B50446254600224FF4805176
:103CD0001648FFF717FD002280211548FDF762FF07
:103CE00000201449086000224FF400411048FDF7FD
:103CF00059FF0122D1030E48FDF754FF0D4805601E
:103D000000224FF400410A48FDF74CFF0122D10385
:103D10000748FDF747FF012280210548FDF742FFD4
:103D2000012211030148FFF7EDFC70BD00080240BD
:103D3000000C0240141802401FB5002000900190B2
:103D4000029003901448154908604FF48030486091
:103D50000021124881600161017680F82010C16263
:103D60000F4981620021C1600121C16180F83010DA
:103D70004161FDF7B3F908B1FDF732F80E2000906C
:103D8000012001900020029069460448FDF72CF8BC
:103D900008B1FDF725F81FBD002001406C0100208F
:103DA0000100000F1FB500200090019002900390C9
:103DB0001448154908604FF48030486000211248CB
:103DC00081600161017680F82010C1620F49816233
:103DD0000021C1600121C16180F830104161FDF70F
:103DE0007DF908B1FCF7FCFF07200090012001904D
:103DF0000020029069460448FCF7F6FF08B1FCF782
:103E0000EFFF1FBD00220140B40100200100000FA0
:103E100008B500BF002000900E48006840F4800004
:103E20000C4908600846006800F48000009000BF5C
:103E300000BF002205213820FDF76AFF3820FDF77A
:103E400057FF002205213920FDF762FF3920FDF7D9
:103E50004FFF08BD3038024010B5184B0022012139
:103E6000174801F007FA1749086001211548006852
:103E700001F05EFA144A0021144801F09FF9144938
:103E80000860144A0021144801F098F913490860A9
:103E9000134A0021134801F091F913490860134AAD
:103EA0000021134801F08AF912490860124A0021E2
:103EB000124801F083F91249086010BD70790008BA
:103EC000D14A000868000020BC7800081D450008A1
:103ED00054000020E07800084D43000858000020FE
:103EE00004790008914300085C000020287900084C
:103EF00021440008600000204C790008B544000807
:103F00006400002000B587B0142102A8FCF702FB72
:103F100000BF002001904248006840F02000404966
:103F200008600846006800F02000019000BF00BF54
:103F300000BF002001900846006840F08000086043
:103F40000846006800F08000019000BF00BF00BF7D
:103F5000002001900846006840F001000860084613
:103F6000006800F00100019000BF00BF00BF00200A
:103F700001900846006840F00400086008460068A8
:103F800000F00400019000BF00BF00BF00200190BE
:103F90000846006840F0020008600846006800F02B
:103FA0000200019000BF00BF00BF00200190084642
:103FB000006840F0400008600846006800F04000DB
:103FC000019000BF00BF002280211648FDF7EAFDE6
:103FD000002203211448FDF7E5FD80200290012016
:103FE000039004900320059002A90E48FDF7D8FC29
:103FF000032002900120039004900320059002A961
:104000000948FDF7CDFC4FF480600290002003903A
:104010000120049002A90548FDF7C2FC07B000BDCD
:104020003038024000000240000402400018024004
:1040300000B58BB000200790089009900A90059079
:10404000069001900290039004904FF080402B491D
:104050000860532048600021284881604FF6FF71B6
:10406000C1600021016180218161FEF71BFB08B165
:10407000FCF7B6FE4FF48050079007A91F48FEF7E3
:10408000AFFC08B1FCF7ACFE1C48FEF7E2FD08B13E
:10409000FCF7A6FE00200590069005A91748FEF73C
:1040A000A7FA08B1FCF79CFE0A20019001200290BB
:1040B0000020039008200490002201A90F48FEF779
:1040C00059FD08B1FCF78CFE042201A90B48FEF74C
:1040D00051FD08B1FCF784FE082201A90748FEF74C
:1040E00049FD08B1FCF77CFE80210448FEF7FEFC88
:1040F00008B1FCF775FE0BB000BD0000BC0200204B
:1041000000B587B0002003900490059006900190C0
:104110000290144814490860532048600021124856
:1041200081604EF66021C160002101618161FEF76E
:10413000B9FA08B1FCF754FE4FF48050039003A97C
:104140000948FEF74DFC08B1FCF74AFE002001903B
:10415000029001A90448FEF74BFA08B1FCF740FEB3
:1041600007B000BD000400400403002000B595B076
:10417000002011901290139014900F9010901C2119
:1041800008A8FCF7C7F920216846FCF7C3F93648B0
:10419000364908600020486000213448816042F2BE
:1041A0001071C16000210161416180218161FEF7D0
:1041B00079FA08B1FCF714FE4FF48050119011A960
:1041C0002A48FEF70DFC08B1FCF70AFE2748FEF767
:1041D000BEFF08B1FCF704FE00200F9010900FA95D
:1041E0002248FEF705FA08B1FCF7FAFD60200890B6
:1041F000002009900A900B900C900D900E900022D8
:1042000008A91A48FEF721FF08B1FCF7E9FD0422CE
:1042100008A91648FEF719FF08B1FCF7E1FD0822CE
:1042200008A91248FEF711FF08B1FCF7D9FD4FF4B9
:1042300000600090401001904FF440700290002008
:1042400003904FF480500490002005900790694639
:104250000648FEF792F908B1FCF7C2FD0348FEF7E5
:10426000C1FE15B000BD0000000401404C03002059
:1042700010B50B480B4908604FF4E130486000214D
:1042800008488160C16001610C21416100218161A8
:10429000C161FFF779F808B1FCF7A2FD10BD00007D
:1042A000001001409403002000BFFEE700BFFEE7BE
:1042B00000210160B1EE040A80ED000A9FED0B0AB7
:1042C00080ED010A9FED090A80ED020A90ED010AD6
:1042D000DFED070A20EE200A80ED070A80F8301093
:1042E0009FED030A80ED0B0A7047000000000000FC
:1042F0000000C84210B504464FF400410F48FDF7D6
:1043000049FC012801D1207001E000202070082123
:104310000B48FDF73FFC012801D1607001E000204F
:1043200060704FF480610648FDF734FC012801D12C
:10433000A07001E00020A07010BD0000000002404D
:104340000004024010B5FFF751FB10BD94B000BF50
:104350000D48007898B90D48007801280FD10B4816
:10436000FCF79AFB4C22094910316846FCF798F893
:1043700006480FC8FCF762FA0120034908700420C0
:1043800000F0C6FEE4E7000052000020100100200B
:1043900000BF1D490020FFF7D3F91C4842894FF4A4
:1043A00096711920FFF734FA19490220FFF7C8F96E
:1043B0001648C2894FF496714B20FFF729FA154928
:1043C0000420FFF7BDF91148028A4FF496717D2051
:1043D000FFF71EFA10490620FFF7B2F90B480289D1
:1043E0004FF49671AF20FFF713FA0C490820FFF73E
:1043F000A7F9064882894FF49671E120FFF708FA81
:10440000012000F085FEC4E7140000201001002008
:104410001E00002023000020300000203D0000206E
:1044200000BF1F48FCF75CFF04221E491C48FCF734
:10443000FDFF1D48FCF754FF04221C491A48FCF7F5
:10444000F5FF1A4800881A4948811648008880B24A
:10445000072190FBF1F016498881084640896421C4
:10446000484340F6FF7190FBF1F01149C8810846BE
:10447000C08900EB400101EB8010642190FBF1F05A
:104480000B4908820846008A00EE100AB8EE400A7E
:10449000084680ED0E0A012000F03AFEC1E7000058
:1044A0006C0100200C000020B4010020040000205A
:1044B0001001002000BF4FF480611448FFF7A6F8F8
:1044C00010B90120124908704FF480610F48FFF7BE
:1044D0009DF801280CD10E480078012808D10D481C
:1044E0000078C0F101000B490870002008490870ED
:1044F0000848007830B908480078012802D1002027
:10450000054908700A2000F003FED4E700180240B5
:1045100001000020100100205200002000BF0922ED
:1045200003490448FFF718F8642000F0F1FDF6E7AE
:10453000490000209403002010B54FF0E0200069EE
:1045400002F03CFC012801D002F086F810BD00000A
:1045500000B593B0302107A8FBF7DCFF142102A8B7
:10456000FBF7D8FF00BF002001902448006840F00E
:104570008050224908600846006800F08050019091
:1045800000BF00BF00BF002001901D48006840F43C
:1045900080401B4908600846006800F48040019094
:1045A00000BF00BF012007900004089002200D907A
:1045B00041050E9119210F914FF4A871109102211C
:1045C00011910421129107A8FDF756FD08B1FCF7DF
:1045D00007FC0F20029002200390002004904FF46B
:1045E000A05005904FF480500690052102A8FDF7D9
:1045F000E1FB08B1FCF7F4FB13B000BD403802400A
:10460000007000400348006840F4700001490860F1
:104610007047000088ED00E010B50248FEF716FC78
:1046200010BD0000BC02002010B50248FEF70EFCD1
:1046300010BD00004C03002010B50348FEF706FC37
:104640000248FEF703FC10BD4C030020D8030020F5
:1046500010B50268294B98420ED0B0F1804F0BD0B4
:10466000274B984208D0274B984205D0264B9842BA
:1046700002D0264B984203D122F070024B681A43B5
:104680001E4B984220D0B0F1804F1DD01C4B984259
:104690001AD01C4B984217D01B4B984214D01B4B7E
:1046A000984211D01A4B98420ED01A4B98420BD018
:1046B000194B984208D0194B984205D0184B984294
:1046C00002D0184B984203D122F44072CB681A43AF
:1046D00022F080034C6943EA040202608B68C362E3
:1046E0000B688362054B984202D0084B984201D177
:1046F0000B6903630123436110BD0000000001400A
:104700000004004000080040000C0040000401408C
:1047100000400140004401400048014000180040B2
:10472000001C00400020004030B501F01F050124AE
:1047300004FA05F3046A9C430462046A01F01F054D
:1047400002FA05F52C43046230BD30B50C46816891
:1047500021F47F4142EA032525432943816030BD8E
:104760000A46816821F0700142F007031943816015
:104770007047000030B5056A25F001050562026A40
:104780004368846924F0700424F003040D682C430A
:1047900022F002028D682A43104DA84200D103E0A6
:1047A0000F4DA84206D100BF22F00802CD682A436F
:1047B00022F00402094DA84202D0094DA84207D1B7
:1047C00023F4807323F400734D692B438D692B43CD
:1047D000436084614D684563026230BD0000014062
:1047E0000004014030B5056A25F010050562026A33
:1047F0004368846924F4E04424F440740D6844EA76
:10480000052422F020028D6842EA0512124DA842CA
:1048100000D103E0114DA84207D100BF22F0800271
:10482000CD6842EA051222F040020B4DA84202D0A8
:104830000A4DA84209D123F4806323F400634D6933
:1048400043EA85038D6943EA8503436084614D68CB
:104850008563026230BD0000000001400004014099
:1048600030B5056A25F480750562026A4368C4693B
:1048700024F0700424F003040D682C4322F4007229
:104880008D6842EA0522124DA84200D103E0114D85
:10489000A84207D100BF22F40062CD6842EA052297
:1048A00022F480620A4DA84202D00A4DA84209D1E2
:1048B00023F4805323F400534D6943EA05138D69B3
:1048C00043EA05134360C4614D68C563026230BDAD
:1048D000000001400004014030B5056A25F4805510
:1048E0000562036A4468C26922F4E04222F440721D
:1048F0000D6842EA052223F400538D6843EA05332C
:10490000084DA84202D0084DA84204D124F48044A6
:104910004D6944EA85144460C2614D6805640362D0
:1049200030BD0000000001400004014030B50B46DE
:104930001446026A056A25F001050562816921F0C5
:10494000F00141EA041122F00A021A438161026275
:1049500030BD000070B50C461546066A26F001060B
:1049600006628169026A184EB04214D0B0F1804FDD
:1049700011D0164EB0420ED0154EB0420BD0154E8F
:10498000B04208D0144EB04205D0144EB04202D00E
:10499000134EB04201D1012600E000261EB121F0E5
:1049A0000301294301E041F0010121F0F001F0266B
:1049B00006EA0316314322F00A0204F00A063243E3
:1049C0008161026270BD00000000014000040040EF
:1049D00000080040000C004000040140004001407D
:1049E0000018004030B50B461446056A25F0100546
:1049F00005628169026A21F4704141EA043122F0C2
:104A0000A00242EA03128161026230BD70B50C4619
:104A10001546066A26F0100606628169026A21F4CC
:104A2000407141EA052121F470414FF4704606EAD5
:104A30000336314322F0A002A02606EA04163243D0
:104A40008161026270BD70B50C461546066A26F497
:104A500080760662C169026A21F00301294321F0D0
:104A6000F001F02606EA0316314322F420624FF4E7
:104A7000206606EA04263243C161026270BD70B549
:104A80000C461546066A26F480560662C169026A1B
:104A900021F4407141EA052121F470414FF4704640
:104AA00006EA0336314322F420424FF4204606EA58
:104AB00004363243C161026270BD70B505462846B6
:104AC00001F03AFA044614B1D4E90010884770BDE9
:104AD000704770B506460025B46B20684069C0F386
:104AE000C01594F83D00212805D125B10020E084AF
:104AF000204600F07FF820684069C0F3801594F8E4
:104B00003E00222805D125B10020E085204600F096
:104B10003BF8206C40F0100020642046FEF733FC88
:104B200070BD70B50546AC6B2868006800F48070F5
:104B3000F8B90020E08400BF00BF2168143151E8BB
:104B4000001F21F080002168143141E80002002A92
:104B5000F3D100BF00BF00BF21680C3151E8001F36
:104B600041F0400021680C3141E80002002AF3D1F5
:104B700002E02046FEF746FD70BD70B50446A56B09
:104B80002846FEF740FD70BD00BF00BF02680C3232
:104B900052E8002F22F4907102680C3242E80013B0
:104BA000002BF3D100BF00BF00BF0268143252E8EF
:104BB000002F22F001010268143242E80013002B9A
:104BC000F3D100BF016B01290ED100BF00BF026805
:104BD0000C3252E8002F22F0100102680C3242E839
:104BE0000013002BF3D100BF202180F83E100021DC
:104BF0000163704700BF00BF02680C3252E8002F0B
:104C000022F0C00102680C3242E80013002BF3D1FD
:104C100000BF202180F83D10704700002DE9F84FBB
:104C200004462068006920F44050E1680843216888
:104C300008612169A068084361690843E169084384
:104C400000902068C06849F20C61884300990843CD
:104C50002168C8602068406920F44070A169084359
:104C60002168486176492068884203D075492068E8
:104C7000884203D1FDF798F9814602E0FDF784F9F7
:104C80008146E069B0F5004F6CD102206168A0FB5D
:104C9000015003461920A9FB007001462A463846F8
:104CA000FBF742FB6421B0FBF1F04FEA001A02204F
:104CB0006168A0FB01510B461920A9FB00712A462F
:104CC0003846FBF731FB834602206168A0FB0150A8
:104CD00003461920A9FB00712A463846FBF724FB3E
:104CE0006421B0FBF1F000EBC00101EB0010ABEB75
:104CF0008000322101EBC0006421B0FBF1F000F034
:104D0000F8000AEB400A02206168A0FB015003464C
:104D10001920A9FB007001462A463846FBF704FB20
:104D2000834602206168A0FB015003461920A9FBBD
:104D300000712A463846FBF7F7FA6421B0FBF1F020
:104D400000EBC00101EB0010ABEB8000322101EB66
:104D5000C0006421B0FBF1F000F00700504421686E
:104D600088606AE004206168A0FB015003461920B6
:104D7000A9FB007001462A463846FBF7D5FA824661
:104D800004206168A0FB015003461920A9FB0070B4
:104D900001462A463846FBF7C7FA6421B0FBF1F01A
:104DA00000EBC00101EB0010AAEB8000322101EB07
:104DB00000106421B0FBF1F000F0F00A04206168FB
:104DC000A0FB017003461920A9FB00513A46284672
:104DD000FBF7AAFA6421B0FBF1F00AEB001A0420F9
:104DE0006168A0FB01510B461920A9FB00712A46FE
:104DF0003846FBF799FA834604206168A0FB01500E
:104E000003461920A9FB007001462A463846FBF7E5
:104E10008BFA6421B0FBF1F000EBC00101EB001054
:104E2000ABEB8000322101EB00106421B0FBF1F00C
:104E300000F00F00504421688860BDE8F88F000042
:104E400000100140001401402DE9F04104460D46D8
:104E500017469846069E34E0701C88B32EB1FCF7C6
:104E6000A7FEA0EB0800B0422BD900BF00BF21680D
:104E70000C3151E8001F21F4D07021680C3141E859
:104E80000002002AF3D100BF00BF00BF2168143127
:104E900051E8001F21F001002168143141E80002AF
:104EA000002AF3D100BF202084F83D0084F83E00A2
:104EB00000BF002084F83C0000BF0320BDE8F08163
:104EC000FFE7206800682840A84201D1012000E0E7
:104ED0000020B842C0D00020F0E700BFFEE700008D
:104EE00010B52DED088B2048006820490968401A4C
:104EF0001F490860084600684AF2C321B1FBF0F080
:104F00001C4908800846008803282ADD08460088D6
:104F100002F0D3FA41EC1B0B9FED170B53EC102B57
:104F200002F0DEFA41EC190B1548008802F0C5FAD0
:104F300041EC1B0B9FED130B53EC102B02F0D0FA3E
:104F400041EC1A0B53EC192B02F0E2F941EC180B6F
:104F500002F086FA81B20D480181064800880849AE
:104F60000880BDEC088B10BD00010020FC00002073
:104F7000040100200A010020666666666666E63F58
:104F800008010020333333333333D33F1001002083
:104F900002480068C0F30220704700000CED00E0FA
:104FA00010B5002804DB0A07130E054A135406E067
:104FB0000A07140E034A00F00F031B1FD45410BD40
:104FC00000E400E018ED00E0EFF30580704700001A
:104FD00001B581B000200090054901984843009038
:104FE00002E00098401E009000980028F9D10CBD06
:104FF000A08601002DED048BFCF7ECFDFFF7A8FA6D
:10500000FEF780FFFEF704FFFEF7CCFEFFF710F877
:10501000FFF7ACF8FEF790FEFFF772F8FFF728F9FC
:1050200034480068C06840F0800032490968C860B0
:1050300000213148FDF742FE04212F48FDF73EFED6
:1050400008212D48FDF73AFE4FF08041C86A02F072
:1050500034FA41EC190B9FED290B53EC102B02F0A5
:105060003FFA41EC180B02F0FBF94FF08041486326
:10507000C86A02F022FA41EC190B9FED200B53ECA9
:10508000102B02F02DFA41EC180B02F0E9F94FF069
:1050900080418863C86A02F010FA41EC190B9FED59
:1050A000170B53EC102B02F01BFA41EC180B02F01B
:1050B000D7F94FF08041C8631248FDF7EFFB00209D
:1050C00011490860FFF73EF94FF47840FEF7B4FA53
:1050D0001F20FEF76FFC4FF6FF70FEF77FFC0B48BA
:1050E000FFF7E6F800F024F8FEF7B6FE00F036F819
:1050F00000BFFEE74C030020BC0200209A9999995A
:105100009999C93F04030020240400402401002091
:1051100070B50546FFF758FF10B16FF0050404E0C5
:10512000002415B1284601F0BBF8204670BD0000F0
:1051300010B5FFF749FF10B16FF0050409E006480C
:10514000006820B9012004490860002401E04FF004
:10515000FF34204610BD0000CC00002070B5FFF7E2
:1051600033FF10B16FF005041FE0114800680128FB
:1051700019D100BF801F0021002804DB0A07130E8D
:105180000C4A135406E00A07150E0B4A00F00F03F1
:105190001B1FD55400BF00BF02200549086001F065
:1051A000FBF8002401E04FF0FF34204670BD000002
:1051B000CC00002000E400E018ED00E02DE9FF47FE
:1051C00080468946144600200390FFF7FDFE002824
:1051D0004ED1B8F1000F4BD0802618258246471ECD
:1051E00044B3206808B1D4F800A0A06900B1A56953
:1051F0002DB1382D03D8207900F0010018B100201E
:1052000004B0BDE8F087606908B160698608A068ED
:1052100040B1E0685C2805D3206918B1606908B125
:10522000012708E0A06830B9E06820B9206910B90A
:10523000002700E00027012F0CD12169A0684B4610
:105240003246CDE9005102905146404601F058FDEA
:1052500003900DE067B903A8B2B24B465146CDE9C1
:105260000050404601F01AFD012801D000200390B3
:105270000398C5E72DE9FE4F0646894692461C462F
:1052800000200290FFF7A0FE00284BD1002E49D04D
:10529000082000F0ABFD0546002D43D02E60C5F878
:1052A00004A0B9F1000F01D1002700E001274FF061
:1052B000FF384FF0000B94B1206808B1D4F800B06B
:1052C000A06828B1E0682C2802D34FF0010808E05C
:1052D000A06830B9E06820B94FF0000801E04FF055
:1052E0000008B8F1010F0BD11049A0682B463A46CF
:1052F000CDE900100121584601F053FF02900BE068
:10530000B8F1000F08D109482B463A460121009018
:10531000584601F02BFF0290029818B915B12846A3
:1053200000F0E0FE0298BDE8FE8F0000BB4A0008D6
:10533000F8B505460E462F46FFF746FE10B16FF052
:10534000050411E017B96FF003040DE000200346D7
:10535000324604210090384601F098FF012801D11F
:10536000002401E06FF002042046F8BD2DE9F04171
:1053700005460E461648076816480068001D00F0EE
:1053800007FE681C38B936B112480168091D124879
:1053900000F054FE1AE07C190E4800684460BC42DC
:1053A00007D20C480168091D0C48006800F02CFE6B
:1053B0000CE008480168091D0948006800F024FE57
:1053C00008480068844201D206480460BDE8F081C4
:1053D000900000207C0000201009002084000020A4
:1053E00080000020AC00002010B5044600F032FE22
:1053F00024480068401C234908602348006840B9DD
:10540000214804600846006801280DD100F02AFAFE
:105410000AE01E48006838B91B480068C06AE16AA3
:10542000884201D81848046019480068401C18498F
:1054300008600846006860641649E06A09688842A6
:1054400002D91449E06A0860E16A01EB8101124A5D
:1054500002EB8100211D00F0F1FD00F025FE0B485C
:10546000006868B108480068C06AE16A884207D2EB
:105470004FF0805009490860BFF34F8FBFF36F8F23
:1054800010BD00008C0000207C000020980000204F
:10549000A8000020940000206004002004ED00E03B
:1054A00008B500F0D7FD12480068E8B9114800F0CF
:1054B0009BFD114800F098FD0E48104908600E4809
:1054C0000F49086000200F4B0F4A102100900A205E
:1054D00001F0DCF8064908600846006820B10BA11D
:1054E0000348006800F0A0FE00F0DEFD08BD0000EB
:1054F000C00000202409002038090020B800002046
:10550000BC0000204C0900209C090020546D725101
:105510000000000010B516E000F09CFD0C48C068CB
:10552000C468201D00F034FD0A480068401E094987
:10553000086009480068401E0749086000F0B4FD93
:10554000204600F05FF8044800680028E4D110BD50
:10555000FC0800208C0000208800002070B5044664
:105560000D46206C70B1216CE0680144E160D4E923
:105570000210884201D32168E1602846226CE1686C
:10558000FAF749FF70BD2DE9F04104460F46154674
:105590004FF00008A66B206C48B9206800282CD179
:1055A000A06801F0C3FC80460020A06025E07DB922
:1055B0003946226C6068FAF72EFF216C6068084457
:1055C0006060D4E90101884217D32068606014E06C
:1055D0003946226CE068FAF71EFF216CE068411A38
:1055E000E1602168E068884203D2216CA068411A1A
:1055F000E160022D01D106B1761E701CA063404609
:10560000BDE8F08110B5044694F8590030B9206B1C
:1056100000F068FD204600F065FD1AE094F859009E
:10562000012803D1204600F05DFD12E094F85900F6
:10563000022801D1012000E0002050B900BF502015
:1056400080F31188BFF34F8FBFF36F8F00BF00BF90
:10565000FEE710BD0146084A126812680AB9012225
:1056600000E000220A600A6822B9034A1268D26880
:10567000106800E000207047B800002030B54FF4FB
:105680007053174800F007042CB1C01D20F007002C
:10569000134C041B1B1B0246124C22600024114DAC
:1056A0006C60D018083820F007000F4C20600024F0
:1056B0000D4D2D686C600C4D2D682C601146441A00
:1056C0004C60094C24680C60084D4C682C60084DF7
:1056D0004C682C604FF00044064D2C6030BD00003B
:1056E000F4100020D0000020D8000020E0000020AE
:1056F000DC000020EC00002000BFFFF70BFF064895
:1057000000680128F9D94FF0805004490860BFF3C0
:105710004F8FBFF36F8FF0E76004002004ED00E0CF
:105720002DE9F04106460D4617469846069C0DB9F0
:10573000246000E02760E66325640121204601F033
:1057400015F884F84C80BDE8F0812DE9F05F8246C1
:105750000E4690469B460A9F0C9C4FEA8801A52264
:10576000206BFAF7CFFEA8F10100216B01EB800955
:1057700029F0070909F0070008B9012000E000201E
:1057800050B900BF502080F31188BFF34F8FBFF393
:105790006F8F00BF00BFFEE786B1002507E0715D97
:1057A00004F134004155705D00B902E06D1C102D0C
:1057B000F5D300BF00214320015502E0002084F80A
:1057C0003400382F00D33727E762E76400202065D4
:1057D000201D00F016FC04F1180000F012FC2461FA
:1057E000C7F13800A06164620020606584F8580049
:1057F0005A465146484600F0B5FB20600B9808B168
:105800000B980460BDE8F09F2DE9F04706460D4671
:1058100017469846DDE908940DB1012000E000200C
:1058200050B900BF502080F31188BFF34F8FBFF3F2
:105830006F8F00BF00BFFEE78CB1FFF731FE26601F
:10584000A561C4F81C80C4F82090201D00F0D9FB8D
:105850002FB194F8280040F0040084F82800BDE837
:10586000F087000010B5002407E004EB84010F4A24
:1058700002EB810000F0B8FB641C382CF5D30C4817
:1058800000F0B2FB0B4800F0AFFB0B4800F0ACFBA4
:105890000A4800F0A9FB0A4800F0A6FB04480949A1
:1058A000086004480849086010BD0000600400203A
:1058B000C0080020D4080020E8080020FC080020D0
:1058C00010090020800000208400002010B501464F
:1058D000164800E0006803688B42FBD30246436829
:1058E00013448B4204D143684C682344436001460F
:1058F0000A464B6813440468A34211D10C4C036858
:105900002468A34208D04B680468646823444B6051
:1059100003681B680B6005E0054B1B680B6001E02A
:1059200003680B60884200D0016010BDD0000020E9
:10593000D80000202DE9F04104460D4616461F46CA
:105940004FF0000865602461B5420CD8F01BA169D6
:10595000884202D34FF0010811E0211D0948006878
:1059600000F052FB0BE0BE4204D2BD4202D34FF026
:10597000010804E0211D0448006800F045FB404692
:10598000BDE8F081BC000020B800002070B50546DD
:1059900000F060FBA86B08B9012400E0002400F0CF
:1059A00083FB204670BD70B5054600F053FBA86B25
:1059B000E96B884201D1012400E0002400F074FB6F
:1059C000204670BDF8B505460F461A480068C06805
:1059D000C468201D00F0DCFA94F8280000F00400F0
:1059E000E8B1A06941192B463A462046FFF7A2FFCD
:1059F000D8B1002003462A4601460090204601F017
:105A000045FC064656B900BF502080F31188BFF30D
:105A10004F8FBFF36F8F00BF00BFFEE705E094F824
:105A2000280020F0010084F828002046216A8847D9
:105A3000F8BD0000B8000020F0B587B0A0E00398E2
:105A4000002811DA04AE56B900BF502080F3118847
:105A5000BFF34F8FBFF36F8F00BF00BFFEE7D6E9E4
:105A60000020B168904700BF03980028E6DB059C42
:105A7000606908B9012000E0002010B9201D00F085
:105A800087FA02A800F0DEF8054603980A2875D2C6
:105A9000DFE800F009050739416306083A4200BF14
:105AA00000BF00BF00BF94F8280040F0010084F858
:105AB00028000498A269811803462A462046FFF769
:105AC00039FFF8B12046216A884794F8280000F091
:105AD0000400B8B1002000900498A1694218002386
