:020000040800F2
:10000000900700203102000883130008191300082C
:1000100081130008730500081D1700080000000088
:10002000000000000000000000000000871300082E
:1000300075050008000000008513000889130008FA
:100040004B0200084B0200084B0200084B0200085C
:100050004B0200084B0200084B0200084B0200084C
:100060004B0200084B0200084B0200084B0200083C
:100070004B0200084B0200084B0200084B0200082C
:100080004B0200084B0200084B0200084B0200081C
:100090004B0200084B0200084B0200084B0200080C
:1000A0004B0200084B0200084B0200084B020008FC
:1000B0004B0200084B0200084B0200084B020008EC
:1000C0004B0200084B0200084B0200084B020008DC
:1000D0004B020008111700084B0200084B020008F1
:1000E0004B0200084B0200084B0200084B020008BC
:1000F0004B0200084B0200084B0200084B020008AC
:100100004B0200084B0200084B0200084B0200089B
:100110004B0200084B0200084B0200084B0200088B
:100120004B0200084B0200084B0200084B0200087B
:100130004B0200084B0200084B0200084B0200086B
:100140004B0200084B0200084B0200084B0200085B
:100150004B0200084B0200084B0200084B0200084B
:100160004B0200084B0200084B0200084B0200083B
:100170004B0200084B0200084B0200080000000080
:100180004B0200084B02000800F002F800F041F8B2
:100190000AA090E8000C82448344AAF10107DA45E2
:1001A00001D100F036F8AFF2090EBAE80F0013F0F3
:1001B000010F18BFFB1A43F001031847EC150000AC
:1001C0000C160000103A24BF78C878C1FAD852073C
:1001D00024BF30C830C144BF04680C6070470000C1
:1001E0000023002400250026103A28BF78C1FBD840
:1001F000520728BF30C148BF0B607047732900F019
:100200007A81002070471FB501F0BCFA1FBD10B500
:1002100010BD00F074F91146FFF7F5FF01F090FAF8
:1002200000F092F903B4FFF7F2FF03BC00F09AF973
:100230000948804709480047FEE7FEE7FEE7FEE77A
:10024000FEE7FEE7FEE7FEE7FEE7FEE704480549B6
:10025000054A064B70470000211400088901000878
:1002600090010020900700209003002090030020C0
:1002700053EA020C00F069802DE9F04B4FF00006C4
:10028000002B1FBFB3FA83F503FA05F424FA05F631
:100290005E4012BF1643B2FA82F502FA05F4C5F1C8
:1002A00020051EBF22FA05FC44EA0C04203556EA5C
:1002B000044C4FEA144418BF641C4FF000084FF080
:1002C0000009904271EB030C39D3002919BFB1FA30
:1002D00081F701FA07F6B0FA80F700FA07F6C7F1DE
:1002E00020071EBF20FA07FC46EA0C062037B6FBA3
:1002F000F4FCA7EB0507103F07F01F0BCBF120061E
:100300000CFA0BFB2CFA06F644BFB3460026202F4E
:10031000A4BF5E464FF0000B5BEA060C08BF4FF02F
:10032000010B19EB0B09ABFB027C48EB0608C01B69
:1003300006FB02CC0BFB03CC71EB0C01C1E70B46B7
:10034000024641464846BDE8F08B13B54FF0000029
:100350004FF00001AFF30080BDE81C407047000083
:100360000FB41CB5074B06AA7B446946009005985C
:1003700000F097F80020694600F0A6F81CBC5DF874
:1003800014FB00005D0100002DE9F0410E4604461B
:10039000002020622046E168884730B3252805D038
:1003A000D4E901219047206A401CF2E7E168204629
:1003B00000278847050018D0A5F14100192802D868
:1003C00020354FF400673246294620462760FFF764
:1003D00015FF40B1012804D0F61D26F007060836A7
:1003E000D8E7361DD6E72846DAE7206ABDE8F0816F
:1003F00070B50C460546012A05D02878800600D540
:10040000EA69002302E0012305E05B1C934202D26B
:10041000E05C0028F9D1A869E618C01AA861286A2A
:10042000184428622846AFF3008004E0D5E9012192
:1004300014F8010B9047B442F8D32846AFF300807C
:1004400070BD4FF0000200B5134694469646203921
:1004500022BFA0E80C50A0E80C50B1F12001BFF47D
:10046000F7AF090728BFA0E80C5048BF0CC05DF8E3
:1004700004EB890028BF40F8042B08BF704748BF31
:1004800020F8022B11F0804F18BF00F8012B7047A5
:10049000704770477047000001694A1C0261087884
:1004A000704700B58FB0CDE90131002105910549B4
:1004B0007944CDE9031011466846FFF765FF0FB098
:1004C00000BD0000E5FFFFFF0A6802F8010B0A60AB
:1004D000704710B5436913B1AFF3008001E0FFF737
:1004E00087FF012010BD127800F124010A7000225C
:1004F0004A700122EDE711684FF0FF32E9E77546D7
:1005000000F02CF8AE4605006946534620F007007F
:10051000854618B020B5FFF799FEBDE820404FF0A2
:1005200000064FF000074FF000084FF0000B21F0DD
:100530000701AC46ACE8C009ACE8C009ACE8C009AA
:10054000ACE8C0098D46704710B50446AFF3008093
:100550002046BDE81040FFF765BE00000048704728
:100560003001002001491820ABBEFEE72600020042
:100570007047FEE7704772B6FEE72DE9F04104468A
:10058000876D00F04DF9064694F8350000250228E5
:1005900006D08020606584F834500120BDE8F081E9
:1005A0002068016821F0160101602068416921F08E
:1005B00080014161206C08B9A06C20B120680168FD
:1005C00021F0080101602068016821F0010101604B
:1005D0000CE000F025F9801B052807D92020606574
:1005E000032084F8350084F83450D7E72068006889
:1005F000C007EED194F85C103F208840B86001201D
:1006000084F8350084F834500020C7E790F835109E
:10061000022903D08021416501207047052180F81F
:1006200035100068016821F0010101600020704769
:100630002DE9F84FDFF8BCA10022012503264FF079
:100640000F090AF1040BAAF1040E00BF0B6805FAAA
:1006500002F42340A34270D10F7907F00307012F62
:1006600001D0022F16D187684FEA420806FA08FC2B
:1006700027EA0C07D1F80CC00CFA08FC4CEA070C6E
:10068000C0F808C04768A7430C79C4F3001494402D
:100690003C4344600C79E443A4070AD0C4684FEAA1
:1006A000420C06FA0CF7BC438F6807FA0CF7274395
:1006B000C7600C7904F00304022C12D1D40800EBBB
:1006C000840CDCF820405707FF0E09FA07F824EAEB
:1006D0000804D1F8108008FA07F848EA0408CCF8B2
:1006E000208004684FEA420C06FA0CF7BC430F79ED
:1006F00007F0030707FA0CF7274307604C6814F468
:10070000403F70D03C4C276847F4804727602468FE
:1007100022F0030704F480440094384C07EB040CE7
:10072000DCF8084897074FEA177809FA08F7BC433E
:10073000334FB84202D1002724E054E0314FB84291
:1007400001D101271EE0304FB84201D1022719E044
:100750002E4FB84201D1032714E02D4FB84201D1EA
:1007600004270FE02B4FB84201D105270AE02A4F9A
:10077000B84201D1062705E0284FB84201D107272A
:1007800000E0082707FA08F72743CCF80878DAF8DA
:1007900000405746D1F804C09C435FEACC2C00D5FA
:1007A0001C433C60DBF800405F46D1F804C09C432A
:1007B0005FEA8C2C00D51C433C60DEF80040774695
:1007C000D1F804C09C435FEA8C3C00D51C433C60DC
:1007D000084F083F3C68D1F804C09C435FEACC3C1A
:1007E00000D51C433C60521C102AFFF42FAFBDE81B
:1007F000F88F0000083C01404438024000300140BE
:10080000000002400004024000080240000C0240C8
:10081000001002400014024000180240001C024078
:100820000148806870470000140000200248816879
:100830000278114481607047140000200B4810B505
:10084000016841F400710160016841F48061016058
:10085000016841F480710160032000F06FF80F20FF
:1008600000F006F800F024F8002010BD003C024023
:1008700070B50D4D04464FF47A712878B1FBF0F055
:100880000A490968B1FBF0F000F00CFB48B9102CE4
:1008900007D200222146501E00F030F800206C6084
:1008A00070BD012070BD0000140000202000002059
:1008B0000A4808B5016841F480410160006800F40D
:1008C000804000900548001F016841F080510160A0
:1008D000006800F08050009008BD000044380240DD
:1008E000002809DB00F01F0201219140400980002F
:1008F00000F1E020C0F8001170470000F0B40E4B8A
:100900001B680C46C3F30223C3F10705042D00D96D
:100910000425191D072901D2002300E0DB1E012652
:1009200006FA05F1491E214099409E40761E164068
:100930003143F0BC00F0F3BE0CED00E0064900F0DE
:10094000070208684FF6FF03184040EA0220034AF6
:1009500010430860704700000CED00E00000FA054D
:100960002DE9F0470E46050065D0DFF81481D8F870
:100970000000F7B200F00700B04207D288F800701C
:10098000D8F8000000F00700B04254D128683D4C70
:10099000810712D5400703D5206840F4E05020605D
:1009A0002878000703D5206840F460402060206864
:1009B000A96820F0F000084320602878C0072DD0F7
:1009C000304968680839012812D0022813D003285A
:1009D00011D00968890700292DDA216821F0030167
:1009E00001432160FFF71CFF814641F2883A0EE087
:1009F00009688903EFE709688901ECE7FFF710FF51
:100A0000A0EB0901514502D90320BDE8F087206819
:100A1000696800F00C00B0EB810FEFD1D8F800103E
:100A2000404601F00701B14207D90770006800F0A5
:100A30000700B04201D00120E7E72878400705D53C
:100A40002068E96820F4E050084320602878000717
:100A500006D52068296920F4604040EAC100206082
:100A600000F038F82168084AC1F30311515CC8400E
:100A70000649086006480068FFF7FAFE0020C4E750
:100A8000003C0240083802408E1700082000002079
:100A9000180000200448054900680968044AC1F3A9
:100AA0008221515CC8407047200000200838024075
:100AB0009E1700080448054900680968044AC1F304
:100AC0004231515CC8407047200000200838024085
:100AD0009E170008154810B5006810F00C02144865
:100AE00013D01449042A0FD0082A0ED10F4C241F0A
:100AF0002268236802F03F025B0207D52068C0F33A
:100B00008810A0FB010106E0084610BD2168C1F372
:100B10008811A1FB00010023FFF7AAFB2168C1F3A4
:100B20000141491C4900B0FBF1F010BD08380240FA
:100B30000024F40040787D012DE9F84F04006ED0C8
:100B40002078DFF84C93C007A9F104054AD009F1D9
:100B500004000168C1F38101012908D00068C0F3D5
:100B6000810002280AD1D9F80000400206D5286881
:100B7000800337D560680028E1D033E06068B0F5C5
:100B8000803F10D0B0F5A02F286810D020F480301E
:100B90002860286820F4802028606068A8B1FFF7EA
:100BA0003FFE06460DE0286840F48030F4E740F44C
:100BB00080202860F7E700BFFFF732FE801B642823
:100BC00073D828688003F7D50CE0FFF729FE0646A6
:100BD00005E000BFFFF724FE801B6428F0D82868DA
:100BE0008003F7D42078DFF8AC8280074FF0000A4A
:100BF0003ED5A748001D016811F00C0F08D0006811
:100C0000C0F3810002280BD1D9F80000400207D4BC
:100C10002868800716D5E068012800D112E033E18A
:100C2000E068B8B10120C8F80000FFF7F9FD0646FA
:100C300005E000BFFFF7F4FD801B0228C0D828683C
:100C40008007F7D52868216920F0F80040EAC10044
:100C500028600DE0C8F800A0FFF7E2FD064604E0BA
:100C6000FFF7DEFD801B02281FD828688007F7D415
:100C70002078000722D5864F87486169703771B1A7
:100C800001210160FFF7CCFD064604E0FFF7C8FD37
:100C9000801B022809D838688007F7D50EE0C0F815
:100CA00000A0FFF7BDFD064605E082E0FFF7B8FDB6
:100CB000801B02287DD838688007F7D42078400749
:100CC00068D5DFF8CCB100270BF13C0BDBF8000056
:100CD000C0000BD4DBF8001041F08051CBF80010BD
:100CE000DBF80000012700F0805000906B4E306868
:100CF000C00510D4306840F480703060FFF790FD7C
:100D0000009005E0FFF78CFD0099401A022850D8AA
:100D10003068C005F6D55E4EA0686C3601280FD04D
:100D20000528306810D020F001003060306820F0D5
:100D300004003060A068B8B1FFF772FD00900FE0CA
:100D4000306840F00100F4E740F004003060F7E75D
:100D5000FFF766FD0099411A41F28830814266D85A
:100D600030688007F4D50EE0FFF75AFD009007E0E9
:100D7000FFF756FD0099411A41F28830814256D85A
:100D800030688007F4D42FB1DBF8001021F08051D7
:100D9000CBF80010A069C8B33D49091D0968C1F32B
:100DA000810102294AD00228504607D0C8F86000C5
:100DB00000E03CE0FFF734FD04463BE04746C8F85E
:100DC0006000FFF72DFD064605E000BFFFF728FD98
:100DD000801B02282BD828688001F7D4D4E90701AA
:100DE0000843A16A2E4A490802EB0141626A41EABE
:100DF0008211084394F82C1040EA0161C9F80010F0
:100E000001203866FFF70CFD044606E03EE000BF17
:100E1000FFF706FD001B022809D828688001F7D5D6
:100E200034E000BFFFF7FCFC001B022802D90320BE
:100E3000BDE8F88F28688001F4D427E00128F7D0B6
:100E4000D9F80000E26900F4800191421CD1226AC5
:100E500000F03F01914217D147F6C071626A01402C
:100E6000B1EB821F10D1A26A4FF0FF3300F4403182
:100E700003EB5202B1EB024F06D194F82C1000F0B4
:100E80007060B0EB016F01D00120D1E70020CFE707
:100E90000438024000004742800E47420070004084
:100EA0000000FFFF10B5401EB0F1807F01D301208C
:100EB00010BD4FF0E02460610F21601700F02FFC9F
:100EC0000020A06107202061002010BD70477047FE
:100ED000F8B5016804460868CA684B6910F00F0F3E
:100EE0004FF0000559D003F0010602F49077374324
:100EF00065D0C10705D0D10503D5216C41F00101B2
:100F00002164410705D5D90703D0216C41F00201C6
:100F10002164810705D5D90703D0216C41F0040174
:100F20002164010707D502F02001314303D0216C71
:100F300041F008012164216C00293AD0800604D5D3
:100F4000900602D5204600F0A2FA20684069216C84
:100F5000C0F38010090700D460B3204600F070FA97
:100F600020684069400621D52068143050E8001FF1
:100F700021F0400140E80012002AF5D1A06BA8B191
:100F80006C490165A06BFFF741FB002811D0A06BF5
:100F9000016D01B0BDE8F040084783060FD5930608
:100FA0000DD52046BDE8F84000F071BA2046FFF7A5
:100FB0008EFFF8BD2046FFF78AFF2564F8BD266B3B
:100FC0002023012E79D1C60677D5D60675D50868B7
:100FD000486800904869400640D5A16B08684068A1
:100FE0000004000CEAD0A28D8242E7D9E085C869EE
:100FF000B0F5807F2DD020680C3050E8001F21F420
:10100000807140E80012002AF5D12068143050E8C1
:10101000001F21F0010140E80012002AF5D12068EC
:10102000143050E8001F21F0400140E80012002A6F
:10103000F5D184F83E30256320680C3050E8001F5D
:1010400021F0100140E80012002AF5D1A06BFFF753
:1010500094FAA08DE18D401A81B229E0A08DE18D36
:10106000401A81B2E08D0028A8D00029A6D02068BF
:101070000C3050E8002F22F4907240E80026002E39
:10108000F5D12068143050E8002F22F0010240E82A
:101090000026002EF5D184F83E30256320680C3000
:1010A00050E8002F22F0100240E80023002BF5D179
:1010B0002046FFF70BFFF8BDFFE705062BD5150609
:1010C00029D594F83D002128F5D1A068B0F5805FBE
:1010D00001D12069B0B1206A411C216221680078E9
:1010E0004860E08C401E0004000CE084E3D12068DE
:1010F000C16821F08001C1602068C16841F04001F1
:10110000C160D8E7206A0088C0F308004860206A00
:10111000801C2062E5E74006CDD55006CBD5CA68D5
:10112000204622F04002CA6084F83D3000F0F3F817
:10113000C1E700003114000870B5040004D094F831
:101140003D00002510B106E0012070BD84F83C5040
:10115000204600F023F8242084F83D002068C16870
:1011600021F40051C160204600F0F2F920680169C5
:1011700021F4904101612068416921F02A01416117
:101180002068C16841F40051C1602564202084F8C2
:101190003D0084F83E00002070BD000010B586B010
:1011A000044614216846FFF74CF918492068884224
:1011B00029D117480021026842F01002026000683D
:1011C00000F01000059012481438026842F0010245
:1011D0000260006800F0010005904FF4C0600090CC
:1011E0000220CDE901010320039007200490694605
:1011F0000848FFF71DFA002211462520FFF77EFB65
:101200002520FFF76DFB06B010BD00000010014067
:10121000443802400000024090F83E30202B0ED1AE
:1012200059B152B190F83C30012B08D0012380F81D
:101230003C300023036300F011BA01207047022004
:101240007047000010B504460A236422044900F0E8
:1012500009F82046BDE8104064220149FFF7DCBFD1
:10126000880000202DE9F843044690F83D001F4611
:1012700016460D4620284CD1C5B1BEB194F83C00AD
:10128000012846D0012084F83C004FF00008C4F843
:101290004080212084F83D00FFF7C2FAA6848146F1
:1012A000E684A068B0F5805F03D004E00120BDE8CB
:1012B000F883206928B12E465FF0000584F83C8051
:1012C0000EE00026FAE78021204600F0E4F9A0B9FC
:1012D000AEB116F8010B21684860E08C401EE08436
:1012E000E08C4B464FF0000200970028EBD14FF006
:1012F0004001204600F0CFF930B10320D7E735F8A0
:10130000020BC0F30800E6E7202084F83D0000202F
:10131000CDE70220CBE77047FEE70000094808B59B
:10132000016841F080010160016801F080010091D5
:10133000016841F001010160006800F001000090C7
:1013400008BD0000303802400C4810B50A49016061
:101350004FF496414160002181600C22C160C0E9D8
:1013600004128161C161FFF7E7FE002803D0BDE8E8
:101370001040FFF700B910BD00100140EC00002044
:10138000FEE7FEE770477047FFF750BA30B593B0FD
:1013900030216846FFF755F814210CA8FFF751F8E3
:1013A0001D480025016841F080510160006800F08F
:1013B000805011901948016841F480410160006833
:1013C000022400F48040119001200090000401905C
:1013D0008001CDE90640192008904FF4A870CDE9AE
:1013E000090404200B906846FFF7A6FB08B172B60B
:1013F000FEE70CA90F2081E831004FF4A0500F90B8
:10140000109005210CA8FFF7ABFA002801D072B6A6
:10141000FEE713B030BD00004038024000700040CD
:101420000248016841F470010160704788ED00E0F6
:1014300010B5806B0021C185C184FFF748FD10BD48
:1014400001680C3151E8002F22F4907241E800232A
:10145000002BF5D10168143151E8002F22F0010270
:1014600041E80023002BF5D1016B012909D1016866
:101470000C3151E8002F22F0100241E80023002B2C
:10148000F5D1202180F83E1000210163704708B596
:1014900090F83E10222901D0022008BD82684FF446
:1014A00080539A4201D1016921B1816A9A421BD0CD
:1014B0004AB10AE00268816A5268C2F308020A80EF
:1014C000816A891C08E0026972B10268526802F000
:1014D0007F020A70816A491C8162C18D491E09041C
:1014E000090CC18503D019E002685268F1E7016870
:1014F000CA6822F02002CA600168CA6822F48072B9
:10150000CA6001684A6922F001024A61202180F81C
:101510003E10016B012903D0FFF794FE002008BDA7
:101520000021016301680C3151E8002F22F0100204
:1015300041E80023002BF5D101680A68D20602D5E4
:101540000A6849680091818DFFF7C0FCE6E700005A
:1015500070B5044600680169E26821F44051114306
:1015600001612169A068E269084361691143084388
:101570002168CA6849F20C639A430243CA60206832
:101580004169A26921F440711143416131492068E8
:10159000884202D03049884202D1FFF78BFA01E03D
:1015A000FFF778FAE2690023192164253226B2F5A3
:1015B000004F626828D0A0FB0101930F9200FEF754
:1015C00057FE0146B0FBF5F06FF01802504301EBF7
:1015D000800006EB0010B0FBF5F000F0F002B1FB6C
:1015E000F5F002EB0012B1FBF5F06FF01803584371
:1015F00001EB800006EB0010B0FBF5F000F00F00EF
:1016000021681044886070BDA0FB010192185B4105
:10161000FEF72EFE0146B0FBF5F00201B1FBF5F03E
:101620006FF01803584301EB800006EBC000B0FBDD
:10163000F5F000F0F80002EB4002B1FBF5F0584382
:1016400001EB800006EBC000B0FBF5F000F00700F6
:10165000D6E700000010014000140140816282853D
:10166000C28500210164222280F83E2080F83C10CF
:10167000016921B10168CA6842F48072CA600168D8
:101680004A6942F001024A610068C16841F02001E4
:10169000C160002070472DE9F041984617460E467C
:1016A0000446069D27E0681C25D02DB1FFF7B8F849
:1016B000A0EB0800A8421ED920680C3050E8001F9B
:1016C00021F4D07140E80012002AF5D120681430CE
:1016D00050E8001F21F0010140E80012002AF5D176
:1016E000202084F83D0084F83E00002084F83C006F
:1016F0000320BDE8F0812068006836EA000004D0CD
:101700000020B842CFD00020F3E70120F9E7000025
:101710000148FFF7DDBB0000EC000020FEE70907F1
:10172000090E002804DB00F1E02080F80014704767
:1017300000F00F0000F1E02080F8141D7047000059
:10174000FFF77CF8FFF722FEFFF7E8FDFFF7FCFD4F
:10175000084A09A10948FEF703FE0A236422074943
:101760000748FFF77FFD0549642264310448FFF70D
:1017700053FDFEE700000020257300002400002038
:10178000EC0000204FF04070E1EE100A70470000BE
:101790000000000000000102030406070809000021
:1017A0000000010203040000C81700080000002028
:1017B00024000000C4010008EC17000824000020E9
:1017C0006C070000E00100086C6D682069732073ED
:1017D0006F2068616E64736F6D650000010000002A
:0C17E00010000000000000000024F400D5
:040000050800018965
:00000001FF
