:020000040800F2
:10000000880600202902000847120008710C000829
:10001000451200081F040008F51200080000000047
:100020000000000000000000000000004F12000867
:1000300021040008000000004912000851120008C5
:10004000430200084302000843020008430200087C
:10005000430200084302000843020008430200086C
:10006000430200084302000843020008430200085C
:10007000430200084302000843020008430200084C
:10008000430200084302000843020008430200083C
:10009000430200084302000843020008430200082C
:1000A000430200084302000843020008430200081C
:1000B000430200084302000843020008430200080C
:1000C00043020008430200084302000843020008FC
:1000D00043020008430200084302000843020008EC
:1000E00043020008430200084302000843020008DC
:1000F00043020008430200084302000843020008CC
:1001000043020008430200084302000843020008BB
:1001100043020008430200084302000843020008AB
:10012000430200084302000843020008430200089B
:10013000430200084302000843020008430200088B
:10014000430200084302000843020008430200087B
:10015000430200084302000843020008430200086B
:10016000430200084302000843020008430200085B
:100170004302000843020008430200080000000098
:10018000430200084302000800F002F800F03CF8C7
:100190000AA090E8000C82448344AAF10107DA45E2
:1001A00001D100F031F8AFF2090EBAE80F0013F0F8
:1001B000010F18BFFB1A43F001031847A0230000EA
:1001C000C0230000103A24BF78C878C1FAD852077B
:1001D00024BF30C830C144BF04680C6070470000C1
:1001E0000023002400250026103A28BF78C1FBD840
:1001F000520728BF30C148BF0B6070471FB501F0E0
:10020000B7F81FBD10B510BD00F0CFF81146FFF7CD
:10021000F5FF01F08FF800F0EDF803B4FFF7F2FFFF
:1002200003BC00F0F5F80000094880470948004782
:10023000FEE7FEE7FEE7FEE7FEE7FEE7FEE7FEE796
:10024000FEE7FEE704480549054A064B70470000F3
:10025000E5120008890100088800002088060020B7
:10026000880200208802002053EA020C00F0698016
:100270002DE9F04B4FF00006002B1FBFB3FA83F5BA
:1002800003FA05F424FA05F65E4012BF1643B2FAEB
:1002900082F502FA05F4C5F120051EBF22FA05FC1D
:1002A00044EA0C04203556EA044C4FEA144418BFC3
:1002B000641C4FF000084FF00009904271EB030CF2
:1002C00039D3002919BFB1FA81F701FA07F6B0FA5C
:1002D00080F700FA07F6C7F120071EBF20FA07FCD7
:1002E00046EA0C062037B6FBF4FCA7EB0507103FE7
:1002F00007F01F0BCBF120060CFA0BFB2CFA06F6CD
:1003000044BFB3460026202FA4BF5E464FF0000B2B
:100310005BEA060C08BF4FF0010B19EB0B09ABFBB6
:10032000027C48EB0608C01B06FB02CC0BFB03CC8F
:1003300071EB0C01C1E70B46024641464846BDE859
:10034000F08B13B54FF000004FF00001AFF30080C9
:10035000BDE81C4070474FF0000200B513469446BC
:100360009646203922BFA0E80C50A0E80C50B1F10D
:100370002001BFF4F7AF090728BFA0E80C5048BF21
:100380000CC05DF804EB890028BF40F8042B08BFBF
:10039000704748BF20F8022B11F0804F18BF00F8BB
:1003A000012B7047704770477047754600F02CF876
:1003B000AE4605006946534620F00700854618B052
:1003C00020B5FFF73FFFBDE820404FF000064FF09B
:1003D00000074FF000084FF0000B21F00701AC467A
:1003E000ACE8C009ACE8C009ACE8C009ACE8C00999
:1003F0008D46704710B50446AFF300802046BDE837
:100400001040FFF70ABF0000004870472800002096
:1004100001491820ABBEFEE7260002007047FEE748
:10042000704700002DE9F84FDFF8BCA1002201253C
:1004300003264FF00F090AF1040BAAF1040E00BFC6
:100440000B6805FA02F42340A34270D10F7907F03C
:100450000307012F01D0022F16D187684FEA420807
:1004600006FA08FC27EA0C07D1F80CC00CFA08FCC5
:100470004CEA070CC0F808C04768A7430C79C4F3DE
:10048000001494403C4344600C79E443A4070AD030
:10049000C4684FEA420C06FA0CF7BC438F6807FAAF
:1004A0000CF72743C7600C7904F00304022C12D127
:1004B000D40800EB840CDCF820405707FF0E09FA43
:1004C00007F824EA0804D1F8108008FA07F848EA87
:1004D0000408CCF8208004684FEA420C06FA0CF7B6
:1004E000BC430F7907F0030707FA0CF727430760AF
:1004F0004C6814F4403F70D03C4C276847F4804768
:100500002760246822F0030704F480440094384CE8
:1005100007EB040CDCF8084897074FEA177809FA4C
:1005200008F7BC43334FB84202D1002724E054E01F
:10053000314FB84201D101271EE0304FB84201D1FE
:10054000022719E02E4FB84201D1032714E02D4FA6
:10055000B84201D104270FE02B4FB84201D1052743
:100560000AE02A4FB84201D1062705E0284FB842D9
:1005700001D1072700E0082707FA08F72743CCF83E
:100580000878DAF800405746D1F804C09C435FEA87
:10059000CC2C00D51C433C60DBF800405F46D1F812
:1005A00004C09C435FEA8C2C00D51C433C60DEF801
:1005B00000407746D1F804C09C435FEA8C3C00D5EC
:1005C0001C433C60084F083F3C68D1F804C09C4382
:1005D0005FEACC3C00D51C433C60521C102AFFF45F
:1005E0002FAFBDE8F88F0000083C014044380240BE
:1005F00000300140000002400004024000080240B8
:10060000000C02400010024000140240001802409A
:10061000001C02400AB1816170470904FBE7000039
:10062000014880687047000014000020024881687B
:100630000278114481607047140000200B4810B507
:10064000016841F400710160016841F4806101605A
:10065000016841F480710160032000F061F80F200F
:1006600000F006F800F024F8002010BD003C024025
:1006700070B50D4D04464FF47A712878B1FBF0F057
:100680000A490968B1FBF0F000F0DEFA48B9102C15
:1006900007D200222146501E00F022F800206C6094
:1006A00070BD012070BD000014000020200000205B
:1006B0000A4808B5016841F480410160006800F40F
:1006C000804000900548001F016841F080510160A2
:1006D000006800F08050009008BD000044380240DF
:1006E000F0B40E4B1B680C46C3F30223C3F107059D
:1006F000042D00D90425191D072901D2002300E08B
:10070000DB1E012606FA05F1491E214099409E4054
:10071000761E16403143F0BC00F0EDBD0CED00E05C
:10072000064900F0070208684FF6FF03184040EA48
:100730000220034A10430860704700000CED00E0FF
:100740000000FA052DE9F0470E46050065D0DFF8F8
:100750001481D8F80000F7B200F00700B04207D2C9
:1007600088F80070D8F8000000F00700B04254D1BB
:1007700028683D4C810712D5400703D5206840F416
:10078000E05020602878000703D5206840F46040DE
:1007900020602068A96820F0F000084320602878D5
:1007A000C0072DD0304968680839012812D00228C6
:1007B00013D0032811D00968890700292DDA216890
:1007C00021F0030101432160FFF72AFF814641F236
:1007D000883A0EE009688903EFE709688901ECE7C8
:1007E000FFF71EFFA0EB0901514502D90320BDE828
:1007F000F0872068696800F00C00B0EB810FEFD142
:10080000D8F80010404601F00701B14207D907703F
:10081000006800F00700B04201D00120E7E7287827
:10082000400705D52068E96820F4E05008432060BF
:100830002878000706D52068296920F4604040EA3E
:10084000C100206000F018F82168084AC1F30311C4
:10085000515CC8400649086006480068FFF708FF79
:100860000020C4E7003C0240083802407A13000828
:100870002000002018000020154810B5006810F076
:100880000C02144813D01449042A0FD0082A0ED1A0
:100890000F4C241F2268236802F03F025B0207D539
:1008A0002068C0F38810A0FB010106E0084610BDD7
:1008B0002168C1F38811A1FB00010023FFF7D4FCDC
:1008C0002168C1F30141491C4900B0FBF1F010BDA2
:1008D000083802400024F40040787D012DE9F84FEB
:1008E00004006ED02078DFF84C93C007A9F104050E
:1008F0004AD009F104000168C1F38101012908D03F
:100900000068C0F3810002280AD1D9F80000400233
:1009100006D52868800337D560680028E1D033E029
:100920006068B0F5803F10D0B0F5A02F286810D0D7
:1009300020F480302860286820F4802028606068D7
:10094000A8B1FFF76DFE06460DE0286840F4803040
:10095000F4E740F480202860F7E700BFFFF760FE6F
:10096000801B642873D828688003F7D50CE0FFF754
:1009700057FE064605E000BFFFF752FE801B6428C5
:10098000F0D828688003F7D42078DFF8AC8280079D
:100990004FF0000A3ED5A748001D016811F00C0F6A
:1009A00008D00068C0F3810002280BD1D9F80000FC
:1009B000400207D42868800716D5E068012800D1D6
:1009C00012E033E1E068B8B10120C8F80000FFF799
:1009D00027FE064605E000BFFFF722FE801B022827
:1009E000C0D828688007F7D52868216920F0F8006A
:1009F00040EAC10028600DE0C8F800A0FFF710FE33
:100A0000064604E0FFF70CFE801B02281FD828686A
:100A10008007F7D42078000722D5864F8748616980
:100A2000703771B101210160FFF7FAFD064604E05D
:100A3000FFF7F6FD801B022809D838688007F7D534
:100A40000EE0C0F800A0FFF7EBFD064605E082E0EF
:100A5000FFF7E6FD801B02287DD838688007F7D4B1
:100A60002078400768D5DFF8CCB100270BF13C0BAC
:100A7000DBF80000C0000BD4DBF8001041F080511F
:100A8000CBF80010DBF80000012700F08050009048
:100A90006B4E3068C00510D4306840F48070306010
:100AA000FFF7BEFD009005E0FFF7BAFD0099401A80
:100AB000022850D83068C005F6D55E4EA0686C3666
:100AC00001280FD00528306810D020F001003060D8
:100AD000306820F004003060A068B8B1FFF7A0FDD6
:100AE00000900FE0306840F00100F4E740F00400AF
:100AF0003060F7E7FFF794FD0099411A41F2883022
:100B0000814266D830688007F4D50EE0FFF788FD93
:100B1000009007E0FFF784FD0099411A41F2883008
:100B2000814256D830688007F4D42FB1DBF800102A
:100B300021F08051CBF80010A069C8B33D49091DD0
:100B40000968C1F3810102294AD00228504607D022
:100B5000C8F8600000E03CE0FFF762FD04463BE0BF
:100B60004746C8F86000FFF75BFD064605E000BF9A
:100B7000FFF756FD801B02282BD828688001F7D488
:100B8000D4E907010843A16A2E4A490802EB014152
:100B9000626A41EA8211084394F82C1040EA01612C
:100BA000C9F8001001203866FFF73AFD044606E058
:100BB0003EE000BFFFF734FD001B022809D828687B
:100BC0008001F7D534E000BFFFF72AFD001B0228A3
:100BD00002D90320BDE8F88F28688001F4D427E00B
:100BE0000128F7D0D9F80000E26900F480019142B1
:100BF0001CD1226A00F03F01914217D147F6C07123
:100C0000626A0140B1EB821F10D1A26A4FF0FF333C
:100C100000F4403103EB5202B1EB024F06D194F8DD
:100C20002C1000F07060B0EB016F01D00120D1E713
:100C30000020CFE70438024000004742800E4742C0
:100C4000007000400000FFFF10B5401EB0F1807F33
:100C500001D3012010BD4FF0E02460610F21601727
:100C600000F049FB0020A06107202061002010BD9A
:100C7000FEE7000070B50646002440F23F11204612
:100C800000F006F900F040FA4FF49635304600F0D7
:100C900011FA641CAC42F9D3BDE870400122110383
:100CA000014800F03FB80000000802401A4810B5A3
:100CB000016886B041F004010160016801F004019F
:100CC0000591016841F0020101600068694600F089
:100CD00002000590012001900290000300900F484F
:100CE000FFF7A0FB20200E4C009069462046FFF73E
:100CF00099FB002220212046FFF78CFC002141F2C5
:100D00008830491C8142FCD3012220212046FFF774
:100D100081FC06B010BD00003038024000080240DF
:100D200000040240FFF776BC203AD2B2034B02EB3C
:100D3000420203EB021200F01BB800008A13000805
:100D40002DE9F041002500EB40000E462C46C7007F
:100D500007E0F8B22146FFF7E7FF10346D1CA4B29C
:100D6000761C3278002A01D0142DF2D3BDE8F08130
:100D70002DE9F05FA1F23F11C1F1000A9146002672
:100D800004461FFA8AF100F083F80127DFF84C804F
:100D90004FF4805B00F0B8F95FF0000539F81600F9
:100DA00007FA05F10842404601D1408800E000887A
:100DB00000F080F96D1C102DF0D30122594608482F
:100DC000FFF7B0FF641CE4B21FFA8AF1204600F07E
:100DD0005FF8761C182EDDD3BDE8F09F24000020BC
:100DE0000008024070B5274886B0016841F0040150
:100DF0000160016801F004010591016841F0020100
:100E00000160016801F002010591016841F00801EB
:100E10000160016801F008010591016841F040019D
:100E200001600068184E00F0400005900120C403E6
:100E300001900290694600943046FFF7F3FAA5113D
:100E4000694630460095FFF7EDFA8020009069462C
:100E50003046FFF7E7FAFF20009069460B48FFF79E
:100E6000E1FA012280213046FFF7D4FB0122294616
:100E70003046FFF7CFFB012221463046FFF7CAFB81
:100E800006B070BD30380240000C0240001802402D
:100E900010B50C460146202000F044F92146BDE87B
:100EA0001040212000F03EB901B5BDF80000014915
:100EB000088008BD2400002010B5FFF7F7FEFFF7FB
:100EC00091FF0A2000F028FA0121002000F02AF901
:100ED0004FF48071012000F025F94FF4E061022009
:100EE00000F020F941F23001032000F01BF900214D
:100EF000042000F017F940F20221082000F012F956
:100F00000021092000F00EF900210A2000F00AF962
:100F100000210C2000F006F900210D2000F002F95C
:100F200000210F2000F0FEF80021102000F0FAF858
:100F30000021112000F0F6F80021122000F0F2F854
:100F40000021132000F0EEF80A2000F0E5F941F24C
:100F5000B071102000F0E6F840F23711112000F0D7
:100F6000E1F80A2000F0D8F940F23911122000F01F
:100F7000D9F80A2000F0D0F94FF4E851132000F01E
:100F8000D1F81321292000F0CDF80A2000F0C4F98F
:100F90000021202000F0C6F80021212000F0C2F836
:100FA0000621302000F0BEF840F20111312000F09F
:100FB000B9F80321322000F0B5F84FF483713520E1
:100FC00000F0B0F840F60231362000F0ABF840F205
:100FD0000231372000F0A6F840F20771382000F007
:100FE000A1F80721392000F09DF84FF4C0613C20A2
:100FF00000F098F840F20B213D2000F093F800211A
:10100000502000F08FF8EF21512000F08BF80021E4
:10101000522000F087F840F23F11532000F082F890
:101020004FF42741602000F07DF80121612000F09D
:1010300079F800216A2000F075F80021802000F086
:1010400071F80021812000F06DF80021822000F06D
:1010500069F80021832000F065F80021842000F069
:1010600061F80021852000F05DF81021902000F04B
:1010700059F80021922000F055F80321932000F048
:1010800051F84FF48871952000F04CF8002197201A
:1010900000F048F80021982000F044F841F21801CF
:1010A000032000F03FF8BDE8104040F27311072024
:1010B00000F038B82DE9F041114E0446012280219C
:1010C0003046FFF7A7FA0F4D200A28604FF400477B
:1010D000002239463046FFF79DFA01223946304654
:1010E000FFF798FA2C60002239463046FFF792FA53
:1010F00039463046BDE8F0410122FFF78BBA0000C7
:10110000000C02401418024010B5222000F046F8EE
:10111000BDE8104000224FF480510148FFF702BEA5
:10112000000802402DE9F0470C4600F037F8DFF8E0
:1011300060804FF48056002231464046FFF7F2FDB2
:10114000DFF85090012280214846FFF763FA124DE4
:10115000200A2860F700002239464846FFF75AFA6D
:10116000012239464846FFF755FA2C6000223946DD
:101170004846FFF74FFA012239464846FFF74AFA38
:1011800031464046BDE8F0470122FFF7CBBD0000E5
:1011900000080240000C0240141802402DE9F047FC
:1011A000DFF8688007464FF4805500222946404604
:1011B000FFF7B8FDDFF85890002280214846FFF77E
:1011C00029FA144C002020600246EE0031464846C1
:1011D000FFF720FA012231464846FFF71BFA276045
:1011E000002231464846FFF715FA012231464846AB
:1011F000FFF710FA012280214846FFF70BFA294633
:101200004046BDE8F0470122FFF78CBD00080240D0
:10121000000C024014180240094808B5016841F06A
:1012200080010160016801F080010091016841F0D6
:1012300001010160006800F00100009008BD00009D
:1012400030380240FEE7FEE77047FFF735BE7047D3
:10125000FFF7ECB970B592B030216846FFF77BF824
:1012600014210CA8FFF777F81C480025016841F00D
:1012700080510160006800F08050119018480168AA
:1012800041F4804101600068022400F48040119024
:1012900001200090000401908001CDE906400F2656
:1012A0000896C020CDE9090404200B906846FFF79A
:1012B00015FB08B172B6FEE74FF4A050CDE90E5011
:1012C000CDE90C64109005210CA8FFF73BFA00282B
:1012D00001D072B6FEE712B070BD00004038024087
:1012E000007000400248016841F4700101607047DD
:1012F00088ED00E0FEE70907090E002804DB00F195
:10130000E02080F80014704700F00F0000F1E020AA
:1013100080F8141D7047000001B581B004490198A0
:1013200048430090002801D0401EFAE70CBD0000A1
:10133000A0860100FFF782F9FFF78CFFFFF76CFF33
:10134000FFF783FF08480088FFF794FC1F20FFF792
:10135000ABFD06490220FFF7F3FC044904200931E4
:10136000FFF7EEFCFEE70000260000200000002052
:101370004FF04070E1EE100A7047000000000000DE
:101380000000010203040607080900000000000035
:10139000000000000000000000000000000000004D
:1013A000000000000000000000000000000000003D
:1013B000000000000000000000000000800180012B
:1013C0008001800180018001800180018001800115
:1013D0008001800180010000000080018001000088
:1013E0000000000000000000000000000000CC0031
:1013F000CC00CC00CC00CC00CC00000000000000F1
:1014000000000000000000000000000000000000DC
:1014100000000000000000000000000000000000CC
:10142000000000000000600C600C600C300630060C
:10143000FE1FFE1F300638071803FE1FFE1F18038D
:1014400018038C018C018C01000000008000E00377
:10145000F80F9C0E8C1C8C188C009800F801E0078B
:10146000800E801C8C188C189C18B80CF00FE003B0
:10147000800080000000000000000000000000006C
:101480000E181B0C110C11061106110311039B0100
:101490008E01C038C06C604460443044304418440D
:1014A000186C0C380000000000000000E001F003A0
:1014B0003807180618063003F001F000F8009C31D8
:1014C0000E33061E061C061C063FFC73F0210000AE
:1014D00000000000000000000000000000000C0000
:1014E0000C000C000C000C000C00000000000000C0
:1014F00000000000000000000000000000000000EC
:1015000000000000000000000000000000020003D6
:101510008001C000C000600060003000300030007A
:101520003000300030003000300060006000C0004B
:10153000C0008001000300020000000020006000E5
:10154000C0008001800100030003000600060006C1
:1015500000060006000600060006000300038001E6
:101560008001C000600020000000000000000000BA
:10157000000000000000C000C000D806F807E0012D
:1015800030033807000000000000000000000000E9
:10159000000000000000000000000000000000004B
:1015A00000000000000080018001800180018001B6
:1015B000FC3FFC3F80018001800180018001000030
:1015C000000000000000000000000000000000001B
:1015D000000000000000000000000000000000000B
:1015E00000000000000000000000000080018001F9
:1015F0000001000180000000000000000000000069
:1016000000000000000000000000000000000000DA
:101610000000E007E00700000000000000000000FC
:1016200000000000000000000000000000000000BA
:1016300000000000000000000000000000000000AA
:10164000000000000000000000000000C000C0001A
:10165000000000000000000000000000000C000C72
:10166000000600060006000300030003800380015B
:1016700080018001C000C000C00060006000000068
:10168000000000000000000000000000E003F00780
:10169000380E180C0C180C180C180C180C180C1808
:1016A0000C180C180C18180C380EF007E00300008A
:1016B00000000000000000000000000000018001A8
:1016C000C001F00198018801800180018001800142
:1016D0008001800180018001800180018001000083
:1016E000000000000000000000000000E003F80F10
:1016F000180C0C180C1800180018000C0006000339
:101700008001C000600030001800FC1FFC1F0000BA
:10171000000000000000000000000000E001F807E9
:10172000180E0C0C0C0C000C0006C003C007000CBB
:10173000001800180C180C18180CF807E00300002B
:10174000000000000000000000000000000C000E7F
:10175000000F000F800DC00C600C600C300C180CDA
:101760000C0CFC3FFC3F000C000C000C000C0000BB
:10177000000000000000000000000000F80FF80F5B
:10178000180018000C00EC03FC071C0E001C0018CD
:10179000001800180C181C0C180EF807E0030000C5
:1017A000000000000000000000000000C007F00F73
:1017B000381C181818000C00CC03EC0F3C0E1C1C35
:1017C0000C180C180C18181C380EF007E003000059
:1017D000000000000000000000000000FC1FFC1FD3
:1017E000000C00060006000380038001C001C00059
:1017F000E000600060007000300030003000000049
:10180000000000000000000000000000E003F007FE
:10181000380E180C180C180C3806F007F007180CC6
:101820000C180C180C180C18380CF80FE0030000FA
:10183000000000000000000000000000E003F007CE
:10184000380E1C0C0C180C180C181C1C381EF81B1D
:10185000E0190018000C000C1C0EF807F001000045
:101860000000000000000000000000000000000078
:101870000000000000008001800100000000000066
:101880000000000000000000000080018001000056
:101890000000000000000000000000000000000048
:1018A0000000000000008001800100000000000036
:1018B0000000000000000000000080018001000125
:1018C0000001800000000000000000000000000097
:1018D000000000000000000000000010001C800F4D
:1018E000E003F8001800F800E003800F001C00106F
:1018F00000000000000000000000000000000000E8
:1019000000000000000000000000F81F00000000C0
:101910000000F81F000000000000000000000000B0
:1019200000000000000000000000000000000000B7
:101930000000000000000000000008003800F00176
:10194000C007001F0018001FC007F0013800080082
:10195000000000000000000000000000E003F80F9D
:10196000180C0C180C180018000C0006000380015D
:10197000C000C000C00000000000C000C0000000A7
:101980000000000000000000000000000000E00770
:1019900018180420C229224A114409440944094460
:1019A00009221113E20C024004201818E00700007D
:1019B0000000000000000000000000008003800321
:1019C000C006C006C006600C600C30183018301815
:1019D000F83FF83F1C700C600C6006C006C00000A9
:1019E000000000000000000000000000FC03FC0FED
:1019F0000C0C0C180C180C180C0CFC07FC0F0C1819
:101A00000C300C300C300C300C18FC1FFC070000A4
:101A1000000000000000000000000000C007F01FF0
:101A200038381C300C700660060006000600060000
:101A30000600060006600C701C30F01FE007000076
:101A4000000000000000000000000000FE03FE0F88
:101A5000060E061806180630063006300630063028
:101A60000630063006180618060EFE0FFE030000AC
:101A7000000000000000000000000000FC3FFC3FF0
:101A80000C000C000C000C000C00FC1FFC1F0C00D8
:101A90000C000C000C000C000C00FC3FFC3F000094
:101AA000000000000000000000000000F83FF83FC8
:101AB00018001800180018001800F81FF81F180068
:101AC000180018001800180018001800180000006E
:101AD000000000000000000000000000E00FF83FE0
:101AE0003C780E6006E007C00300030003FE03FE1F
:101AF00003C007C006C00EC03CF0F83FE00F000076
:101B00000000000000000000000000000C300C305D
:101B10000C300C300C300C300C30FC3FFC3F0C30E7
:101B20000C300C300C300C300C300C300C30000011
:101B300000000000000000000000000080018001A3
:101B4000800180018001800180018001800180018D
:101B500080018001800180018001800180010000FE
:101B60000000000000000000000000000006000669
:101B70000006000600060006000600060006000635
:101B800000060006180618063807F003E0010000FA
:101B900000000000000000000000000006300618F1
:101BA000060C060606038601C60066007600DE0007
:101BB0008E0106030606060C0618063006600000B5
:101BC00000000000000000000000000018001800E5
:101BD0001800180018001800180018001800180045
:101BE00018001800180018001800F81FF81F00004F
:101BF0000000000000000000000000000EE01EF0E9
:101C00001EF01EF036D836D836D836D866CC66CC1C
:101C100066CCC6C6C6C6C6C6C6C686C386C30000D0
:101C20000000000000000000000000000C301C302C
:101C30003C303C306C306C30CC30CC308C310C33A0
:101C40000C330C360C360C3C0C3C0C380C300000C1
:101C5000000000000000000000000000E007F81F86
:101C60001C380E70066003C003C003C003C003C06D
:101C700003C003C006600E701C38F81FE0070000A8
:101C8000000000000000000000000000FC0FFC1F2E
:101C90000C380C300C300C300C300C18FC1FFC07CE
:101CA0000C000C000C000C000C000C000C000000E0
:101CB000000000000000000000000000E007F81F26
:101CC0001C380E70066003E003C003C003C003C0ED
:101CD00003C007E006630E3F1C3CF83FE0F700C07E
:101CE000000000000000000000000000FE0FFE1FCA
:101CF00006380630063006300638FE1FFE0706039B
:101D00000606060C061806180630063006600000A7
:101D1000000000000000000000000000E003F80FD9
:101D20001C0C0C180C180C001C00F803E00F001E13
:101D30000038063006300E301C1CF80FE00700009B
:101D4000000000000000000000000000FE7FFE7F99
:101D5000800180018001800180018001800180017B
:101D600080018001800180018001800180010000EC
:101D70000000000000000000000000000C300C30EB
:101D80000C300C300C300C300C300C300C300C3073
:101D90000C300C300C300C301818F81FE007000025
:101DA000000000000000000000000000036006309A
:101DB000063006300C180C180C18180C180C380EBD
:101DC00030063006700760036003C001C0010000E8
:101DD0000000000000000000000000000360C3617C
:101DE000C361C36166336633663366336633663315
:101DF0006C1B6C1B6C1B2C1A3C1E380E380E000022
:101E00000000000000000000000000000FE00C7067
:101E100018303018700C600EC00780038003C003B8
:101E2000E006700C301C18180C300E6007E0000043
:101E300000000000000000000000000003C0066079
:101E40000C301C383818300C6006E007C0038001E5
:101E500080018001800180018001800180010000FB
:101E6000000000000000000000000000FC7FFC7F7C
:101E7000006000300018000C000600038001C00064
:101E80006000300018000C000600FE7FFE7F00009E
:101E9000000000000000000000000000E003E0037C
:101EA0006000600060006000600060006000600032
:101EB0006000600060006000600060006000600022
:101EC00060006000E003E00300000000300030002C
:101ED000600060006000C000C000C000C001800160
:101EE00080018001000300030003000600060000DB
:101EF000000000000000000000000000E003E0031C
:101F000000030003000300030003000300030003B9
:101F100000030003000300030003000300030003A9
:101F200000030003E003E003000000000000C00124
:101F3000C00160036003600330063006180C180C03
:101F40000000000000000000000000000000000091
:101F50000000000000000000000000000000000081
:101F60000000000000000000000000000000000071
:101F7000000000000000000000000000FFFFFFFF65
:101F80000000000000000000000000000C000C0039
:101F90000C000C000C000C00000000000000000011
:101FA0000000000000000000000000000000000031
:101FB0000000000000000000000000000000000021
:101FC000000000000000F003F8071C0C0C0C000FD0
:101FD000F00FF80C0C0C0C0C1C0FF80FF018000094
:101FE00000000000000000000000000018001800C1
:101FF000180018001800D803F80F380C1818181813
:102000001818181818181818380CF80FD8030000EA
:1020100000000000000000000000000000000000C0
:10202000000000000000C003F007300E180C18007C
:10203000180018001800180C300EF007C00300003C
:102040000000000000000000000000000018001860
:10205000001800180018C01BF01F301C18181818A2
:102060001818181818181818301CF01FC01B00007A
:102070000000000000000000000000000000000060
:10208000000000000000C003F00F300C1818F81F0B
:10209000F81F180018003818301CF00FC007000097
:1020A000000000000000000000000000800FC00FD2
:1020B000C000C000C000F007F007C000C000C000B2
:1020C000C000C000C000C000C000C000C0000000D0
:1020D0000000000000000000000000000000000000
:1020E000000000000000E00DF80F180E0C0C0C0CA6
:1020F0000C0C0C0C0C0C0C0C180EF80FE00D000C5A
:102100000C0C1C06F807F001000000001800180075
:10211000180018001800D807F80F381C18181818DD
:10212000181818181818181818181818181800005F
:10213000000000000000000000000000C000C0001F
:10214000000000000000C000C000C000C000C000CF
:10215000C000C000C000C000C000C000C00000003F
:10216000000000000000000000000000C000C000EF
:10217000000000000000C000C000C000C000C0009F
:10218000C000C000C000C000C000C000C000C0004F
:10219000C000C000F8007800000000000C000C0037
:1021A0000C000C000C000C0C0C060C038C01CC0079
:1021B0006C00FC009C018C030C030C060C0C000052
:1021C000000000000000000000000000C000C0008F
:1021D000C000C000C000C000C000C000C000C000FF
:1021E000C000C000C000C000C000C000C0000000AF
:1021F00000000000000000000000000000000000DF
:102200000000000000007C3CFF7EC7E383C183C167
:1022100083C183C183C183C183C183C183C10000E2
:1022200000000000000000000000000000000000AE
:102230000000000000009807F80F381C1818181844
:10224000181818181818181818181818181800003E
:10225000000000000000000000000000000000007E
:10226000000000000000C003F00F300C1818181810
:102270001818181818181818300CF00FC0030000A0
:10228000000000000000000000000000000000004E
:10229000000000000000D803F80F380C18181818B8
:1022A0001818181818181818380CF80FD803180030
:1022B00018001800180018000000000000000000BE
:1022C000000000000000C01BF01F301C1818181878
:1022D0001818181818181818301CF01FC01B0018F0
:1022E000001800180018001800000000000000008E
:1022F000000000000000B007F00370003000300064
:10230000300030003000300030003000300000007D
:1023100000000000000000000000000000000000BD
:10232000000000000000E003F003380E180C380035
:10233000F003C007000C180C380EF007E003000093
:10234000000000000000000000000000000080000D
:10235000C000C000C000F007F007C000C000C0000F
:10236000C000C000C000C000C000C007800700005F
:10237000000000000000000000000000000000005D
:10238000000000000000181818181818181818185D
:102390001818181818181818381CF01FE019000021
:1023A000000000000000000000000000000000002D
:1023B0000000000000000C18180C180C180C300657
:1023C00030063006600360036003C001C0010000F6
:1023D00000000000000000000000000000000000FD
:1023E000000000000000C141C141C3616363636339
:1023F00063633636363636361C1C1C1C1C1C00002B
:1024000000000000000000000000000000000000CC
:102410000000000000001C38381C300C600660030F
:102420006003600360036006300C381C1C38000039
:10243000000000000000000000000000000000009C
:102440000000000000001830301830187018600CC0
:10245000600CE00CC006C00680038003800380018E
:102460008001C001F00070000000000000000000CA
:10247000000000000000FC1FFC1F000C0006000311
:102480008001C000600030001800FC1FFC1F00002D
:1024900000000000000000000000000000038001B8
:1024A000C000C000C000C000C000C00060006000EC
:1024B000300060004000C000C000C000C000C0008C
:1024C000C0008001000300000000000080018001C6
:1024D00080018001800180018001800180018001F4
:1024E00080018001800180018001800180018001E4
:1024F0008001800180018001000000006000C000B8
:10250000C00180018001800180018001000300037F
:10251000000600030001800180018001800180012C
:102520008001C0006000000000000000000000000A
:1025300000000000000000000000F010F81F080F6D
:10254000000000000000000000000000000000008B
:102550000000000000000000000000007C250008D2
:102560000000002028000000C4010008A425000885
:102570002800002060060000E00100086C6D683152
:1025800032313338006175746F5F657870740000A4
:102590000100000010000000000000000024F40012
:0425A0000000FFFF39
:040000050800018965
:00000001FF
