:020000040800F2
:10000000D806002029020008C7110008791000084E
:10001000C51100081F040008D313000800000000E9
:10002000000000000000000000000000CB110008EC
:100030002104000800000000C9110008FD1100089B
:10004000430200084302000843020008430200087C
:10005000430200084302000843020008430200086C
:10006000430200084302000843020008430200085C
:10007000430200084302000843020008430200084C
:10008000430200084302000843020008430200083C
:10009000430200084302000843020008430200082C
:1000A000430200084302000843020008430200081C
:1000B000430200084302000843020008430200080C
:1000C00043020008430200084302000843020008FC
:1000D00043020008430200084302000843020008EC
:1000E00043020008430200084302000843020008DC
:1000F00043020008430200084302000843020008CC
:1001000043020008430200084302000843020008BB
:1001100043020008430200084302000843020008AB
:10012000430200084302000843020008430200089B
:10013000430200084302000843020008430200088B
:10014000430200084302000843020008430200087B
:10015000430200084302000843020008430200086B
:10016000430200084302000843020008430200085B
:100170004302000843020008430200080000000098
:10018000430200084302000800F002F800F03CF8C7
:100190000AA090E8000C82448344AAF10107DA45E2
:1001A00001D100F031F8AFF2090EBAE80F0013F0F8
:1001B000010F18BFFB1A43F001031847201300007A
:1001C00040130000103A24BF78C878C1FAD852070B
:1001D00024BF30C830C144BF04680C6070470000C1
:1001E0000023002400250026103A28BF78C1FBD840
:1001F000520728BF30C148BF0B6070471FB501F0E0
:100200005FF91FBD10B510BD00F0CFF81146FFF724
:10021000F5FF01F0EFF800F0EDF803B4FFF7F2FF9F
:1002200003BC00F0F5F80000094880470948004782
:10023000FEE7FEE7FEE7FEE7FEE7FEE7FEE7FEE796
:10024000FEE7FEE704480549054A064B70470000F3
:100250009112000889010008D8000020D80600206B
:10026000D8020020D802002053EA020C00F0698076
:100270002DE9F04B4FF00006002B1FBFB3FA83F5BA
:1002800003FA05F424FA05F65E4012BF1643B2FAEB
:1002900082F502FA05F4C5F120051EBF22FA05FC1D
:1002A00044EA0C04203556EA044C4FEA144418BFC3
:1002B000641C4FF000084FF00009904271EB030CF2
:1002C00039D3002919BFB1FA81F701FA07F6B0FA5C
:1002D00080F700FA07F6C7F120071EBF20FA07FCD7
:1002E00046EA0C062037B6FBF4FCA7EB0507103FE7
:1002F00007F01F0BCBF120060CFA0BFB2CFA06F6CD
:1003000044BFB3460026202FA4BF5E464FF0000B2B
:100310005BEA060C08BF4FF0010B19EB0B09ABFBB6
:10032000027C48EB0608C01B06FB02CC0BFB03CC8F
:1003300071EB0C01C1E70B46024641464846BDE859
:10034000F08B13B54FF000004FF00001AFF30080C9
:10035000BDE81C4070474FF0000200B513469446BC
:100360009646203922BFA0E80C50A0E80C50B1F10D
:100370002001BFF4F7AF090728BFA0E80C5048BF21
:100380000CC05DF804EB890028BF40F8042B08BFBF
:10039000704748BF20F8022B11F0804F18BF00F8BB
:1003A000012B7047704770477047754600F02CF876
:1003B000AE4605006946534620F00700854618B052
:1003C00020B5FFF73FFFBDE820404FF000064FF09B
:1003D00000074FF000084FF0000B21F00701AC467A
:1003E000ACE8C009ACE8C009ACE8C009ACE8C00999
:1003F0008D46704710B50446AFF300802046BDE837
:100400001040FFF70ABF000000487047740000204A
:1004100001491820ABBEFEE7260002007047FEE748
:10042000704772B6FEE770B54379012B15D00124F1
:1004300044710223037103681D6801F010014FF439
:100440007C668E4042F08002B5438A4015431D60B1
:10045000047100214171084670BD022070BD70B565
:100460004379012B1CD001264671022303710568D4
:100470002B6802F0100440F6FE72A2409343D1E9CB
:1004800000210A43A2401A432A6001680A68C02377
:10049000A3409A430A60067100214171084670BD6D
:1004A000022070BD70B5040003D02079002510B182
:1004B00005E0012070BD6571204600F007F80220BC
:1004C0002071256101202071002070BD10B586B01B
:1004D000044614216846FFF73EFF11492068884210
:1004E0001CD110480021026842F0005202600068EE
:1004F00000F0005005900B481038026842F00102ED
:100500000260006800F00100059030200090032098
:10051000CDE901016946044800F056F806B010BD67
:1005200000740040403802400000024018B50468E2
:1005300000940068104421B1143000900360002042
:1005400018BD0830F9E770B54279012A1ED00122A2
:100550004271022303710468266801F0100302FA55
:1005600003F52E4326600029016811D00C6804F4BD
:1005700070153C249C40A54203D14B6843F0020314
:100580004B60027100214171084670BD022070BDB0
:100590000B68C3F383030F2BF3D14B6843F00103C4
:1005A000EEE7000070B5044600F00CF90546601C4B
:1005B00002D004480078044400F004F9401BA04233
:1005C000FAD370BD080000202DE9F84FDFF8BCA178
:1005D0000022012503264FF00F090AF1040BAAF1AE
:1005E000040E00BF0B6805FA02F42340A34270D149
:1005F0000F7907F00307012F01D0022F16D187686A
:100600004FEA420806FA08FC27EA0C07D1F80CC0AA
:100610000CFA08FC4CEA070CC0F808C04768A7436E
:100620000C79C4F3001494403C4344600C79E443D7
:10063000A4070AD0C4684FEA420C06FA0CF7BC4380
:100640008F6807FA0CF72743C7600C7904F003049E
:10065000022C12D1D40800EB840CDCF820405707A0
:10066000FF0E09FA07F824EA0804D1F8108008FA06
:1006700007F848EA0408CCF8208004684FEA420CE6
:1006800006FA0CF7BC430F7907F0030707FA0CF7DB
:10069000274307604C6814F4403F70D03C4C2768F7
:1006A00047F480472760246822F0030704F480445D
:1006B0000094384C07EB040CDCF8084897074FEA25
:1006C000177809FA08F7BC43334FB84202D1002724
:1006D00024E054E0314FB84201D101271EE0304FF1
:1006E000B84201D1022719E02E4FB84201D10327A9
:1006F00014E02D4FB84201D104270FE02B4FB84230
:1007000001D105270AE02A4FB84201D1062705E0AA
:10071000284FB84201D1072700E0082707FA08F759
:100720002743CCF80878DAF800405746D1F804C0DF
:100730009C435FEACC2C00D51C433C60DBF80040B6
:100740005F46D1F804C09C435FEA8C2C00D51C4363
:100750003C60DEF800407746D1F804C09C435FEA75
:100760008C3C00D51C433C60084F083F3C68D1F8E6
:1007700004C09C435FEACC3C00D51C433C60521C47
:10078000102AFFF42FAFBDE8F88F0000083C0140AD
:1007900044380240003001400000024000040240A2
:1007A00000080240000C0240001002400014024009
:1007B00000180240001C02400069084000D00120DF
:1007C0007047000001488068704700000800002062
:1007D0000248816802781144816070470800002057
:1007E0000B4810B5016841F400710160016841F4E3
:1007F00080610160016841F480710160032000F0B4
:1008000061F80F2000F006F800F024F8002010BD79
:10081000003C024070B50D4D04464FF47A712878C3
:10082000B1FBF0F00A490968B1FBF0F000F0DEFA24
:1008300048B9102C07D200222146501E00F022F8A1
:1008400000206C6070BD012070BD00000800002019
:10085000140000200A4808B5016841F48041016095
:10086000006800F4804000900548001F016841F0D6
:1008700080510160006800F08050009008BD0000C9
:1008800044380240F0B40E4B1B680C46C3F30223FD
:10089000C3F10705042D00D90425191D072901D22C
:1008A000002300E0DB1E012606FA05F1491E214067
:1008B00099409E40761E16403143F0BC00F08ABD40
:1008C0000CED00E0064900F0070208684FF6FF0350
:1008D000184040EA0220034A1043086070470000B5
:1008E0000CED00E00000FA052DE9F0470E4605008A
:1008F00065D0DFF81481D8F80000F7B200F00700E7
:10090000B04207D288F80070D8F8000000F0070065
:10091000B04254D128683D4C810712D5400703D519
:10092000206840F4E05020602878000703D5206854
:1009300040F4604020602068A96820F0F00008437F
:1009400020602878C0072DD0304968680839012810
:1009500012D0022813D0032811D009688907002972
:100960002DDA216821F0030101432160FFF72AFFFE
:10097000814641F2883A0EE009688903EFE7096889
:100980008901ECE7FFF71EFFA0EB0901514502D9F1
:100990000320BDE8F0872068696800F00C00B0EB28
:1009A000810FEFD1D8F80010404601F00701B142A5
:1009B00007D90770006800F00700B04201D001209D
:1009C000E7E72878400705D52068E96820F4E0507B
:1009D000084320602878000706D52068296920F49C
:1009E000604040EAC100206000F018F82168084A21
:1009F000C1F30311515CC84006490860064800680D
:100A0000FFF708FF0020C4E7003C0240083802401E
:100A1000CA140008140000200C000020154810B56E
:100A2000006810F00C02144813D01449042A0FD0A7
:100A3000082A0ED10F4C241F2268236802F03F02BF
:100A40005B0207D52068C0F38810A0FB010106E017
:100A5000084610BD2168C1F38811A1FB00010023E5
:100A6000FFF702FC2168C1F30141491C4900B0FBBA
:100A7000F1F010BD083802400024F40040787D01F8
:100A80002DE9F84F04006ED02078DFF84C93C007B2
:100A9000A9F104054AD009F104000168C1F38101FC
:100AA000012908D00068C0F3810002280AD1D9F8D2
:100AB0000000400206D52868800337D5606800280A
:100AC000E1D033E06068B0F5803F10D0B0F5A02FE2
:100AD000286810D020F480302860286820F4802016
:100AE00028606068A8B1FFF76DFE06460DE0286833
:100AF00040F48030F4E740F480202860F7E700BF3E
:100B0000FFF760FE801B642873D828688003F7D540
:100B10000CE0FFF757FE064605E000BFFFF752FE68
:100B2000801B6428F0D828688003F7D42078DFF889
:100B3000AC8280074FF0000A3ED5A748001D01682F
:100B400011F00C0F08D00068C0F3810002280BD10F
:100B5000D9F80000400207D42868800716D5E0685D
:100B6000012800D112E033E1E068B8B10120C8F8F3
:100B70000000FFF727FE064605E000BFFFF722FE54
:100B8000801B0228C0D828688007F7D5286821690B
:100B900020F0F80040EAC10028600DE0C8F800A08D
:100BA000FFF710FE064604E0FFF70CFE801B02284C
:100BB0001FD828688007F7D42078000722D5864FF1
:100BC00087486169703771B101210160FFF7FAFD53
:100BD000064604E0FFF7F6FD801B022809D83868B6
:100BE0008007F7D50EE0C0F800A0FFF7EBFD064642
:100BF00005E082E0FFF7E6FD801B02287DD838681B
:100C00008007F7D42078400768D5DFF8CCB10027FB
:100C10000BF13C0BDBF80000C0000BD4DBF800103C
:100C200041F08051CBF80010DBF80000012700F004
:100C3000805000906B4E3068C00510D4306840F48E
:100C400080703060FFF7BEFD009005E0FFF7BAFD51
:100C50000099401A022850D83068C005F6D55E4E7B
:100C6000A0686C3601280FD00528306810D020F01D
:100C700001003060306820F004003060A068B8B136
:100C8000FFF7A0FD00900FE0306840F00100F4E7AE
:100C900040F004003060F7E7FFF794FD0099411A37
:100CA00041F28830814266D830688007F4D50EE082
:100CB000FFF788FD009007E0FFF784FD0099411AD7
:100CC00041F28830814256D830688007F4D42FB181
:100CD000DBF8001021F08051CBF80010A069C8B3F8
:100CE0003D49091D0968C1F3810102294AD0022842
:100CF000504607D0C8F8600000E03CE0FFF762FD16
:100D000004463BE04746C8F86000FFF75BFD064637
:100D100005E000BFFFF756FD801B02282BD828688E
:100D20008001F7D4D4E907010843A16A2E4A490893
:100D300002EB0141626A41EA8211084394F82C10E7
:100D400040EA0161C9F8001001203866FFF73AFD5A
:100D5000044606E03EE000BFFFF734FD001B02281A
:100D600009D828688001F7D534E000BFFFF72AFDD5
:100D7000001B022802D90320BDE8F88F28688001F3
:100D8000F4D427E00128F7D0D9F80000E26900F494
:100D9000800191421CD1226A00F03F01914217D19B
:100DA00047F6C071626A0140B1EB821F10D1A26A9E
:100DB0004FF0FF3300F4403103EB5202B1EB024F2E
:100DC00006D194F82C1000F07060B0EB016F01D0E8
:100DD0000120D1E70020CFE704380240000047425D
:100DE000800E4742007000400000FFFF10B5401E1B
:100DF000B0F1807F01D3012010BD4FF0E02460618D
:100E00000F21601700F0E6FA0020A06107202061A2
:100E1000002010BD70B590F83C20012A32D001248A
:100E200080F83C40022280F83D2003685A689D68A3
:100E300022F070060A6832435A60134B02689A42E5
:100E400014D0B2F1804F11D0104B9A420ED0104BFB
:100E50009A420BD00F4B9A4208D00F4B9A4205D0C2
:100E60000E4B9A4202D00E4B9A4204D1496825F0AB
:100E700080031943916080F83D40002180F83C10C8
:100E8000084670BD022070BD000001400004004013
:100E900000080040000C00400004014000400140F8
:100EA0000018004010B5040003D094F83D0010B1C4
:100EB00007E0012010BD002084F83C00204600F02F
:100EC0001FF8022084F83D00211D206800F0E8F999
:100ED000012084F8460084F83E0084F83F0084F83E
:100EE000400084F8410084F8420084F8430084F80C
:100EF000440084F8450084F83D00002010BD000047
:100F000008B50068B0F1804F08D10548016841F08C
:100F100001010160006800F00100009008BD0000C0
:100F20004038024090F83D10012901D0012070475F
:100F3000022180F83D1000681149884214D0B0F1B8
:100F4000804F11D00F4988420ED00F4988420BD0F4
:100F50000E49884208D00E49884205D00D49884282
:100F600002D00D49884204D1816801F007010629A9
:100F700003D0016841F001010160002070470000CA
:100F8000000001400004004000080040000C004048
:100F900000040140004001400018004070B50446C4
:100FA00090F83C000025012817D0012684F83C6009
:100FB000022084F83D002068826822F0770222F443
:100FC0007F4282600868502838D00DDC20284FD03E
:100FD00005DC90B3102811D14AE0022070BD302802
:100FE00046D040280AD13BE060282FD070280DD091
:100FF000B0F5805F03D0B0F5005F12D0012584F812
:101000003D60002084F83C00284670BDCB68D1E9E3
:101010000121206800F0A8F92068816841F077017B
:1010200009E0CB68D1E90121206800F09DF9206832
:10103000816841F480418160E1E719E0CA6849684C
:10104000206800F0A3F95021206806E0CA684968CA
:10105000206800F0ACF96021206800F08FF9CEE73D
:10106000CA684968206800F091F940212068F4E7D7
:10107000226801461046F0E7FEE770B50C460546CB
:10108000FFF79AFB40B90A20FFF78CFA2146284661
:10109000FFF792FB002800D0012070BD1CB5002492
:1010A000154900941348019408600846FFF7FAF9BF
:1010B00008B1FFF7B6F90094002269460E48019482
:1010C000FFF7CDF908B1FFF7ACF92420009010220A
:1010D00069460948FFF7C3F908B1FFF7A2F94FF4D1
:1010E000306210210448FFF79EF9002801D0FFF775
:1010F00098F91CBD007400401800002000B587B0AE
:1011000014216846FFF727F912480021026842F0CF
:1011100080020260026802F080020592026842F0DA
:1011200001020260026802F001020592026842F0C8
:1011300040020260006800F0400005904FF410404B
:10114000CDE900010120029069460348FFF73CFA0F
:1011500007B000BD303802400018024010B586B01C
:1011600000241748009401940294039404944FF0CF
:101170008041059401604F21C0E90114C821C0E9F4
:10118000031480218161FFF78DFE08B1FFF749F953
:101190004FF48050009069460948FFF7FFFE08B100
:1011A000FFF73FF92020CDE9040404A90448FFF724
:1011B00031FE002801D0FFF734F906B010BD000061
:1011C0002C000020FEE7FEE7704770479FED081AED
:1011D00000221146C0EE010A9FED060A064820EEE5
:1011E000800ABCEEC00A10EE103AFFF79FB900006B
:1011F000333353400000804518000020FFF7E8BA61
:1012000070B592B030216846FFF7A5F814210CA8FC
:10121000FFF7A1F81C480025016841F080510160EA
:10122000006800F0805011901848016841F4804136
:1012300001600068022400F48040119001200090B9
:10124000000401908001CDE906400F260896C020D9
:10125000CDE9090404200B906846FFF711FC08B1A2
:1012600072B6FEE74FF4A050CDE90E50CDE90C6404
:10127000109005210CA8FFF737FB002801D072B6AB
:10128000FEE712B070BD0000403802400070004020
:101290000248016841F470010160704788ED00E088
:1012A000F0B50268254C264D264E274F274B4FF0B0
:1012B000804CA04209D0604507D0A84205D0B0427A
:1012C00003D0B84201D0984204D122F0700E4A688F
:1012D00042EA0E02A0421BD0604519D0A84217D0A6
:1012E000B04215D0B84213D0984211D0184DA84240
:1012F0000ED0184DA8420BD0174DA84208D0174D5C
:10130000A84205D0164DA84202D0164DA84203D1DE
:1013100022F44075CA682A434D6922F080022A43AC
:1013200002608A68C2620A688262A04201D0984262
:1013300001D10969016301214161F0BD0000014053
:101340000004004000080040000C00400004014080
:1013500000400140004401400048014000180040A6
:10136000001C00400020004010B5846842EA0322BF
:1013700024F47F440A432243826010BD826822F035
:1013800070020A4342F007018160704710B5036A9A
:10139000046A24F001040462846924F0F00444EA3D
:1013A000021423F00A020A438461026210BD10B5E0
:1013B000036A23F0100303628369046A23F4704311
:1013C00043EA023224F0A00343EA01118261016280
:1013D00010BDFEE70907090E002804DB00F1E0203C
:1013E00080F80014704700F00F0000F1E02080F852
:1013F000141D70472DED028BFFF7F2F9FFF700FF88
:10140000FFF77CFEFFF74AFEFFF7A8FE2748FFF72D
:1014100089FD00212648FFF796F810212448FFF7A0
:1014200092F8244E9FED248A244C4FF400474FF449
:101430008058012539463046FFF71FFE28B1414646
:101440003046FFF71AFE10B102E0257000E0A570EB
:1014500039463046FFF711FE012802D120780128D5
:1014600006D041463046FFF708FE012802D005E0CD
:10147000657006E0A078012800D1E5706078012849
:1014800005D194ED010A30EE080A84ED010AE078F6
:1014900094ED010A012803D130EE480A84ED010AD7
:1014A000FFF794FE0120FFF77DF8C3E72C00002032
:1014B0001800002000180240CDCCCC3D00000020D8
:1014C0004FF04070E1EE100A70470000000000008D
:1014D000000001020304060708090000FC140008CC
:1014E0000000002018000000C401000814150008C6
:1014F00018000020C0060000E00100080000000005
:1015000000000000010000001000000000000000CA
:041510000024F400BF
:040000050800018965
:00000001FF
