:020000040800F2
:1000000098070020290200084B200008ED1800087E
:100010004920000855050008CF2300080000000013
:100020000000000000000000000000005320000855
:10003000E1050008000000004D20000855200008E0
:10004000430200084302000843020008430200087C
:10005000430200084302000843020008430200086C
:10006000430200084302000843020008430200085C
:10007000430200084302000843020008430200084C
:10008000430200084302000821040008430200085C
:10009000430200084302000843020008430200082C
:1000A000430200084302000843020008430200081C
:1000B000430200084302000843020008430200080C
:1000C00043020008430200084302000843020008FC
:1000D00043020008430200084302000843020008EC
:1000E00043020008430200084302000843020008DC
:1000F00043020008430200084302000843020008CC
:1001000043020008430200084302000843020008BB
:1001100043020008430200084302000843020008AB
:100120005905000843020008430200084302000882
:10013000430200084302000843020008430200088B
:10014000430200084302000843020008430200087B
:10015000430200084302000843020008430200086B
:10016000430200084302000843020008430200085B
:100170004302000843020008430200080000000098
:10018000430200084302000800F002F800F03CF8C7
:100190000AA090E8000C82448344AAF10107DA45E2
:1001A00001D100F031F8AFF2090EBAE80F0013F0F8
:1001B000010F18BFFB1A43F001031847AC340000CD
:1001C000CC340000103A24BF78C878C1FAD852075E
:1001D00024BF30C830C144BF04680C6070470000C1
:1001E0000023002400250026103A28BF78C1FBD840
:1001F000520728BF30C148BF0B6070471FB502F0DF
:1002000039F91FBD10B510BD00F0CFF81146FFF74A
:10021000F5FF02F0FBF800F0EDF803B4FFF7F2FF92
:1002200003BC00F0F5F80000094880470948004782
:10023000FEE7FEE7FEE7FEE7FEE7FEE7FEE7FEE796
:10024000FEE7FEE704480549054A064B70470000F3
:10025000ED2000088901000898010020980700207F
:10026000980300209803002053EA020C00F06980F4
:100270002DE9F04B4FF00006002B1FBFB3FA83F5BA
:1002800003FA05F424FA05F65E4012BF1643B2FAEB
:1002900082F502FA05F4C5F120051EBF22FA05FC1D
:1002A00044EA0C04203556EA044C4FEA144418BFC3
:1002B000641C4FF000084FF00009904271EB030CF2
:1002C00039D3002919BFB1FA81F701FA07F6B0FA5C
:1002D00080F700FA07F6C7F120071EBF20FA07FCD7
:1002E00046EA0C062037B6FBF4FCA7EB0507103FE7
:1002F00007F01F0BCBF120060CFA0BFB2CFA06F6CD
:1003000044BFB3460026202FA4BF5E464FF0000B2B
:100310005BEA060C08BF4FF0010B19EB0B09ABFBB6
:10032000027C48EB0608C01B06FB02CC0BFB03CC8F
:1003300071EB0C01C1E70B46024641464846BDE859
:10034000F08B13B54FF000004FF00001AFF30080C9
:10035000BDE81C4070474FF0000200B513469446BC
:100360009646203922BFA0E80C50A0E80C50B1F10D
:100370002001BFF4F7AF090728BFA0E80C5048BF21
:100380000CC05DF804EB890028BF40F8042B08BFBF
:10039000704748BF20F8022B11F0804F18BF00F8BB
:1003A000012B7047704770477047754600F02CF876
:1003B000AE4605006946534620F00700854618B052
:1003C00020B5FFF73FFFBDE820404FF000064FF09B
:1003D00000074FF000084FF0000B21F00701AC467A
:1003E000ACE8C009ACE8C009ACE8C009ACE8C00999
:1003F0008D46704710B50446AFF300802046BDE837
:100400001040FFF70ABF0000004870473801002085
:1004100001491820ABBEFEE726000200704700002D
:10042000014800F089B9000048000020464910B595
:100430004A6822F440324A604A6843681A434A6074
:1004400001684A6822F480724A6001684A68036958
:1004500042EA03224A6001684A6822F040724A6018
:1004600001684A6883681A434A6001688A6822F40E
:1004700000628A6001688A68C3681A438A60816A78
:100480006FF07062D14201688A6822F070628A60FF
:1004900001688A680CD0836A1A438A6001688A6896
:1004A00022F040528A6001688A68C36A1A4301E0F8
:1004B00022F040528A6001688A6822F002028A6053
:1004C00001688A68037E42EA43028A6090F820103D
:1004D000002901684A680FD042F400624A6001684E
:1004E0004A6822F460424A6001684A68174C436ACD
:1004F00004EB43331A4301E022F400624A600168CE
:10050000CA6A22F47002CA620168CA6A838B104CFC
:1005100004EB03531A43CA6201688A6822F400722A
:100520008A6001688A6890F8303042EA43228A6023
:1005300001688A6822F480628A6001688A6840697A
:1005400042EA8020886010BD0023014000E0FFFFE8
:100550000000F0FFFEE70000014800F003BA0000D1
:100560009000002001681823CAB2103AB2FBF3F2DF
:10057000054B6FF30901032A9B5CC36500D9091D74
:1005800081650846704700007E24000810B50146CA
:1005900000208B698A6A4FF0C07453B1B3F5005FD5
:1005A00015D072B1012A0CD0022A0AD0032A09D12F
:1005B00004E01AB1012A06D0022A03D1C96AC9018E
:1005C00000D5012010BDC96AA142FAD010BD002A91
:1005D000F7D0012AF2D0022AF3D0032AF3D010BDBB
:1005E000704772B6FEE7704778B50024009490F823
:1005F0003C20012A19D0012280F83C200A680723F8
:100600000568092A13D9EE680A3A02EB42029340C0
:100610009E43EE600B788A680A3B03EB43039A40E3
:100620000368DD682A43DA6010E0022078BD2E6995
:1006300002EB420293409E432E610B788A6803EBE3
:1006400043039A4003681D692A431A614A681F23BD
:10065000072A13D205686E6B521E02EB820293408A
:100660009E436E630B790A885B1E92B203EB830391
:100670009A4003685D6B2A435A6327E005680D2A98
:1006800012D22E6BD21F02EB820293409E432E6346
:100690000B790A88DB1F92B203EB83039A4003684D
:1006A0001D6B2A431A6311E0EE6A0D3A02EB8202D7
:1006B00093409E43EE620B790A880D3B92B203EBA6
:1006C00083039A400368DD6A2A43DA62164B0568A1
:1006D000144A9D4206D10D68122D03D1556845F488
:1006E0008005556005689D4218D10B68102B01D01C
:1006F000112B13D1536843F4000353600968102988
:100700000CD10A490A4A0968B1FBF2F101EB8101F7
:10071000490000E0491E00910029FBD180F83C40CF
:10072000002078BD0023014000200140400000204F
:1007300040420F007047704770B504460068066875
:10074000456816F0020F05F020012AD049B3216C4C
:10075000C90603D4216C41F400712164816811F051
:10076000405F17D1217EA9B9C16A11F4700F02D080
:10077000816849050ED4416821F020014160206C58
:1007800020F480702064206CC00403D4206C40F0FE
:10079000010020642046FFF7CDFF21686FF01200B2
:1007A000086016F0040F05F0800132D089B3206C88
:1007B000C00603D4206C40F4005020642068816897
:1007C00011F4401F1ED1816B11F4401F02D08168CB
:1007D000490517D44168490514D4816811F0405F78
:1007E00010D1217E71B9416821F080014160206CF7
:1007F00020F480502064206CC00503D4206C40F0AD
:10080000010020642046FFF7EEFE21686FF00C0027
:10081000086016F0010F05F040010FD071B120689B
:100820000068C0070AD0206C40F480302064204665
:1008300000F043F821686FF00100086016F0200F07
:1008400005F080610ED000290CD0606C40F00200F1
:10085000606420686FF0200505602046FFF76BFF9D
:100860002068056070BD70B504004FF0000503D02E
:10087000206C002610B107E0012070BD204600F07A
:100880001DF8666484F83C60206CC00610D4206CAF
:1008900020F4885040F0020020642046FFF7C6FD97
:1008A0006664206C20F0020040F00100206400E04B
:1008B000012584F83C60284670BD704770B586B04D
:1008C000064614216846FFF746FD214930688842F4
:1008D0003BD120480025016841F480710160006827
:1008E00000F4807005901B481438016841F0040141
:1008F00001600068694600F0040005901020009037
:100900000320CDE90105144800F078F9144C134890
:10091000C4E900050015A560C4E90350400060610A
:100920008000C4E9060525622046656200F0EAF809
:1009300008B1FFF756FEB463002211461220A663E9
:1009400000F0C8FA122000F0B7FA06B070BD00003F
:100950000020014044380240000802401064024078
:10096000900000202DE9F84304464FF00009CDF82F
:10097000009063484FF41651A56D0068B0FBF1F785
:100980002E6894F85C10082000FA01F131420FD073
:1009900021680A6852070BD50A6822F004020A602F
:1009A00094F85C108840A860606D40F001006065BC
:1009B00094F85C104FF0010808FA01F0304208D0BA
:1009C00021684969090604D5A860606D40F00200FD
:1009D000606594F85C1004208840304208D021689B
:1009E0000968890704D5A860606D40F0040060655F
:1009F00094F85C1010208840304218D021680968B3
:100A0000090714D5A86020680168490304D5006867
:100A1000000308D5A16C07E00168C90503D401688B
:100A200021F008010160216C09B12046884794F843
:100A30005C1020208840304231D021680968C90606
:100A40002DD5A86094F8350005282068016806D0E7
:100A5000490347D5006800031DD4616C1CE021F0F8
:100A6000160101602068416921F080014161206C1C
:100A700008B9A06C20B12068016821F0080101606C
:100A800094F85C103F208840A86084F8358084F892
:100A90003490216D1FE0E16B09B120468847606DFD
:100AA00000282BD0606DC00714D0052084F83500D5
:100AB0002068016821F0010101600098401C00904D
:100AC000B84203D820680068C007F6D184F83580A2
:100AD00084F83490E16C002910D001B02046BDE8C4
:100AE000F04308470168C905D5D4016821F0100119
:100AF000016084F8358084F83490CCE7BDE8F88351
:100B0000400000202DE9F041044600F075F906464A
:100B10005CB1022084F83500002584F83450206848
:100B2000016821F0010101600DE00120BDE8F081C4
:100B300000F062F9801B052805D92020606503209C
:100B400084F83500F2E720680068C007F0D1226819
:100B5000116820480140D4E901031843D4E9033661
:100B60003343184363691843A3691843E36918437F
:100B7000236A18430843616A042903D1D4E90B139B
:100B800019430843106020684069666A20F0070135
:100B900030460E43012704280CD1A06A0643E06AC0
:100BA00040B12046FFF7F2FC20B14020606584F898
:100BB0003570BAE7206846612046FFF7D3FC94F809
:100BC0005C203F2191408160656584F8357000208C
:100BD000ACE700003F8010F070B5044600F00CF95F
:100BE0000546601C02D004480078044400F004F973
:100BF000401BA042FAD370BD340000202DE9F84F0D
:100C0000DFF8BCA10022012503264FF00F090AF1ED
:100C1000040BAAF1040E00BF0B6805FA02F423408E
:100C2000A34270D10F7907F00307012F01D0022FE3
:100C300016D187684FEA420806FA08FC27EA0C0733
:100C4000D1F80CC00CFA08FC4CEA070CC0F808C03C
:100C50004768A7430C79C4F3001494403C434460B4
:100C60000C79E443A4070AD0C4684FEA420C06FAA0
:100C70000CF7BC438F6807FA0CF72743C7600C7961
:100C800004F00304022C12D1D40800EB840CDCF82D
:100C900020405707FF0E09FA07F824EA0804D1F8A4
:100CA000108008FA07F848EA0408CCF820800468A5
:100CB0004FEA420C06FA0CF7BC430F7907F0030722
:100CC00007FA0CF7274307604C6814F4403F70D0D4
:100CD0003C4C276847F480472760246822F00307CC
:100CE00004F480440094384C07EB040CDCF808480A
:100CF00097074FEA177809FA08F7BC43334FB84211
:100D000002D1002724E054E0314FB84201D101273D
:100D10001EE0304FB84201D1022719E02E4FB842F1
:100D200001D1032714E02D4FB84201D104270FE071
:100D30002B4FB84201D105270AE02A4FB84201D112
:100D4000062705E0284FB84201D1072700E0082711
:100D500007FA08F72743CCF80878DAF80040574636
:100D6000D1F804C09C435FEACC2C00D51C433C6006
:100D7000DBF800405F46D1F804C09C435FEA8C2C4E
:100D800000D51C433C60DEF800407746D1F804C033
:100D90009C435FEA8C3C00D51C433C60084F083FF5
:100DA0003C68D1F804C09C435FEACC3C00D51C43AE
:100DB0003C60521C102AFFF42FAFBDE8F88F0000F2
:100DC000083C01404438024000300140000002402D
:100DD0000004024000080240000C024000100240E3
:100DE0000014024000180240001C02400AB1816158
:100DF00070470904FBE70000014880687047000065
:100E000034000020024881680278114481607047F4
:100E1000340000200B4810B5016841F400710160F6
:100E2000016841F480610160016841F480710160F2
:100E3000032000F06FF80F2000F006F800F024F80F
:100E4000002010BD003C024070B50D4D04464FF42B
:100E50007A712878B1FBF0F00A490968B1FBF0F02B
:100E600000F0ECFA48B9102C07D200222146501E9F
:100E700000F030F800206C6070BD012070BD0000F3
:100E800034000020400000200A4808B5016841F401
:100E900080410160006800F4804000900548001F18
:100EA000016841F080510160006800F080500090BE
:100EB00008BD000044380240002809DB00F01F0292
:100EC000012191404009800000F1E020C0F80011AC
:100ED00070470000F0B40E4B1B680C46C3F30223AE
:100EE000C3F10705042D00D90425191D072901D2D6
:100EF000002300E0DB1E012606FA05F1491E214011
:100F000099409E40761E16403143F0BC01F060BA15
:100F10000CED00E0064900F0070208684FF6FF03F9
:100F2000184040EA0220034A10430860704700005E
:100F30000CED00E00000FA052DE9F0470E46050033
:100F400065D0DFF81481D8F80000F7B200F0070090
:100F5000B04207D288F80070D8F8000000F007000F
:100F6000B04254D128683D4C810712D5400703D5C3
:100F7000206840F4E05020602878000703D52068FE
:100F800040F4604020602068A96820F0F000084329
:100F900020602878C0072DD03049686808390128BA
:100FA00012D0022813D0032811D00968890700291C
:100FB0002DDA216821F0030101432160FFF71CFFB6
:100FC000814641F2883A0EE009688903EFE7096833
:100FD0008901ECE7FFF710FFA0EB0901514502D9A9
:100FE0000320BDE8F0872068696800F00C00B0EBD2
:100FF000810FEFD1D8F80010404601F00701B1424F
:1010000007D90770006800F00700B04201D0012046
:10101000E7E72878400705D52068E96820F4E05024
:10102000084320602878000706D52068296920F445
:10103000604040EAC100206000F018F82168084ACA
:10104000C1F30311515CC8400649086006480068B6
:10105000FFF7FAFE0020C4E7003C024008380240D7
:10106000862400084000002038000020154810B5F4
:10107000006810F00C02144813D01449042A0FD051
:10108000082A0ED10F4C241F2268236802F03F0269
:101090005B0207D52068C0F38810A0FB010106E0C1
:1010A000084610BD2168C1F38811A1FB000100238F
:1010B000FFF7DAF82168C1F30141491C4900B0FB90
:1010C000F1F010BD083802400024F40040787D01A2
:1010D0002DE9F84F04006ED02078DFF84C93C0075C
:1010E000A9F104054AD009F104000168C1F38101A6
:1010F000012908D00068C0F3810002280AD1D9F87C
:101100000000400206D52868800337D560680028B3
:10111000E1D033E06068B0F5803F10D0B0F5A02F8B
:10112000286810D020F480302860286820F48020BF
:1011300028606068A8B1FFF75FFE06460DE02868EA
:1011400040F48030F4E740F480202860F7E700BFE7
:10115000FFF752FE801B642873D828688003F7D5F8
:101160000CE0FFF749FE064605E000BFFFF744FE2E
:10117000801B6428F0D828688003F7D42078DFF833
:10118000AC8280074FF0000A3ED5A748001D0168D9
:1011900011F00C0F08D00068C0F3810002280BD1B9
:1011A000D9F80000400207D42868800716D5E06807
:1011B000012800D112E033E1E068B8B10120C8F89D
:1011C0000000FFF719FE064605E000BFFFF714FE1A
:1011D000801B0228C0D828688007F7D528682169B5
:1011E00020F0F80040EAC10028600DE0C8F800A037
:1011F000FFF702FE064604E0FFF7FEFD801B022813
:101200001FD828688007F7D42078000722D5864F9A
:1012100087486169703771B101210160FFF7ECFD0A
:10122000064604E0FFF7E8FD801B022809D838686D
:101230008007F7D50EE0C0F800A0FFF7DDFD0646F9
:1012400005E082E0FFF7D8FD801B02287DD83868D2
:101250008007F7D42078400768D5DFF8CCB10027A5
:101260000BF13C0BDBF80000C0000BD4DBF80010E6
:1012700041F08051CBF80010DBF80000012700F0AE
:10128000805000906B4E3068C00510D4306840F438
:1012900080703060FFF7B0FD009005E0FFF7ACFD17
:1012A0000099401A022850D83068C005F6D55E4E25
:1012B000A0686C3601280FD00528306810D020F0C7
:1012C00001003060306820F004003060A068B8B1E0
:1012D000FFF792FD00900FE0306840F00100F4E766
:1012E00040F004003060F7E7FFF786FD0099411AEF
:1012F00041F28830814266D830688007F4D50EE02C
:10130000FFF77AFD009007E0FFF776FD0099411A9C
:1013100041F28830814256D830688007F4D42FB12A
:10132000DBF8001021F08051CBF80010A069C8B3A1
:101330003D49091D0968C1F3810102294AD00228EB
:10134000504607D0C8F8600000E03CE0FFF754FDCD
:1013500004463BE04746C8F86000FFF74DFD0646EF
:1013600005E000BFFFF748FD801B02282BD8286846
:101370008001F7D4D4E907010843A16A2E4A49083D
:1013800002EB0141626A41EA8211084394F82C1091
:1013900040EA0161C9F8001001203866FFF72CFD12
:1013A000044606E03EE000BFFFF726FD001B0228D2
:1013B00009D828688001F7D534E000BFFFF71CFD8D
:1013C000001B022802D90320BDE8F88F286880019D
:1013D000F4D427E00128F7D0D9F80000E26900F43E
:1013E000800191421CD1226A00F03F01914217D145
:1013F00047F6C071626A0140B1EB821F10D1A26A48
:101400004FF0FF3300F4403103EB5202B1EB024FD7
:1014100006D194F82C1000F07060B0EB016F01D091
:101420000120D1E70020CFE7043802400000474206
:10143000800E4742007000400000FFFF10B5401EC4
:10144000B0F1807F01D3012010BD4FF0E024606136
:101450000F21601700F0BCFF0020A0610720206171
:10146000002010BD10B590F83C20012A22D00122A6
:1014700080F83C20CA688C6822F4407222434C6891
:1014800022F4806222430C6822F4006222430C6939
:1014900022F4805222434C6922F400522243C9694B
:1014A000002322F480420A4301684A6480F83C30F9
:1014B000002010BD022010BD70B590F83C20012A1C
:1014C00032D0012480F83C40022280F83D2003689D
:1014D0005A689D6822F070060A6832435A60134BBE
:1014E00002689A4214D0B2F1804F11D0104B9A4248
:1014F0000ED0104B9A420BD00F4B9A4208D00F4B94
:101500009A4205D00E4B9A4202D00E4B9A4204D119
:10151000496825F080031943916080F83D4000211F
:1015200080F83C10084670BD022070BD00000140EC
:101530000004004000080040000C0040000401408E
:10154000004001400018004010B5040003D094F89A
:101550003D0010B107E0012010BD002084F83C00E0
:10156000204600F01FF8022084F83D00211D20686D
:1015700000F0C4FD012084F8460084F83E0084F8A1
:101580003F0084F8400084F8410084F8420084F869
:10159000430084F8440084F8450084F83D000020AE
:1015A00010BD000008B500680649884208D1064809
:1015B000016841F001010160006800F00100009045
:1015C00008BD0000000001404438024070B50446E8
:1015D00090F83C000025012817D0012684F83C60D3
:1015E000022084F83D002068826822F0770222F40D
:1015F0007F4282600868502838D00DDC20284FD008
:1016000005DC90B3102811D14AE0022070BD3028CB
:1016100046D040280AD13BE060282FD070280DD05A
:10162000B0F5805F03D0B0F5005F12D0012584F8DB
:101630003D60002084F83C00284670BDCB68D1E9AD
:101640000121206800F0CBFD2068816841F077011E
:1016500009E0CB68D1E90121206800F0C0FD2068D5
:10166000816841F480418160E1E719E0CA68496816
:10167000206800F089FE5021206806E0CA684968A9
:10168000206800F092FE6021206800F0B2FDCEE7F5
:10169000CA684968206800F077FE40212068F4E7B6
:1016A000226801461046F0E710B586B004461421C2
:1016B0006846FEF750FE0E492068884216D10D4854
:1016C0000021026842F010020260006800F0100081
:1016D00005904FF4007000900220CDE90101012037
:1016E000CDE9031069460448FFF788FA06B010BD3B
:1016F00000000140303802400010024070B504463E
:1017000090F83C0000260D4601280FD0012084F8F7
:101710003C006AB1042A1DD0082A2FD00C2A3FD0E1
:101720000126002084F83C00304670BD022070BDC8
:10173000206800F067FD2068816941F0080181613F
:101740002068816921F004018161206881692A692A
:10175000114311E0206800F085FD2068816941F4A3
:10176000006181612068816921F480618161206864
:1017700081692A6941EA02218161D2E7206800F08B
:10178000A7FD2068C16941F00801C1612068C169F5
:1017900021F00401C1612068C1692A69114311E087
:1017A000206800F0C9FD2068C16941F40061C16191
:1017B0002068C16921F48061C1612068C1692A691A
:1017C00041EA0221C161ACE710B5040003D094F8EE
:1017D0003D0010B107E0012010BD002084F83C005E
:1017E000204600F01EF8022084F83D00211D2068EC
:1017F00000F084FC012084F8460084F83E0084F860
:101800003F0084F8400084F8410084F8420084F8E6
:10181000430084F8440084F8450084F83D0000202B
:1018200010BD704710B50446022249B104290ED0FC
:10183000082913D094F84100012816D0012010BDCA
:1018400094F83E000128F9D184F83E200FE094F886
:101850003F000128F2D184F83F2008E094F84000CE
:101860000128EBD184F8402001E084F841200122D6
:10187000206800F0A7FC16492068164A884201D06B
:10188000904203D1436C43F4004343642068884290
:1018900013D0B0F1804F10D00F4988420DD00F49BE
:1018A00088420AD00E49884207D0904205D00D499F
:1018B000884202D00C49884204D1816801F00701B6
:1018C000062903D0016841F001010160002010BD2C
:1018D00000000140000401400004004000080040F6
:1018E000000C00400040014000180040FEE70000EE
:1018F00070B50646002440F23F11204600F00EF974
:1019000000F048FA4FF49635304600F019FA641C9E
:10191000AC42F9D3BDE8704001221103014800F048
:101920003FB80000000802401A4810B5016886B0B0
:1019300041F004010160016801F0040105910168B2
:1019400041F0020101600068694600F00200059064
:10195000012001900290000300900F48FFF74EF91C
:1019600020200E4C009069462046FFF747F90022E0
:1019700020212046FFF73AFA002141F28830491C25
:101980008142FCD3012220212046FFF72FFA06B026
:1019900010BD000030380240000802400004024040
:1019A000FFF724BA203AD2B2034B02EB420203EB18
:1019B000021200F01BB80000962400082DE9F04147
:1019C000002500EB40000E462C46C70007E0F8B2A9
:1019D0002146FFF7E7FF10346D1CA4B2761C327865
:1019E000002A01D0142DF2D3BDE8F0812DE9F05F7B
:1019F000A1F23F11C1F1000A9146002604461FFAE8
:101A00008AF100F08BF80127DFF84C804FF4805BFF
:101A100000F0C0F95FF0000539F8160007FA05F18B
:101A20000842404601D1408800E0008800F088F973
:101A30006D1C102DF0D3012259460848FFF7B0FF66
:101A4000641CE4B21FFA8AF1204600F067F8761CA5
:101A5000182EDDD3BDE8F09F4400002000080240AE
:101A600070B5274886B0016841F004010160016843
:101A700001F004010591016841F002010160016873
:101A800001F002010591016841F00801016001685F
:101A900001F008010591016841F040010160006812
:101AA000184E00F0400005900120C4030190029000
:101AB000694600943046FFF7A1F8A5116946304603
:101AC0000095FFF79BF88020009069463046FFF7AD
:101AD00095F8FF20009069460B48FFF78FF8012228
:101AE00080213046FFF782F9012229463046FFF770
:101AF0007DF9012221463046FFF778F906B070BD26
:101B000030380240000C02400018024001B5BDF818
:101B100000000149488008BD4400002010B50C4673
:101B20000146202000F044F92146BDE81040212064
:101B300000F03EB901B5BDF800000149088008BDBC
:101B40004400002010B5FFF7EFFEFFF789FF0A20E1
:101B500000F04EFC0121002000F02AF94FF48071C2
:101B6000012000F025F94FF4E061022000F020F997
:101B700041F23001032000F01BF90021042000F0A5
:101B800017F940F20221082000F012F90021092083
:101B900000F00EF900210A2000F00AF900210C20C3
:101BA00000F006F900210D2000F002F900210F20BD
:101BB00000F0FEF80021102000F0FAF800211120BA
:101BC00000F0F6F80021122000F0F2F800211320B6
:101BD00000F0EEF80A2000F00BFC41F2B07110208A
:101BE00000F0E6F840F23711112000F0E1F80A2089
:101BF00000F0FEFB40F23911122000F0D9F80A2063
:101C000000F0F6FB4FF4E851132000F0D1F8132157
:101C1000292000F0CDF80A2000F0EAFB0021202066
:101C200000F0C6F80021212000F0C2F80621302083
:101C300000F0BEF840F20111312000F0B9F80321A4
:101C4000322000F0B5F84FF48371352000F0B0F881
:101C500040F60231362000F0ABF840F20231372076
:101C600000F0A6F840F20771382000F0A1F8072133
:101C7000392000F09DF84FF4C0613C2000F098F846
:101C800040F20B213D2000F093F80021502000F09D
:101C90008FF8EF21512000F08BF80021522000F046
:101CA00087F840F23F11532000F082F84FF42741AB
:101CB000602000F07DF80121612000F079F800211A
:101CC0006A2000F075F80021802000F071F80021F2
:101CD000812000F06DF80021822000F069F80021D9
:101CE000832000F065F80021842000F061F80021D5
:101CF000852000F05DF81021902000F059F80021B7
:101D0000922000F055F80321932000F051F84FF491
:101D10008871952000F04CF80021972000F048F8D9
:101D20000021982000F044F841F21801032000F04F
:101D30003FF8BDE8104040F27311072000F038B8BA
:101D40002DE9F041114E0446012280213046FFF773
:101D50004DF80F4D200A28604FF400470022394605
:101D60003046FFF743F8012239463046FFF73EF888
:101D70002C60002239463046FFF738F839463046A5
:101D8000BDE8F0410122FFF731B80000000C02402D
:101D90001418024010B5222000F046F8BDE81040AB
:101DA00000224FF480510148FFF7FABD00080240BD
:101DB0002DE9F0470C4600F037F8DFF860804FF46B
:101DC0008056002231464046FFF7EAFDDFF850908A
:101DD000012280214846FFF709F8124D200A2860A9
:101DE000F700002239464846FFF700F8012239463D
:101DF0004846FEF7FBFF2C60002239464846FEF7B6
:101E0000F5FF012239464846FEF7F0FF31464046CD
:101E1000BDE8F0470122FFF7C3BD00000008024003
:101E2000000C0240141802402DE9F047DFF86880EA
:101E300007464FF48055002229464046FFF7B0FD83
:101E4000DFF85890002280214846FEF7CFFF144C5F
:101E5000002020600246EE0031464846FEF7C6FFED
:101E6000012231464846FEF7C1FF27600022314675
:101E70004846FEF7BBFF012231464846FEF7B6FF53
:101E8000012280214846FEF7B1FF29464046BDE8C1
:101E9000F0470122FFF784BD00080240000C024019
:101EA000141802407FB50024144800940194029451
:101EB00011490394C0E9001484600125046105768A
:101EC00080F820400E49C0E90A14C561C46080F85A
:101ED00030404561FEF7C7FC08B1FEF782FB0E20DB
:101EE000CDE90005694602940448FEF77DFB002811
:101EF00001D0FEF776FB7FBD0020014048000020A6
:101F00000100000F094808B5016841F48001016033
:101F10000068002200F48000009011463820FEF78F
:101F2000D9FFBDE808403820FEF7C6BF3038024070
:101F3000114808B5016841F080010160016801F0B5
:101F400080010091016841F004010160016801F025
:101F500004010091016841F010010160016801F085
:101F600010010091016841F001010160006800F07A
:101F70000100009008BD00003038024010B596B056
:101F800000240F9410941194129413941C2108A807
:101F90001494FEF7E0F920216846FEF7DCF92948A1
:101FA000274901605321C0E9011440F6FF71C0E9DF
:101FB00003148021C0E90541FFF7C6FA08B1FEF716
:101FC00010FB4FF480500F900FA91E48FFF7FEFA48
:101FD00008B1FEF706FB1B48FFF7F6FB08B1FEF75A
:101FE00000FB139413A917481494FFF765FA08B17E
:101FF000FEF7F7FA6020CDE908040A940B940C94DC
:102000000D94002208A90F480E94FFF777FB08B142
:10201000FEF7E7FA00944FF40050CDE90440029433
:1020200001940394694607480794FFF71BFA08B127
:10203000FEF7D7FA0348FFF737FB16B010BD0000D4
:1020400000000140F0000020FEE7FEE77047FFF7C8
:1020500079BD7047FEF7D6BE30B593B030216846E3
:10206000FEF779F914210CA8FEF775F91D48002533
:10207000016841F080510160006800F080501190CB
:102080001948016841F4804101600068022400F4AD
:102090008040119001200090000401908001CDE962
:1020A0000640192008904FF4A870CDE909040420D7
:1020B0000B906846FFF70CF808B172B6FEE70CA962
:1020C0000F2081E831004FF4A0500F9010900521AF
:1020D0000CA8FEF731FF002801D072B6FEE713B05E
:1020E00030BD0000403802400070004002480168E6
:1020F00041F470010160704788ED00E0F0B50268BE
:10210000254C264D264E274F274B4FF0804CA042A2
:1021100009D0604507D0A84205D0B04203D0B842EC
:1021200001D0984204D122F0700E4A6842EA0E02B1
:10213000A0421BD0604519D0A84217D0B04215D09C
:10214000B84213D0984211D0184DA8420ED0184D65
:10215000A8420BD0174DA84208D0174DA84205D071
:10216000164DA84202D0164DA84203D122F4407564
:10217000CA682A434D6922F080022A4302608A68B5
:10218000C2620A688262A04201D0984201D1096904
:10219000016301214161F0BD0000014000040040E5
:1021A00000080040000C00400004014000400140D5
:1021B000004401400048014000180040001C00405D
:1021C0000020004010B501F01F030121046A99406E
:1021D0008C430462016A9A401143016210BD10B53C
:1021E000846842EA032224F47F440A432243826043
:1021F00010BD826822F070020A4342F0070181603C
:1022000070470000F0B5026A22F001020262036A20
:1022100042688469124E24F073050C682C4323F045
:1022200002058B682B430D4DA84201D0B04205D169
:1022300023F00807CB683B4323F00403A84201D0F6
:10224000B04205D14D6922F4407215438A692A4390
:1022500042608461496841630362F0BD000001404F
:1022600000040140F0B5026A22F010020262026A24
:10227000436884690D6824F4E64444EA05248D68C3
:1022800022F0200242EA05120F4D104EA84201D062
:10229000B04206D1CF6822F0800242EA071222F053
:1022A0004002A84201D0B04207D14D6923F44063F7
:1022B00043EA85038D6943EA850343608461496885
:1022C00081630262F0BD0000000001400004014093
:1022D000F0B5026A22F480720262026A4368C4693D
:1022E00022F4007224F073050C68124E2C438D68A2
:1022F00042EA05220E4DA84201D0B04206D1CF6875
:1023000022F4006242EA072222F48062A84201D04D
:10231000B04207D14D6923F4405343EA05138D6958
:1023200043EA05134360C4614968C1630262F0BDBA
:10233000000001400004014030B5026A22F48052DE
:102340000262046A4268C3690D6823F4E64343EA03
:1023500005238D6824F4005444EA0534084DA8424E
:1023600002D0084DA84204D14D6922F4804242EACD
:1023700085124260C36149680164046230BD000097
:10238000000001400004014010B5036A046A24F013
:1023900001040462846924F0F00444EA021423F086
:1023A0000A020A438461026210BD10B5036A23F079
:1023B000100303628369046A23F4704343EA023220
:1023C00024F0A00343EA01118261016210BDFEE71F
:1023D0000907090E002804DB00F1E02080F8001452
:1023E000704700F00F0000F1E02080F8141D7047E6
:1023F00001B581B00449019848430090002801D0FC
:10240000401EFAE70CBD0000A0860100FEF702FDA9
:10241000FFF722FEFFF78CFDFFF774FDFFF742FD8B
:10242000FFF7ACFDFFF713FE4FF47840FFF760FABB
:102430001F20FFF76BFB4FF6FF70FFF77BFB0A498E
:102440000020FFF7BBFA00210848FFF7EBF9064E22
:10245000074D0B360024305D68633220FEF7BCFB6D
:10246000641C282CF7D3F5E700000020F0000020C2
:10247000000001404FF04070E1EE100A7047000686
:1024800010160006101600000000000000000102F7
:102490000304060708090000000000000000000017
:1024A000000000000000000000000000000000002C
:1024B000000000000000000000000000000000001C
:1024C0000000000000000000800180018001800108
:1024D00080018001800180018001800180018001F4
:1024E0008001000000008001800100000000000069
:1024F00000000000000000000000CC00CC00CC0078
:10250000CC00CC00CC000000000000000000000067
:1025100000000000000000000000000000000000BB
:1025200000000000000000000000000000000000AB
:102530000000600C600C600C30063006FE1FFE1FB1
:10254000300638071803FE1FFE1F180318038C01FE
:102550008C018C01000000008000E003F80F9C0E4D
:102560008C1C8C188C009800F801E007800E801CF1
:102570008C188C189C18B80CF00FE00380008000B9
:102580000000000000000000000000000E181B0CFE
:10259000110C11061106110311039B018E01C038A5
:1025A000C06C60446044304430441844186C0C38AB
:1025B0000000000000000000E001F00338071806EA
:1025C00018063003F001F000F8009C310E33061EAF
:1025D000061C061C063FFC73F021000000000000F2
:1025E000000000000000000000000C000C000C00C7
:1025F0000C000C000C0000000000000000000000B7
:1026000000000000000000000000000000000000CA
:102610000000000000000000000200038001C00074
:10262000C00060006000300030003000300030003A
:1026300030003000300060006000C000C000800149
:10264000000300020000000020006000C0008001C4
:1026500080010003000300060006000600060006D5
:102660000006000600060003000380018001C00090
:1026700060002000000000000000000000000000DA
:102680000000C000C000D806F807E001300338079A
:10269000000000000000000000000000000000003A
:1026A000000000000000000000000000000000002A
:1026B000000080018001800180018001FC3FFC3F1F
:1026C0008001800180018001800100000000000085
:1026D00000000000000000000000000000000000FA
:1026E00000000000000000000000000000000000EA
:1026F00000000000000000008001800100010001D6
:102700008000000000000000000000000000000049
:102710000000000000000000000000000000E007D2
:10272000E0070000000000000000000000000000C2
:102730000000000000000000000000000000000099
:102740000000000000000000000000000000000089
:102750000000000000000000C000C00000000000F9
:102760000000000000000000000C000C0006000645
:102770000006000300030003800380018001800144
:10278000C000C000C0006000600000000000000049
:102790000000000000000000E003F007380E180CF5
:1027A0000C180C180C180C180C180C180C180C1809
:1027B0000C18180C380EF007E003000000000000B1
:1027C000000000000000000000018001C001F001D5
:1027D00098018801800180018001800180018001D1
:1027E0008001800180018001800100000000000064
:1027F0000000000000000000E003F80F180C0C18A7
:102800000C1800180018000C000600038001C0001E
:10281000600030001800FC1FFC1F000000000000DA
:102820000000000000000000E001F807180E0C0C8A
:102830000C0C000C0006C003C007000C00180018A8
:102840000C180C18180CF807E0030000000000003A
:102850000000000000000000000C000E000F000F40
:10286000800DC00C600C600C300C180C0C0CFC3F84
:10287000FC3F000C000C000C000C000000000000ED
:102880000000000000000000F80FF80F180018000A
:102890000C00EC03FC071C0E001C001800180018AC
:1028A0000C181C0C180EF807E003000000000000D4
:1028B0000000000000000000C007F00F381C1818CE
:1028C00018000C00CC03EC0F3C0E1C1C0C180C1850
:1028D0000C18181C380EF007E00300000000000080
:1028E0000000000000000000FC1FFC1F000C0006A0
:1028F0000006000380038001C001C000E00060000A
:102900006000700030003000300000000000000067
:102910000000000000000000E003F007380E180C73
:10292000180C180C3806F007F007180C0C180C18C7
:102930000C180C18380CF80FE00300000000000021
:102940000000000000000000E003F007380E1C0C3F
:102950000C180C180C181C1C381EF81BE019001859
:10296000000C000C1C0EF807F00100000000000035
:102970000000000000000000000000000000000057
:102980000000800180010000000000000000000045
:102990000000000000008001800100000000000035
:1029A0000000000000000000000000000000000027
:1029B0000000800180010000000000000000000015
:1029C0000000000000008001800100010001800083
:1029D00000000000000000000000000000000000F7
:1029E0000000000000000010001C800FE003F80051
:1029F0001800F800E003800F001C00100000000029
:102A000000000000000000000000000000000000C6
:102A1000000000000000F81F000000000000F81F88
:102A200000000000000000000000000000000000A6
:102A30000000000000000000000000000000000096
:102A400000000000000008003800F001C007001F6F
:102A50000018001FC007F001380008000000000047
:102A60000000000000000000E003F80F180C0C1834
:102A70000C180018000C000600038001C000C00004
:102A8000C00000000000C000C00000000000000006
:102A900000000000000000000000E00718180420FB
:102AA000C229224A11440944094409440922111344
:102AB000E20C024004201818E007000000000000AB
:102AC000000000000000000080038003C006C00674
:102AD000C006600C600C301830183018F83FF83F12
:102AE0001C700C600C6006C006C0000000000000F6
:102AF0000000000000000000FC03FC0F0C0C0C1890
:102B00000C180C180C0CFC07FC0F0C180C300C30BB
:102B10000C300C300C18FC1FFC07000000000000FB
:102B20000000000000000000C007F01F38381C3013
:102B30000C7006600600060006000600060006008F
:102B400006600C701C30F01FE00700000000000061
:102B50000000000000000000FE03FE0F060E061835
:102B600006180630063006300630063006300630CD
:102B700006180618060EFE0FFE03000000000000F7
:102B80000000000000000000FC3FFC3F0C000C00B7
:102B90000C000C000C00FC1FFC1F0C000C000C00B7
:102BA0000C000C000C00FC3FFC3F0000000000008B
:102BB0000000000000000000F83FF83F1800180077
:102BC000180018001800F81FF81F18001800180047
:102BD000180018001800180018000000000000007D
:102BE0000000000000000000E00FF83F3C780E609D
:102BF00006E007C00300030003FE03FE03C007C096
:102C000006C00EC03CF0F83FE00F000000000000DE
:102C100000000000000000000C300C300C300C30C4
:102C20000C300C300C30FC3FFC3F0C300C300C30C6
:102C30000C300C300C300C300C3000000000000068
:102C40000000000000000000800180018001800180
:102C5000800180018001800180018001800180016C
:102C600080018001800180018001000000000000DF
:102C7000000000000000000000060006000600063C
:102C80000006000600060006000600060006000614
:102C9000180618063807F003E001000000000000E5
:102CA000000000000000000006300618060C0606B2
:102CB00006038601C60066007600DE008E0106036C
:102CC0000606060C0618063006600000000000002C
:102CD0000000000000000000180018001800180094
:102CE0001800180018001800180018001800180024
:102CF000180018001800F81FF81F0000000000005E
:102D000000000000000000000EE01EF01EF01EF0AB
:102D100036D836D836D836D866CC66CC66CCC6C659
:102D2000C6C6C6C6C6C686C386C30000000000006D
:102D300000000000000000000C301C303C303C3033
:102D40006C306C30CC30CC308C310C330C330C36D6
:102D50000C360C3C0C3C0C380C3000000000000021
:102D60000000000000000000E007F81F1C380E7093
:102D7000066003C003C003C003C003C003C003C098
:102D800006600E701C38F81FE0070000000000000D
:102D90000000000000000000FC0FFC1F0C380C308D
:102DA0000C300C300C300C18FC1FFC070C000C0015
:102DB0000C000C000C000C000C00000000000000D7
:102DC0000000000000000000E007F81F1C380E7033
:102DD000066003E003C003C003C003C003C007E0F4
:102DE00006630E3F1C3CF83FE0F700C00000000007
:102DF0000000000000000000FE0FFE1F0638063035
:102E0000063006300638FE1FFE0706030606060CCF
:102E100006180618063006300660000000000000A4
:102E20000000000000000000E003F80F1C0C0C186C
:102E30000C180C001C00F803E00F001E00380630D0
:102E400006300E301C1CF80FE007000000000000E8
:102E50000000000000000000FE7FFE7F8001800176
:102E6000800180018001800180018001800180015A
:102E700080018001800180018001000000000000CD
:102E800000000000000000000C300C300C300C3052
:102E90000C300C300C300C300C300C300C300C3052
:102EA0000C300C301818F81FE0070000000000007C
:102EB000000000000000000003600630063006300D
:102EC0000C180C180C18180C180C380E300630069C
:102ED000700760036003C001C00100000000000033
:102EE00000000000000000000360C361C361C36113
:102EF0006633663366336633663366336C1B6C1B2E
:102F00006C1B2C1A3C1E380E380E0000000000000E
:102F100000000000000000000FE00C7018303018B6
:102F2000700C600EC00780038003C003E006700CC5
:102F3000301C18180C300E6007E000000000000084
:102F4000000000000000000003C006600C301C38C8
:102F50003818300C6006E007C00380018001800152
:102F600080018001800180018001000000000000DC
:102F70000000000000000000FC7FFC7F00600030CB
:102F80000018000C000600038001C0006000300043
:102F900018000C000600FE7FFE7F0000000000000D
:102FA0000000000000000000E003E003600060009B
:102FB0006000600060006000600060006000600011
:102FC0006000600060006000600060006000600001
:102FD000E003E0030000000030003000600060000B
:102FE0006000C000C000C000C001800180018001FD
:102FF00000030003000300060006000000000000BC
:103000000000000000000000E003E00300030003F4
:103010000003000300030003000300030003000398
:103020000003000300030003000300030003000388
:10303000E003E003000000000000C001C0016003E5
:103040006003600330063006180C180C0000000006
:103050000000000000000000000000000000000070
:103060000000000000000000000000000000000060
:103070000000000000000000000000000000000050
:103080000000000000000000FFFFFFFF0000000044
:1030900000000000000000000C000C000C000C0000
:1030A0000C000C0000000000000000000000000008
:1030B0000000000000000000000000000000000010
:1030C0000000000000000000000000000000000000
:1030D0000000F003F8071C0C0C0C000FF00FF80CAC
:1030E0000C0C0C0C1C0FF80FF01800000000000076
:1030F0000000000000000000180018001800180070
:103100001800D803F80F380C1818181818181818C1
:1031100018181818380CF80FD80300000000000029
:10312000000000000000000000000000000000009F
:103130000000C003F007300E180C1800180018002B
:103140001800180C300EF007C0030000000000004B
:10315000000000000000000000180018001800180F
:103160000018C01BF01F301C181818181818181851
:1031700018181818301CF01FC01B000000000000B9
:10318000000000000000000000000000000000003F
:103190000000C003F00F300C1818F81FF81F1800BB
:1031A00018003818301CF00FC007000000000000A5
:1031B0000000000000000000800FC00FC000C00031
:1031C000C000F007F007C000C000C000C000C00091
:1031D000C000C000C000C000C0000000000000002F
:1031E00000000000000000000000000000000000DF
:1031F0000000E00DF80F180E0C0C0C0C0C0C0C0C55
:103200000C0C0C0C180EF80FE00D000C0C0C1C062E
:10321000F807F0010000000018001800180018005E
:103220001800D807F80F381C18181818181818188C
:10323000181818181818181818180000000000009E
:103240000000000000000000C000C00000000000FE
:103250000000C000C000C000C000C000C000C0002E
:10326000C000C000C000C000C0000000000000009E
:103270000000000000000000C000C00000000000CE
:103280000000C000C000C000C000C000C000C000FE
:10329000C000C000C000C000C000C000C000C0002E
:1032A000F8007800000000000C000C000C000C007E
:1032B0000C000C0C0C060C038C01CC006C00FC0008
:1032C0009C018C030C030C060C0C00000000000099
:1032D0000000000000000000C000C000C000C000EE
:1032E000C000C000C000C000C000C000C000C000DE
:1032F000C000C000C000C000C0000000000000000E
:1033000000000000000000000000000000000000BD
:1033100000007C3CFF7EC7E383C183C183C183C1BE
:1033200083C183C183C183C183C100000000000049
:10333000000000000000000000000000000000008D
:1033400000009807F80F381C1818181818181818C3
:10335000181818181818181818180000000000007D
:10336000000000000000000000000000000000005D
:103370000000C003F00F300C18181818181818188F
:1033800018181818300CF00FC003000000000000DF
:10339000000000000000000000000000000000002D
:1033A0000000D803F80F380C181818181818181837
:1033B00018181818380CF80FD8031800180018003F
:1033C00018001800000000000000000000000000CD
:1033D0000000C01BF01F301C1818181818181818F7
:1033E00018181818301CF01FC01B001800180018FF
:1033F000001800180000000000000000000000009D
:103400000000B007F00370003000300030003000E2
:1034100030003000300030003000000000000000BC
:10342000000000000000000000000000000000009C
:103430000000E003F003380E180C3800F003C0075A
:10344000000C180C380EF007E0030000000000002C
:10345000000000000000000000008000C000C0006C
:10346000C000F007F007C000C000C000C000C000EE
:10347000C000C000C000C0078007000000000000BE
:10348000000000000000000000000000000000003C
:1034900000001818181818181818181818181818DC
:1034A00018181818381CF01FE01900000000000060
:1034B000000000000000000000000000000000000C
:1034C00000000C18180C180C180C300630063006CA
:1034D000600360036003C001C00100000000000041
:1034E00000000000000000000000000000000000DC
:1034F0000000C141C141C3616363636363633636E6
:10350000363636361C1C1C1C1C1C0000000000003B
:1035100000000000000000000000000000000000AB
:1035200000001C38381C300C600660036003600328
:1035300060036006300C381C1C38000000000000DE
:10354000000000000000000000000000000000007B
:1035500000001830301830187018600C600CE00C47
:10356000C006C00680038003800380018001C00183
:10357000F0007000000000000000000000000000EB
:103580000000FC1FFC1F000C000600038001C000AF
:10359000600030001800FC1FFC1F0000000000004D
:1035A000000000000000000000038001C000C00017
:1035B000C000C000C000C0006000600030006000BB
:1035C0004000C000C000C000C000C000C0008001BA
:1035D00000030000000000008001800180018001E4
:1035E00080018001800180018001800180018001D3
:1035F00080018001800180018001800180018001C3
:1036000080018001000000006000C000C001800156
:103610008001800180018001000300030006000397
:103620000001800180018001800180018001C000D3
:10363000600000000000000000000000000000002A
:10364000000000000000F010F81F080F000000004C
:10365000000000000000000000000000000000006A
:103660000000000000000000883600080000002074
:1036700048000000C4010008D036000848000020BF
:1036800050070000E0010008204144205465737495
:103690003A200001010202030406080A0E13192150
:1036A0002C3B506B8FBFFFFFBF8F6B503B2C211902
:1036B000130E0A08060403020201010001000000C3
:1036C00010000000000000000024F4000000FFFFD4
:040000050800018965
:00000001FF
