:020000040800F2
:10000000E006002041020008FB23000881200008D0
:10001000F923000855140008A92400080000000076
:10002000000000000000000000000000FF230008A6
:100030005714000800000000FD23000801240008F8
:100040005B0200085B0200085B0200085B0200081C
:100050005B0200085B0200085B0200085B0200080C
:100060005B0200085B0200085B0200085B020008FC
:100070005B0200085B0200085B0200085B020008EC
:100080005B0200085B0200085B0200085B020008DC
:100090005B0200085B0200085B0200085B020008CC
:1000A0005B0200085B0200085B0200085B020008BC
:1000B0005B0200085B0200085B0200085B020008AC
:1000C0005B0200085B0200085B0200085B0200089C
:1000D0005B0200085B0200085B0200085B0200088C
:1000E0005B0200085B0200085B0200085B0200087C
:1000F0005B0200085B0200085B0200085B0200086C
:100100005B0200085B0200085B0200085B0200085B
:100110005B0200085B0200085B0200085B0200084B
:100120005B0200085B0200085B0200085B0200083B
:100130005B0200085B0200085B0200085B0200082B
:100140005B0200085B0200085B0200085B0200081B
:100150005B0200085B0200085B0200085B0200080B
:100160005B0200085B0200085B0200085B020008FB
:100170005B0200085B0200085B0200080000000050
:100180005B0200085B02000800F002F800F049F88A
:100190000AA090E8000C82448344AAF10107DA45E2
:1001A00001D100F03EF8AFF2090EBAE80F0013F0EB
:1001B000010F18BFFB1A43F00103184784370000F2
:1001C000A4370000103A24BF78C878C1FAD8520783
:1001D00024BF30C830C144BF04680C6070470000C1
:1001E0000023002400250026103A28BF78C1FBD840
:1001F000520728BF30C148BF0B607047662902F024
:100200006382002070471FB502F059FA00F050FBDE
:1002100004000020002102F0C5F9E0601FBD10B508
:1002200010BD00F045FC1146FFF7EDFF02F066F946
:1002300000F063FC03B4FFF7F2FF03BC00F0A6FC80
:100240000948804709480047FEE7FEE7FEE7FEE76A
:10025000FEE7FEE7FEE7FEE7FEE7FEE704480549A6
:10026000054A064B704700009924000889010008E0
:10027000E0000020E0060020E0020020E002002074
:1002800053EA020C00F069802DE9F04B4FF00006B4
:10029000002B1FBFB3FA83F503FA05F424FA05F621
:1002A0005E4012BF1643B2FA82F502FA05F4C5F1B8
:1002B00020051EBF22FA05FC44EA0C04203556EA4C
:1002C000044C4FEA144418BF641C4FF000084FF070
:1002D0000009904271EB030C39D3002919BFB1FA20
:1002E00081F701FA07F6B0FA80F700FA07F6C7F1CE
:1002F00020071EBF20FA07FC46EA0C062037B6FB93
:10030000F4FCA7EB0507103F07F01F0BCBF120060D
:100310000CFA0BFB2CFA06F644BFB3460026202F3E
:10032000A4BF5E464FF0000B5BEA060C08BF4FF01F
:10033000010B19EB0B09ABFB027C48EB0608C01B59
:1003400006FB02CC0BFB03CC71EB0C01C1E70B46A7
:10035000024641464846BDE8F08B13B54FF0000019
:100360004FF00001AFF30080BDE81C407047000073
:100370000FB41CB5074B06AA7B446946009005984C
:1003800000F07DFA0020694600F08CFA1CBC5DF894
:1003900014FB0000290500002DE9F0410E4604463B
:1003A000002020622046E168884730B3252805D028
:1003B000D4E901219047206A401CF2E7E168204619
:1003C00000278847050018D0A5F14100192802D858
:1003D00020354FF400673246294620462760FFF754
:1003E0000DFF40B1012804D0F61D26F0070608369F
:1003F000D8E7361DD6E72846DAE7206ABDE8F0815F
:100400004FF0000200B5134694469646203922BFAD
:10041000A0E80C50A0E80C50B1F12001BFF4F7AFF8
:10042000090728BFA0E80C5048BF0CC05DF804EBDA
:10043000890028BF40F8042B08BF704748BF20F848
:10044000022B11F0804F18BF00F8012B7047704746
:100450007047704770472DE9FF4F0C461E464FF01E
:10046000FF378BB0D2E90001DDF860800A908A4640
:10047000C1F30A5505B93D46002108464FF000007A
:10048000BAF1000F00F4400005DA00EB80004FF4F1
:10049000400101EA50004FEA9059B9F1010F00DD27
:1004A000B9460A9850EA4A000ED044F61050A5F218
:1004B000FF3545432F14B8F1000F1ED07542291E99
:1004C0001EDDC9F100021CE0B8F1010F4FF0000081
:1004D00001D0302103E0F24305E02154401CB0423A
:1004E000FBDB30460022002121540B99C1F8088023
:1004F000C1E900200FB0BDE8F08FBD1B6D1CDEE729
:100500004A4600DA694206A800F05CFA06AB93E8B6
:10051000070003AB83E8070050460A9900F03DFB53
:100520008DE80700A0F500501F3800900398002DBB
:100530000ADD42F21F014A460844002303A9039042
:10054000684600F0A6FD09E0A0F500504A461F38B5
:10055000002303A90390684600F0B0FD8DE8070072
:100560000004000C03D04FF0FF30410800E01046BB
:10057000B8F1000F03D00022009215461EE0751E50
:1005800005D400F099F9303262556D1EF9D5B346A5
:100590000122084302D000227F1C04E0207830288A
:1005A00001D100227F1E002A099784D01DE0112D61
:1005B00007DA00F081F9303262556D1C50EA010211
:1005C000F5D1084302D00098C8B10EE00021681EA2
:1005D00005E0235C625C63542254401E491C814246
:1005E000F7DBAB46A81B401E0990002004F80B0067
:1005F0000B98099AC0F80880C0E9002B7AE7112609
:100600004FF0000857E72DE9F04F88460446D21D09
:1006100022F0070191B0D1E90001CDE90A0101F012
:1006200044FF02460B98C00F01D02D2007E0206840
:10063000810701D52B2002E0202101EAC000032A16
:10064000099001D0072A05DB03464146204600F009
:1006500079F90BE12078800601D5E06900E00620F9
:10066000B8F1650F814606D0B8F1660F18D0B8F121
:10067000670F70D131E00020B9F1110F009001DB5C
:10068000112301E009F101030AAA01A90CA8FFF74F
:10069000E2FEDDE90C70002609F10105834647E022
:1006A00001204B4600904FF000470AAA01A90CA870
:1006B000FFF7D1FEDDE90DB00C995D46002610B9BB
:1006C00009F101000D18B9EB050003D4C0F1FF36A4
:1006D00009F10105A5EB09002BE0B9F1010F01DAE1
:1006E0004FF001090020B9F1110F0090484601DDDB
:1006F000112300E003460AAA01A90CA8FFF7ABFEEC
:10070000DDE90C704D4600268346207800070AD4A8
:10071000AB4500DA5D4601A8012D04DD411911F851
:10072000011C302907D04F4502DA17F1040F04DA13
:10073000012082460FE06D1EEEE7002F02DCED1B6C
:100740003E4403E0781CA84200DD7D1CB81B00F18C
:10075000010A4FF000472078000703D4AA4501DBC7
:100760004FF0FF3A0021B7F1004F0DF143088DF82B
:10077000431024D002202B23002F01DA7F422D23A7
:100780000A21021EA0F1010000DC5FB197FBF1FC21
:1007900097FBF1F201FB1C7C17460CF1300C08F8BA
:1007A00001CDEEE7A8F1010003702188090501D50C
:1007B000452100E06521A0F1010800F8011C09981D
:1007C0000FA9A1EB0807FF1D00B10120411901EBA2
:1007D000EA70A1693844081A401EA0612078C0065A
:1007E00002D42046AFF30080099828B1D4E9012152
:1007F0009047206A401C20622078C00622D52046FF
:10080000AFF300801EE0002E04DBB34502DD01A83B
:10081000805D00E03020D4E901219047206A401C2F
:100820002062761CAAF101005FEA000A0AD100F0FA
:100830003FF8C0680168405CD4E901219047206A14
:10084000401C2062281EA5F10105DCDC07E0D4E98C
:10085000012118F8010B9047206A401C2062381EC5
:10086000A7F10107F3DC2046AFF30080032011B0AD
:1008700041E6000001694A1C02610878704700B532
:100880008FB0CDE901310021059105497944CDE9C9
:10089000031011466846FFF77FFD0FB000BD000052
:1008A000E5FFFFFF0A6802F8010B0A6070470000CD
:1008B000004870479C00002030B5B0F10A024FEAB2
:1008C000900E71F100034EEA817EB0EB0E0061EBF9
:1008D00091014FEA101E4EEA017E10EB0E0041EB33
:1008E00011114FEA102E4EEA016E10EB0E0041EB93
:1008F00011214FEA104E4EEA014E10EB0E0041EB73
:100900001141401841F100014FEAD00040EA417026
:100910004FEAD10110EB80054FEA810444EA90745C
:1009200044EB01046D1944EB0404521BA3414FF046
:10093000000348BF0A3200D530BD401C41F1000120
:1009400030BD00002DE9F0411F4604460326016832
:10095000072A01F4006004DB08B116A505E016A51E
:1009600003E008B115A500E015A521F010002060F6
:10097000A069C01EA0610FB1401EA0612046AFF368
:1009800000804FB1D4E9012138469047206A401CCD
:100990002062C01C206206E0206AFAE7D4E9012147
:1009A00015F8010B9047761EF8D22046AFF3008071
:1009B000BDE8F0814E414E006E616E00494E46002A
:1009C000696E66002DE9F047814616468AB03548C3
:1009D00078440DC88DE80D0032487844801C03AC83
:1009E0000DC884E80D0041F69B300844372190FB88
:1009F000F1F290FBF1F5A5F1800501FB12041B3C1F
:100A000002D56442012000E00020DFF898A0804673
:100A10000027FA44AAF1BE0A0EE0E0070AD03246E7
:100A2000684607EB470101230AEB810100F046FB12
:100A30008DE8070064107F1C002CEED1194F7F4415
:100A4000AE3F19E0E80715D007EB04100DF1180AC6
:100A500090E80E008AE80E00C068F04201D19819B3
:100A600008903246012306A903A800F027FB03AB38
:100A700083E807006D10641C002DE3D14FF00103E3
:100A800032466946B8F1000F03A802D000F001FB1E
:100A900001E000F013FBC9E90001C9F808200AB021
:100AA000BDE8F087542F0000004870477C0000200C
:100AB0007546FFF7F9FFAE4605006946534620F03C
:100AC0000700854618B020B5FFF7C8FBBDE82040F9
:100AD0004FF000064FF000074FF000084FF0000BFA
:100AE00021F00701AC46ACE8C009ACE8C009ACE8AD
:100AF000C009ACE8C0098D46704710B50446AFF395
:100B000000802046BDE81040FFF794BB4FF0013C49
:100B100050F8042B51F8043B9A4221D1A2EB0C036C
:100B2000934313EACC1317D150F8042B51F8043B2C
:100B30009A4215D1A2EB0C03934313EACC130BD1C9
:100B400050F8042B51F8043B9A4209D1A2EB0C0354
:100B5000934313EACC13DBD04FF00000704700BF83
:100B6000D01A01BAB1FA81F101F0180122FA01F0AC
:100B7000CB40C1F12001DBB2C0B2C01A2CFA01F3A4
:100B8000D11A914311EAC311E6D1704701491820E7
:100B9000ABBEFEE72600020070475FEA400C08BFCC
:100BA00091F0000F4FEA8C234FEAC12243EA5151E2
:100BB0004FEA1C5018BF00F5F0404FEA300018BF54
:100BC00041F000415FEA6C5C00F02980BCF1FF3F1E
:100BD00008BF40F080407047130C06BF12044FF06E
:100BE000100C4FF0000C130E04BF12020CF1080C95
:100BF000130F04BF12010CF1040C930F04BF9200F9
:100C00000CF1020CD30F04BF52000CF1010C114681
:100C10004FF00002A0F11F00A0EB0C00704711F094
:100C2000004F08BF704731F000413FF4D5AF0B0CC7
:100C300006BF09044FF0100C4FF0000C0B0E04BF60
:100C400009020CF1080C0B0F04BF09010CF1040C94
:100C50008B0F04BF89000CF1020CCB0F04BF4900BD
:100C60000CF1010CCCF12003A0EB0C0022FA03F3F1
:100C700002FA0CF241EA030100F10100704720F092
:100C80007F4C80EA030023F07F47ACEB070303F5BA
:100C90007C5300F0004003F1FF032DE980494FEA47
:100CA000154B09B44FEA144325EA0B4E24EA0348D6
:100CB0000FF2042606EB132749083E785FEA32025A
:100CC00003FB0667C7F5000707FB06F64FEA543734
:100CD0004FEAD64606F1020607FB066CCCF1005C33
:100CE0004FEA1C472CEA074C07FB06F40CFB06F501
:100CF00004EB15464FEA961634BF00204FF0004033
:100D00004FEAD13706FB07FC4FEA1C4C0CFB0BF7F4
:100D1000D21B03FB0CF761EB07010CFB0EF7B0EBEA
:100D2000074072EB17420CFB08F734BFA2EB0742F7
:100D3000B2EB074261EB17414FEA0C444FEA9107CF
:100D400006FB07FC4FEA1C4C0CFB0BF7B0EBC74053
:100D500072EB573203FB0CF734BFA2EBC742B2EB86
:100D6000C74261EB57310CFB0EF7B0EBC70072EBDB
:100D700057720CFB08F734BFA2EBC702B2EBC702F5
:100D800061EB5771039F4FEA816141EA921104EBD5
:100D9000CC044FEAD1374FEA826206FB07FC42EAF5
:100DA00090124FEA80604FEA1C4C0CFB0BF7D21BF1
:100DB00003FB0CF761EB07010CFB0EF7B0EB0740F0
:100DC00072EB17420CFB08F734BFA2EB0742B2EB01
:100DD000074261EB17414FEA8C554FEA910704EB4C
:100DE0009C2406FB07FC4FEA1C4C0CFB0BF7B0EBFA
:100DF000C74072EB573203FB0CF734BFA2EBC7427C
:100E0000B2EBC74261EB57310CFB0EF7B0EBC700FA
:100E100072EB57720CFB08F734BFA2EBC702B2EBC0
:100E2000C70261EB577115EB4C254FEA816141EA2E
:100E300092114FEA82624FEAD13742EA901206FBE2
:100E400007FC44F100044FEA80604FEA1C4C0CFBA5
:100E50000BF7D21B03FB0CF761EB07010CFB0EF742
:100E6000B0EB074072EB17420CFB08F734BFA2EB64
:100E70000742B2EB074261EB174115EB1C154FEA35
:100E8000813141EA92414FEA823242EA90424FEA8E
:100E900080304FEA0C7644F1000448EA03434EEAFE
:100EA0000B484FF0000EB2EB080C71EB030724BFA8
:100EB000624639464EEB0E0E4FF0000B00185241C1
:100EC00049414BEB0B0BB2EB080C71EB03077BF1C9
:100ED000000B24BF624639464EEB0E0E4FF0000B5E
:100EE0000018524149414BEB0B0BB2EB080C71EB74
:100EF00003077BF1000B24BF624639464EEB0E0E12
:100F000051EA020718BF46F0010616EB0E7655F1BE
:100F1000000254F1000103D5BDE88901BDE8008855
:100F2000BDE88901BDE80048B619524141EB010115
:100F3000A3F10103704780807F7E7D7C7B7A797886
:100F4000777676757473727171706F6E6E6D6C6C8E
:100F50006B6A6A6968686766666564646363626130
:100F60006160605F5F5E5E5D5D5C5C5B5B5A5A59B1
:100F7000595858575756565555555454535352521D
:100F80005251515050504F4F4F4E4E4D4D4D4C4C75
:100F90004C4B4B4B4A4A4A494949484848474747BE
:100FA00047464646454545444444444343434342FB
:100FB000424242414141002B9C4630D477002BD025
:100FC0001CB54FEA370703B44FF010004FF0100183
:100FD000BAF1000F06D0BCF1000FDCBF40F00800F2
:100FE00040F008014FF000000FBCBDE810400BF1CD
:100FF000010BBBF1010F08BF5FEA170722BF12F117
:10100000010211F101014FF0004143F1000300F032
:10101000004043EA00007047F9D35708D0E746EA9A
:10102000064613F1400F4FEA16461FDD13F1200F5D
:10103000DFBF16430A46002120335B42BED0C3F116
:10104000200746EA064602FA07F74FEA164646EA3E
:101050000706C3F1200722FA03F201FA07F721FA83
:1010600003F14FF0000342EA0702A7E746EA02064F
:1010700046EA06464FEA164646EA0106BCBF46EA7D
:101080000646360C4FF000034FF000024FF000010F
:1010900094E72DE9804C9A46934670B491E8380065
:1010A00007C831EA400C48BF34EA430C03D5FFF7C8
:1010B000E6FDFFF780FFF0BCBDE8008C2DE9804C19
:1010C0009A46934670B491E8380007C810F0804FF4
:1010D00008BF13F0804F03D100F005F8FFF76BFF56
:1010E000F0BCBDE8008C20F07F4780EA030023F0CD
:1010F0007F4C07EB0C03A3F57C5300F00040A3F1F9
:10110000FE0392F0000F00F0B38095F0000F00F0A6
:1011100077802DE901494FEA11404FEA144621EA50
:10112000004800FB06FC24EA064708FB06F607FB1E
:1011300008F800FB07F718EB06484CEB164C4FEA93
:10114000124B18EB07484FEA15464CEB174022EAC2
:101150000B4E0BFB06FC25EA06470EFB06F607FBCB
:101160000EFE0BFB07F71EEB064E4CEB164C4FF03A
:1011700000061EEB074E4CEB174B18EB0B0840F12B
:10118000000018EB0E0B58EB000840F100008F1A1E
:101190004FF000013CBFC943661B14BFB5EB040C04
:1011A00000213CBFC943F61B4FEA17444EEA8E0E9E
:1011B00027EA04454FEA1C4704FB07622CEA074C68
:1011C00005FB07F70CFB05F604FB0CFC16EB0746CA
:1011D00042EB174216EB0C4642EB1C421BEB060699
:1011E00058EB0202414146EA9E0601D5BDE801895D
:1011F000B619524141EB0101A3F10103BDE8018998
:101200004FEA14454FEA114724EA054621EA074C04
:1012100005FB07F406FB07F70CFB06F105FB0CFCCE
:1012200011EB074144EB17444FEA124711EB0C4115
:1012300044EB1C4422EA074C05FB07F206FB07F7C8
:101240000CFB06F605FB0CFC16EB074642EB1742BF
:1012500016EB0C4642EB1C456A1854F1000148BFDE
:101260007047B619524141EB0101A3F101037047E8
:1012700095F0000F37D04FEA11424FEA144721EAA8
:10128000024624EA074C02FB07F106FB07F70CFBBA
:1012900006F402FB0CFC14EB074441EB17414FEA48
:1012A000154714EB0C4441EB1C4125EA074C02FBAB
:1012B00007F506FB07F70CFB06F602FB0CFC16EB2A
:1012C000074645EB174516EB0C4645EB1C42121939
:1012D00051F1000148BF7047B619524141EB01017D
:1012E000A3F1010370474FEA14454FEA114724EA7E
:1012F000054621EA074C05FB07F106FB07F70CFB47
:1013000006F24FF0000605FB0CFC12EB074241EB26
:10131000174112EB0C4251EB1C4148BF7047921829
:1013200041EB0101A3F1010370470000464910B5EC
:101330004A6822F440324A604A6843681A434A6065
:1013400001684A6822F480724A6001684A68036949
:1013500042EA03224A6001684A6822F040724A6009
:1013600001684A6883681A434A6001688A6822F4FF
:1013700000628A6001688A68C3681A438A60816A69
:101380006FF07062D14201688A6822F070628A60F0
:1013900001688A680CD0836A1A438A6001688A6887
:1013A00022F040528A6001688A68C36A1A4301E0E9
:1013B00022F040528A6001688A6822F002028A6044
:1013C00001688A68037E42EA43028A6090F820102E
:1013D000002901684A680FD042F400624A6001683F
:1013E0004A6822F460424A6001684A68174C436ABE
:1013F00004EB43331A4301E022F400624A600168BF
:10140000CA6A22F47002CA620168CA6A838B104CED
:1014100004EB03531A43CA6201688A6822F400721B
:101420008A6001688A6890F8303042EA43228A6014
:1014300001688A6822F480628A6001688A6840696B
:1014400042EA8020886010BD0023014000E0FFFFD9
:101450000000F0FFFEE7704772B6FEE778B50024A3
:10146000009490F83C20012A19D0012280F83C20F9
:101470000A6807230568092A13D9EE680A3A02EBBD
:10148000420293409E43EE600B788A680A3B03EB6E
:1014900043039A400368DD682A43DA6010E00220C3
:1014A00078BD2E6902EB420293409E432E610B7879
:1014B0008A6803EB43039A4003681D692A431A6153
:1014C0004A681F23072A13D205686E6B521E02EB6F
:1014D000820293409E436E630B790A885B1E92B230
:1014E00003EB83039A4003685D6B2A435A6327E04A
:1014F00005680D2A12D22E6BD21F02EB8202934096
:101500009E432E630B790A88DB1F92B203EB8303A1
:101510009A4003681D6B2A431A6311E0EE6A0D3A84
:1015200002EB820293409E43EE620B790A880D3BE8
:1015300092B203EB83039A400368DD6A2A43DA62BE
:10154000164B0568144A9D4206D10D68122D03D131
:10155000556845F48005556005689D4218D10B68B3
:10156000102B01D0112B13D1536843F400035360A7
:10157000096810290CD10A490A4A0968B1FBF2F13D
:1015800001EB8101490000E0491E00910029FBD1D7
:1015900080F83C40002078BD00230140002001403D
:1015A0002000002040420F00006C70470068C06CB3
:1015B000704770B504004FF0000503D0206C002682
:1015C00010B107E0012070BD204600F01DF86664F0
:1015D00084F83C60206CC00610D4206C20F4885045
:1015E00040F0020020642046FFF7A0FE6664206CF5
:1015F00020F0020040F00100206400E0012584F8A2
:101600003C60284670BD000010B586B00446142129
:101610006846FEF7F5FE1149206888421CD1104843
:101620000021026842F480720260006800F4807059
:1016300005900B481438026842F00402026000680A
:1016400000F004000590102000900320CDE9010176
:101650006946044800F0EEF806B010BD00200140D5
:1016600044380240000802402DE9F0410446006879
:101670000D4681684FF0000749050BD58068C0050D
:1016800008D5206C40F02000206484F83C700120D4
:10169000BDE8F08100F0CCF9064613E0681C11D0DB
:1016A00025B100F0C5F9801BA8420BD9206800685D
:1016B000800707D4206C40F00400206484F83C705C
:1016C0000320E5E7206800688007E7D521686FF010
:1016D00012000860206C40F400702064206881686B
:1016E00011F0405F13D1217E89B9C16A11F4700FE6
:1016F00002D0806840050AD4206C20F480702064F9
:10170000206CC00403D4206C40F001002064002051
:10171000BEE7000018B50021009190F83C20012A96
:1017200007D0012280F83C2002689368DB0702D0D2
:1017300011E0022018BD936843F0010393602E4A24
:101740002E4B1268B2FBF3F202EB420200E0521E93
:101750000092002AFBD102689368DB0742D0036C39
:1017600040F20164A34343F48073036453685B0550
:1017700005D5036C23F4005343F480530364036CD6
:10178000DB0404D5436C23F00603436400E04164AA
:1017900080F83C101A496FF0220313604968006812
:1017A000CA06184906D0884224D1816811F0405FEA
:1017B00013D01FE08842F8D0134A904203D1D1F8E9
:1017C0000423D206F1D0114A904213D1D1F8041368
:1017D00001F01F011029E8D30CE0816841F080413D
:1017E000816007E0016C41F010010164416C41F03F
:1017F00001014164002018BD2000002040420F007C
:10180000002301400020014000210140002201404E
:1018100070B5044600F00CF90546601C02D004487F
:101820000078044400F004F9401BA042FAD370BDD4
:10183000140000202DE9F84FDFF8BCA1002201259B
:1018400003264FF00F090AF1040BAAF1040E00BFA2
:101850000B6805FA02F42340A34270D10F7907F018
:101860000307012F01D0022F16D187684FEA4208E3
:1018700006FA08FC27EA0C07D1F80CC00CFA08FCA1
:101880004CEA070CC0F808C04768A7430C79C4F3BA
:10189000001494403C4344600C79E443A4070AD00C
:1018A000C4684FEA420C06FA0CF7BC438F6807FA8B
:1018B0000CF72743C7600C7904F00304022C12D103
:1018C000D40800EB840CDCF820405707FF0E09FA1F
:1018D00007F824EA0804D1F8108008FA07F848EA63
:1018E0000408CCF8208004684FEA420C06FA0CF792
:1018F000BC430F7907F0030707FA0CF7274307608B
:101900004C6814F4403F70D03C4C276847F4804743
:101910002760246822F0030704F480440094384CC4
:1019200007EB040CDCF8084897074FEA177809FA28
:1019300008F7BC43334FB84202D1002724E054E0FB
:10194000314FB84201D101271EE0304FB84201D1DA
:10195000022719E02E4FB84201D1032714E02D4F82
:10196000B84201D104270FE02B4FB84201D105271F
:101970000AE02A4FB84201D1062705E0284FB842B5
:1019800001D1072700E0082707FA08F72743CCF81A
:101990000878DAF800405746D1F804C09C435FEA63
:1019A000CC2C00D51C433C60DBF800405F46D1F8EE
:1019B00004C09C435FEA8C2C00D51C433C60DEF8DD
:1019C00000407746D1F804C09C435FEA8C3C00D5C8
:1019D0001C433C60084F083F3C68D1F804C09C435E
:1019E0005FEACC3C00D51C433C60521C102AFFF43B
:1019F0002FAFBDE8F88F0000083C0140443802409A
:101A00000030014000000240000402400008024093
:101A1000000C024000100240001402400018024076
:101A2000001C02400AB1816170470904FBE7000015
:101A30000148806870470000140000200248816857
:101A40000278114481607047140000200B4810B5E3
:101A5000016841F400710160016841F48061016036
:101A6000016841F480710160032000F061F80F20EB
:101A700000F006F800F024F8002010BD003C024001
:101A800070B50D4D04464FF47A712878B1FBF0F033
:101A90000A490968B1FBF0F000F0DEFA48B9102CF1
:101AA00007D200222146501E00F022F800206C6070
:101AB00070BD012070BD0000140000202000002037
:101AC0000A4808B5016841F480410160006800F4EB
:101AD000804000900548001F016841F0805101607E
:101AE000006800F08050009008BD000044380240BB
:101AF000F0B40E4B1B680C46C3F30223C3F1070579
:101B0000042D00D90425191D072901D2002300E066
:101B1000DB1E012606FA05F1491E214099409E4030
:101B2000761E16403143F0BC00F0D7BC0CED00E04F
:101B3000064900F0070208684FF6FF03184040EA24
:101B40000220034A10430860704700000CED00E0DB
:101B50000000FA052DE9F0470E46050065D0DFF8D4
:101B60001481D8F80000F7B200F00700B04207D2A5
:101B700088F80070D8F8000000F00700B04254D197
:101B800028683D4C810712D5400703D5206840F4F2
:101B9000E05020602878000703D5206840F46040BA
:101BA00020602068A96820F0F000084320602878B1
:101BB000C0072DD0304968680839012812D00228A2
:101BC00013D0032811D00968890700292DDA21686C
:101BD00021F0030101432160FFF72AFF814641F212
:101BE000883A0EE009688903EFE709688901ECE7A4
:101BF000FFF71EFFA0EB0901514502D90320BDE804
:101C0000F0872068696800F00C00B0EB810FEFD11D
:101C1000D8F80010404601F00701B14207D907701B
:101C2000006800F00700B04201D00120E7E7287803
:101C3000400705D52068E96820F4E050084320609B
:101C40002878000706D52068296920F4604040EA1A
:101C5000C100206000F018F82168084AC1F30311A0
:101C6000515CC8400649086006480068FFF708FF55
:101C70000020C4E7003C024008380240CC2600089F
:101C80002000002018000020154810B5006810F052
:101C90000C02144813D01449042A0FD0082A0ED17C
:101CA0000F4C241F2268236802F03F025B0207D515
:101CB0002068C0F38810A0FB010106E0084610BDB3
:101CC0002168C1F38811A1FB00010023FEF7D8FAB7
:101CD0002168C1F30141491C4900B0FBF1F010BD7E
:101CE000083802400024F40040787D012DE9F84FC7
:101CF00004006ED02078DFF84C93C007A9F10405EA
:101D00004AD009F104000168C1F38101012908D01A
:101D10000068C0F3810002280AD1D9F8000040020F
:101D200006D52868800337D560680028E1D033E005
:101D30006068B0F5803F10D0B0F5A02F286810D0B3
:101D400020F480302860286820F4802028606068B3
:101D5000A8B1FFF76DFE06460DE0286840F480301C
:101D6000F4E740F480202860F7E700BFFFF760FE4B
:101D7000801B642873D828688003F7D50CE0FFF730
:101D800057FE064605E000BFFFF752FE801B6428A1
:101D9000F0D828688003F7D42078DFF8AC82800779
:101DA0004FF0000A3ED5A748001D016811F00C0F46
:101DB00008D00068C0F3810002280BD1D9F80000D8
:101DC000400207D42868800716D5E068012800D1B2
:101DD00012E033E1E068B8B10120C8F80000FFF775
:101DE00027FE064605E000BFFFF722FE801B022803
:101DF000C0D828688007F7D52868216920F0F80046
:101E000040EAC10028600DE0C8F800A0FFF710FE0E
:101E1000064604E0FFF70CFE801B02281FD8286846
:101E20008007F7D42078000722D5864F874861695C
:101E3000703771B101210160FFF7FAFD064604E039
:101E4000FFF7F6FD801B022809D838688007F7D510
:101E50000EE0C0F800A0FFF7EBFD064605E082E0CB
:101E6000FFF7E6FD801B02287DD838688007F7D48D
:101E70002078400768D5DFF8CCB100270BF13C0B88
:101E8000DBF80000C0000BD4DBF8001041F08051FB
:101E9000CBF80010DBF80000012700F08050009024
:101EA0006B4E3068C00510D4306840F480703060EC
:101EB000FFF7BEFD009005E0FFF7BAFD0099401A5C
:101EC000022850D83068C005F6D55E4EA0686C3642
:101ED00001280FD00528306810D020F001003060B4
:101EE000306820F004003060A068B8B1FFF7A0FDB2
:101EF00000900FE0306840F00100F4E740F004008B
:101F00003060F7E7FFF794FD0099411A41F28830FD
:101F1000814266D830688007F4D50EE0FFF788FD6F
:101F2000009007E0FFF784FD0099411A41F28830E4
:101F3000814256D830688007F4D42FB1DBF8001006
:101F400021F08051CBF80010A069C8B33D49091DAC
:101F50000968C1F3810102294AD00228504607D0FE
:101F6000C8F8600000E03CE0FFF762FD04463BE09B
:101F70004746C8F86000FFF75BFD064605E000BF76
:101F8000FFF756FD801B02282BD828688001F7D464
:101F9000D4E907010843A16A2E4A490802EB01412E
:101FA000626A41EA8211084394F82C1040EA016108
:101FB000C9F8001001203866FFF73AFD044606E034
:101FC0003EE000BFFFF734FD001B022809D8286857
:101FD0008001F7D534E000BFFFF72AFD001B02287F
:101FE00002D90320BDE8F88F28688001F4D427E0E7
:101FF0000128F7D0D9F80000E26900F4800191428D
:102000001CD1226A00F03F01914217D147F6C071FE
:10201000626A0140B1EB821F10D1A26A4FF0FF3318
:1020200000F4403103EB5202B1EB024F06D194F8B9
:102030002C1000F07060B0EB016F01D00120D1E7EF
:102040000020CFE70438024000004742800E47429C
:10205000007000400000FFFF10B5401EB0F1807F0F
:1020600001D3012010BD4FF0E02460610F21601703
:1020700000F033FA0020A06107202061002010BD8D
:10208000FEE7FFF7CFBC0000203AD2B2034B02EBD1
:10209000420203EB021200F01BB80000DC2600082D
:1020A0002DE9F041002500EB40000E462C46C7000C
:1020B00007E0F8B22146FFF7E7FF10346D1CA4B229
:1020C000761C3278002A01D0142DF2D3BDE8F081BD
:1020D0002DE9F05FA1F23F11C1F1000A91460026FF
:1020E00004461FFA8AF100F07AF80127DFF84C80E5
:1020F0004FF4805B00F0AAF85FF0000539F8160095
:1021000007FA05F10842404601D1408800E0008806
:1021100000F072F86D1C102DF0D3012259460848CA
:10212000FFF7AFFF641CE4B21FFA8AF1204600F00B
:1021300056F8761C182EDDD3BDE8F09F2400002051
:10214000000802402DE9F041074642F21070B2FB50
:10215000F0F014463030C2B20D46C1F5A07081B225
:102160003846FFF791FF4FF47A70B4FBF0F00A267F
:10217000B0FBF6F106FB11003030C2B2C5F5A87015
:1021800081B23846FFF780FF6420B4FBF0F0B0FB6B
:10219000F6F106FB11003030C2B2C5F5B07081B265
:1021A0003846FFF771FFB4FBF6F0B0FBF6F106FB23
:1021B00011003030C2B2C5F5B87081B23846FFF7B1
:1021C00063FFB4FBF6F006FB10403030C2B2C5F539
:1021D000C07081B23846BDE8F041FFF755BF10B579
:1021E0000C460146202000F03FF82146BDE8104093
:1021F000212000F039B800002DE9F041114E0446CD
:10220000012280213046FFF70DFC0F4D200A286087
:102210004FF40047002239463046FFF703FC012205
:1022200039463046FFF7FEFB2C6000223946304627
:10223000FFF7F8FB39463046BDE8F0410122FFF7D1
:10224000F1BB0000000C02401418024010B522201F
:1022500000F046F8BDE8104000224FF480510148DC
:10226000FFF70FBF000802402DE9F0470C4600F0D1
:1022700037F8DFF860804FF4805600223146404640
:10228000FFF7FFFEDFF85090012280214846FFF75C
:10229000C9FB124D200A2860F70000223946484643
:1022A000FFF7C0FB012239464846FFF7BBFB2C6015
:1022B000002239464846FFF7B5FB01223946484619
:1022C000FFF7B0FB31464046BDE8F0470122FFF77B
:1022D000D8BE000000080240000C02401418024062
:1022E0002DE9F047DFF8688007464FF4805500225B
:1022F00029464046FFF7C5FEDFF8589000228021AE
:102300004846FFF78FFB144C002020600246EE0089
:1023100031464846FFF786FB012231464846FFF723
:1023200081FB2760002231464846FFF77BFB0122F4
:1023300031464846FFF776FB012280214846FFF7E9
:1023400071FB29464046BDE8F0470122FFF799BEE0
:1023500000080240000C0240141802407FB500241F
:10236000144800940194029411490394C0E90014A4
:10237000846001250461057680F820400E49C0E99B
:102380000A14C561C46080F830404561FFF711F957
:1023900008B1FFF761F80E20CDE900056946029407
:1023A0000448FFF75BF8002801D0FFF755F87FBD20
:1023B00000200140340000200100000F0D4808B546
:1023C000016841F080010160016801F08001009125
:1023D000016841F004010160016801F0040100910D
:1023E000016841F001010160006800F00100009007
:1023F00008BD000030380240FEE7FEE77047704736
:10240000FFF71CBB30B593B030216846FDF7F8FFED
:1024100014210CA8FDF7F4FF1D480025016841F0C8
:1024200080510160006800F08050119019480168E7
:1024300041F4804101600068022400F48040119062
:1024400001200090000401908001CDE90640192090
:1024500008904FF4A870CDE9090404200B90684659
:10246000FFF744FC08B172B6FEE70CA90F2081E823
:1024700031004FF4A0500F90109005210CA8FFF7E9
:1024800069FB002801D072B6FEE713B030BD000032
:1024900040380240007000400248016841F4700179
:1024A0000160704788ED00E0FEE703B40198410049
:1024B000009850EAC12018BF04204A0D18BF40F010
:1024C000010040F2FF72B2EB515F08BF40F0020022
:1024D000012808BF052002B070470907090E00282F
:1024E00004DB00F1E02080F80014704700F00F00DA
:1024F00000F1E02080F8141D70470000FFF7A6FAF5
:10250000FFF780FFFFF75AFFFFF728FF1F48FFF78D
:1025100001F932211D48FFF7A7F81C48FFF744F8DE
:1025200080052ED51948FFF741F8194C04F1080130
:1025300020800020FFF7B4FD22884FF496714620DA
:10254000FFF700FE2088DFED130A00EE100A9FED72
:10255000121AB8EE400A60EE200A80EE810A84ED7D
:10256000010A10EE100A00F039F841EC100B0BA133
:1025700053EC102B0A48FDF7FBFE09490520FFF735
:102580008FFD6420FFF744F9C0E70000340000200D
:10259000000000203333534000FF7F4725660000D2
:1025A0002800002010B500290AD00878002807D09C
:1025B00005487844FEF7AAFA002801D0002010BD93
:1025C0000248784410BD0000AE130000A6130000BE
:1025D0000808A0F500114FEA3101704743004FEAA7
:1025E000D30C4FEA3C0C43401FBF40070CF1605135
:1025F00013F0FE4F70471CF0006F03D100200CF069
:10260000004170470CF0004343EA507010B540EAB7
:10261000CC0000F00EF800BF000000924FEA00016D
:10262000FFF7D6BF4FF000414FF00000A1F50021A9
:1026300070470EF1020E2EF0030E5EF8044B24429A
:1026400004D44FEA4102B2F17F4F11D84FEA400360
:10265000B3F17F4F0CD80ED14FEAD07CB2F17F4F4F
:102660000CEB4C0C0CF1020C08BF4CEBD17C04E0E1
:102670004FF0080C01E04FEAD17C0CEB4C0324FA3C
:1026800003F404F00704B4F1040C06D20EEB840C3E
:10269000BDE810404CF0010C6047DFE80CF0070883
:1026A00002024FF00040A0F5800010BD0846420035
:1026B00018BFD2F1807288BF00F0004010BD4FF00B
:1026C0004070E1EE100A7047FDF79DBF000000006A
:1026D00000000000010203040607080900000000D2
:1026E00000000000000000000000000000000000EA
:1026F00000000000000000000000000000000000DA
:102700000000000000000000000000000000800148
:1027100080018001800180018001800180018001B1
:1027200080018001800180010000000080018001A3
:102730000000000000000000000000000000000099
:10274000CC00CC00CC00CC00CC00CC0000000000C1
:102750000000000000000000000000000000000079
:102760000000000000000000000000000000000069
:102770000000000000000000600C600C600C3006DF
:102780003006FE1FFE1F300638071803FE1FFE1F0F
:10279000180318038C018C018C01000000008000DC
:1027A000E003F80F9C0E8C1C8C188C009800F8012C
:1027B000E007800E801C8C188C189C18B80CF00F49
:1027C000E003800080000000000000000000000026
:1027D00000000E181B0C110C110611061103110339
:1027E0009B018E01C038C06C60446044304430446A
:1027F0001844186C0C380000000000000000E001D4
:10280000F0033807180618063003F001F000F8004E
:102810009C310E33061E061C061C063FFC73F0217D
:1028200000000000000000000000000000000000A8
:102830000C000C000C000C000C000C000000000050
:102840000000000000000000000000000000000088
:102850000000000000000000000000000000000276
:1028600000038001C000C000600060003000300044
:102870003000300030003000300030006000600078
:10288000C000C00080010003000200000000200022
:102890006000C00080018001000300030006000604
:1028A00000060006000600060006000600030003FE
:1028B00080018001C00060002000000000000000D6
:1028C0000000000000000000C000C000D806F807AB
:1028D000E0013003380700000000000000000000A5
:1028E00000000000000000000000000000000000E8
:1028F00000000000000000008001800180018001D4
:102900008001FC3FFC3F800180018001800180014B
:1029100000000000000000000000000000000000B7
:1029200000000000000000000000000000000000A7
:102930000000000000000000000000000000800116
:102940008001000100018000000000000000000084
:102950000000000000000000000000000000000077
:1029600000000000E007E007000000000000000099
:102970000000000000000000000000000000000057
:102980000000000000000000000000000000000047
:102990000000000000000000000000000000C00077
:1029A000C000000000000000000000000000000C5B
:1029B000000C00060006000600030003000380036D
:1029C000800180018001C000C000C0006000600084
:1029D0000000000000000000000000000000E00314
:1029E000F007380E180C0C180C180C180C180C18D2
:1029F0000C180C180C180C18180C380EF007E00303
:102A000000000000000000000000000000000001C5
:102A10008001C001F00198018801800180018001DE
:102A2000800180018001800180018001800180019E
:102A30000000000000000000000000000000E003B3
:102A4000F80F180C0C180C1800180018000C0006D1
:102A500000038001C000600030001800FC1FFC1F54
:102A60000000000000000000000000000000E00185
:102A7000F807180E0C0C0C0C000C0006C003C00765
:102A8000000C001800180C180C18180CF807E003BC
:102A90000000000000000000000000000000000C2A
:102AA000000E000F000F800DC00C600C600C300C8D
:102AB000180C0C0CFC3FFC3F000C000C000C000C34
:102AC0000000000000000000000000000000F80FFF
:102AD000F80F180018000C00EC03FC071C0E001C7B
:102AE0000018001800180C181C0C180EF807E0034A
:102AF0000000000000000000000000000000C0070F
:102B0000F00F381C181818000C00CC03EC0F3C0E0A
:102B10001C1C0C180C180C18181C380EF007E003BD
:102B20000000000000000000000000000000FC1F8A
:102B3000FC1F000C00060006000380038001C0019A
:102B4000C000E00060006000700030003000300025
:102B50000000000000000000000000000000E00392
:102B6000F007380E180C180C180C3806F007F00790
:102B7000180C0C180C180C180C18380CF80FE00373
:102B80000000000000000000000000000000E00362
:102B9000F007380E1C0C0C180C180C181C1C381ED6
:102BA000F81BE0190018000C000C1C0EF807F001CF
:102BB0000000000000000000000000000000000015
:102BC0000000000000000000800180010000000003
:102BD00000000000000000000000000080018001F3
:102BE00000000000000000000000000000000000E5
:102BF00000000000000000008001800100000000D3
:102C000000000000000000000000000080018001C2
:102C10000001000180000000000000000000000032
:102C20000000000000000000000000000010001C78
:102C3000800FE003F8001800F800E003800F001C8C
:102C40000010000000000000000000000000000074
:102C5000000000000000000000000000F81F00005D
:102C600000000000F81F000000000000000000004D
:102C70000000000000000000000000000000000054
:102C80000000000000000000000000000800380004
:102C9000F001C007001F0018001FC007F001380036
:102CA0000800000000000000000000000000E00339
:102CB000F80F180C0C180C180018000C0006000374
:102CC0008001C000C000C00000000000C000C000C3
:102CD00000000000000000000000000000000000F4
:102CE000E00718180420C229224A11440944094463
:102CF000094409221113E20C024004201818E007CD
:102D00000000000000000000000000000000800340
:102D10008003C006C006C006600C600C3018301876
:102D20003018F83FF83F1C700C600C6006C006C0FD
:102D30000000000000000000000000000000FC0394
:102D4000FC0F0C0C0C180C180C180C0CFC07FC0FCE
:102D50000C180C300C300C300C300C18FC1FFC071D
:102D60000000000000000000000000000000C0079C
:102D7000F01F38381C300C70066006000600060094
:102D800006000600060006600C701C30F01FE0070D
:102D90000000000000000000000000000000FE0332
:102DA000FE0F060E061806180630063006300630EE
:102DB00006300630063006180618060EFE0FFE0313
:102DC0000000000000000000000000000000FC3FC8
:102DD000FC3F0C000C000C000C000C00FC1FFC1F46
:102DE0000C000C000C000C000C000C00FC3FFC3F25
:102DF0000000000000000000000000000000F83F9C
:102E0000F83F18001800180018001800F81FF81FE5
:102E100018001800180018001800180018001800F2
:102E20000000000000000000000000000000E00FB3
:102E3000F83F3C780E6006E007C00300030003FE85
:102E400003FE03C007C006C00EC03CF0F83FE00F11
:102E500000000000000000000000000000000C3036
:102E60000C300C300C300C300C300C30FC3FFC3F84
:102E70000C300C300C300C300C300C300C300C3072
:102E800000000000000000000000000000008001C1
:102E9000800180018001800180018001800180012A
:102EA000800180018001800180018001800180011A
:102EB000000000000000000000000000000000060C
:102EC00000060006000600060006000600060006D2
:102ED000000600060006180618063807F003E00191
:102EE00000000000000000000000000000000630AC
:102EF0000618060C060606038601C6006600760064
:102F0000DE008E0106030606060C06180630066073
:102F10000000000000000000000000000000180099
:102F200018001800180018001800180018001800E1
:102F3000180018001800180018001800F81FF81FD3
:102F400000000000000000000000000000000EE093
:102F50001EF01EF01EF036D836D836D836D866CCDD
:102F600066CC66CCC6C6C6C6C6C6C6C686C386C33B
:102F700000000000000000000000000000000C3015
:102F80001C303C303C306C306C30CC30CC308C3130
:102F90000C330C330C360C360C3C0C3C0C380C301F
:102FA0000000000000000000000000000000E0073A
:102FB000F81F1C380E70066003C003C003C003C0B6
:102FC00003C003C003C006600E701C38F81FE00782
:102FD0000000000000000000000000000000FC0FE6
:102FE000FC1F0C380C300C300C300C300C18FC1F53
:102FF000FC070C000C000C000C000C000C000C007A
:103000000000000000000000000000000000E007D9
:10301000F81F1C380E70066003E003C003C003C035
:1030200003C003C007E006630E3F1C3CF83FE0F717
:1030300000C0000000000000000000000000FE0FC3
:10304000FE1F06380630063006300638FE1FFE0723
:1030500006030606060C061806180630063006603B
:103060000000000000000000000000000000E0037D
:10307000F80F1C0C0C180C180C001C00F803E00FC7
:10308000001E0038063006300E301C1CF80FE0071A
:103090000000000000000000000000000000FE7FB3
:1030A000FE7F80018001800180018001800180011C
:1030B0008001800180018001800180018001800108
:1030C00000000000000000000000000000000C30C4
:1030D0000C300C300C300C300C300C300C300C3010
:1030E0000C300C300C300C300C301818F81FE00786
:1030F000000000000000000000000000000003606D
:103100000630063006300C180C180C18180C180C69
:10311000380E30063006700760036003C001C0013E
:10312000000000000000000000000000000003603C
:10313000C361C361C3616633663366336633663326
:1031400066336C1B6C1B6C1B2C1A3C1E380E380E25
:1031500000000000000000000000000000000FE080
:103160000C7018303018700C600EC007800380039C
:10317000C003E006700C301C18180C300E6007E01D
:10318000000000000000000000000000000003C07C
:1031900006600C301C383818300C6006E007C0039D
:1031A0008001800180018001800180018001800117
:1031B0000000000000000000000000000000FC7F94
:1031C000FC7F006000300018000C00060003800146
:1031D000C0006000300018000C000600FE7FFE7F7B
:1031E0000000000000000000000000000000E003FC
:1031F000E00360006000600060006000600060004C
:1032000060006000600060006000600060006000BE
:10321000600060006000E003E00300000000300098
:103220003000600060006000C000C000C000C0014D
:1032300080018001800100030003000300060006F6
:103240000000000000000000000000000000E0039B
:10325000E003000300030003000300030003000376
:103260000003000300030003000300030003000346
:10327000000300030003E003E0030000000000007F
:10328000C001C00160036003600330063006180C03
:10329000180C00000000000000000000000000000A
:1032A000000000000000000000000000000000001E
:1032B000000000000000000000000000000000000E
:1032C0000000000000000000000000000000FFFF00
:1032D000FFFF0000000000000000000000000C00E4
:1032E0000C000C000C000C000C00000000000000A2
:1032F00000000000000000000000000000000000CE
:1033000000000000000000000000000000000000BD
:103310000000000000000000F003F8071C0C0C0C7B
:10332000000FF00FF80C0C0C0C0C1C0FF80FF01821
:103330000000000000000000000000000000180075
:103340001800180018001800D803F80F380C1818C7
:1033500018181818181818181818380CF80FD80357
:10336000000000000000000000000000000000005D
:103370000000000000000000C003F007300E180C31
:103380001800180018001800180C300EF007C003C1
:103390000000000000000000000000000000001815
:1033A0000018001800180018C01BF01F301C181857
:1033B00018181818181818181818301CF01FC01BE7
:1033C00000000000000000000000000000000000FD
:1033D0000000000000000000C003F00F300C1818BF
:1033E000F81FF81F180018003818301CF00FC0071D
:1033F0000000000000000000000000000000800F3E
:10340000C00FC000C000C000F007F007C000C0003F
:10341000C000C000C000C000C000C000C000C000AC
:10342000000000000000000000000000000000009C
:103430000000000000000000E00DF80F180E0C0C5A
:103440000C0C0C0C0C0C0C0C0C0C180EF80FE00DEA
:10345000000C0C0C1C06F807F0010000000018001E
:103460001800180018001800D807F80F381C181892
:1034700018181818181818181818181818181818CC
:103480000000000000000000000000000000C0007C
:10349000C000000000000000C000C000C000C0006C
:1034A000C000C000C000C000C000C000C000C0001C
:1034B0000000000000000000000000000000C0004C
:1034C000C000000000000000C000C000C000C0003C
:1034D000C000C000C000C000C000C000C000C000EC
:1034E000C000C000C000F8007800000000000C0020
:1034F0000C000C000C000C000C0C0C060C038C01D6
:10350000CC006C00FC009C018C030C030C060C0C22
:103510000000000000000000000000000000C000EB
:10352000C000C000C000C000C000C000C000C0009B
:10353000C000C000C000C000C000C000C000C0008B
:10354000000000000000000000000000000000007B
:1035500000000000000000007C3CFF7EC7E383C148
:1035600083C183C183C183C183C183C183C183C13B
:10357000000000000000000000000000000000004B
:1035800000000000000000009807F80F381C181811
:1035900018181818181818181818181818181818AB
:1035A000000000000000000000000000000000001B
:1035B0000000000000000000C003F00F300C1818DD
:1035C00018181818181818181818300CF00FC0030D
:1035D00000000000000000000000000000000000EB
:1035E0000000000000000000D803F80F380C181885
:1035F00018181818181818181818380CF80FD803B5
:103600001800180018001800180000000000000042
:103610000000000000000000C01BF01F301C181844
:1036200018181818181818181818301CF01FC01B74
:103630000018001800180018001800000000000012
:103640000000000000000000B007F0037000300030
:1036500030003000300030003000300030003000EA
:10366000000000000000000000000000000000005A
:103670000000000000000000E003F003380E180C0A
:103680003800F003C007000C180C380EF007E003F8
:10369000000000000000000000000000000000002A
:1036A0008000C000C000C000F007F007C000C000EC
:1036B000C000C000C000C000C000C000C00780073C
:1036C00000000000000000000000000000000000FA
:1036D000000000000000000018181818181818182A
:1036E00018181818181818181818381CF01FE0198E
:1036F00000000000000000000000000000000000CA
:1037000000000000000000000C18180C180C180C29
:10371000300630063006600360036003C001C0015C
:103720000000000000000000000000000000000099
:103730000000000000000000C141C141C36163639B
:10374000636363633636363636361C1C1C1C1C1C01
:103750000000000000000000000000000000000069
:1037600000000000000000001C38381C300C60060F
:1037700060036003600360036006300C381C1C3873
:103780000000000000000000000000000000000039
:1037900000000000000000001830301830187018C9
:1037A000600C600CE00CC006C00680038003800340
:1037B00080018001C001F0007000000000000000E6
:1037C0000000000000000000FC1FFC1F000C0006B1
:1037D00000038001C000600030001800FC1FFC1FC7
:1037E00000000000000000000000000000000003D6
:1037F0008001C000C000C000C000C000C000600068
:103800006000300060004000C000C000C000C00088
:10381000C000C00080010003000000000000800123
:103820008001800180018001800180018001800190
:103830008001800180018001800180018001800180
:103840008001800180018001800100000000600093
:10385000C000C0018001800180018001800100035F
:103860000003000600030001800180018001800147
:1038700080018001C0006000000000000000000026
:10388000000000000000000000000000F010F81F21
:10389000080F000000000000000000000000000011
:1038A00000000000000000000000000002400000D6
:1038B000000000A00000000005400000000000C85B
:1038C000000000000C4000000000409C00000000D0
:1038D000194000000020BCBE000000003440000081
:1038E000BFC91B8E00000004B5400000504BCFD074
:1038F0006607E2CF010000006C4100003E8251AA41
:10390000DFEEA73401000000D9420000DCB5A0E2E0
:103910003A301F97FFFFFFFFB4450000FD25A0C808
:10392000E9A3C14FFFFFFFFFFF3F00000000008041
:1039300000000000FF3F00000000008000000000C9
:103940007C3900080000002028000000C4010008A5
:10395000A439000828000020B8060000E001000893
:103960001C00000043000000F8FFFFFF0C000000F7
:103970000E0000000F0000002E00000000000000FC
:103980000000000020414420546573743A20000078
:103990000100000010000000000000000024F400FE
:0439A0000000FFFF25
:040000050800018965
:00000001FF
